:020000040000FA
:0600000068EF37F012006A
:020006001200E6
:080008009EA402D0EFEF2EF0E0
:100010009EAA02D0E0EF33F09EA804D09DA802D0A3
:0600200064EF34F0120051
:0A0026000300026F0000A00D0000AF
:1000300009000000006F0000AD0D0000020000008C
:0C004000F16E0000910D00000F000000A8
:04004C00D9CFE6FF23
:10005000DACFE6FFE1CFD9FFE2CFDAFFE652E65290
:10006000E652E652E652F10EDBCFE6FFF20EDBCFB0
:10007000E6FFF80EDBCFE6FFF90EDBCFE6FF20EC64
:100080000FF0E552E552E552E552DE52F3CFDEFFC6
:10009000F4CFDDFFDD52D950010FE96E000EDA20FA
:1000A000EA6EEE50ED1001E11ED1010EDBCFE9FF4B
:1000B000020EDBCFEAFF170EE926000EEA22030E3E
:1000C000EECFDBFF040EEDCFDBFFF80EDBCF12F03F
:1000D000F90EDBCF13F01206000E135A010EDBCF20
:1000E000E9FF020EDBCFEAFF170EE926000EEA2237
:1000F0001250EE24106E1350EE20116E010EDBCF65
:10010000E9FF020EDBCFEAFF1D0EE926000EEA2210
:1001100010C0EEFF11C0EDFFF80EDBCFE6FFF90EC9
:10012000DBCFE6FFEF0EDBCFE6FFF00EDBCFE6FF27
:10013000F50EDBCFE6FFFA0EDBCFE6FFFB0EDBCFE3
:10014000E6FF010EDBCFE6FF020EDBCFE6FFFEECA3
:100150000CF0106E090EE15C02E2E16AE552E16E1C
:100160001050F60EDBCFE6FFF70EDBCFE6FFFC0EFE
:10017000DBCFE6FFFD0EDBCFE6FF030EDBCFE6FFB6
:10018000040EDBCFE6FF61EC2BF0126E060EE15C95
:1001900002E2E16AE552E16E1250F3CF10F0F4CFC3
:1001A00011F0010EDBCFE9FF020EDBCFEAFF10C03A
:1001B000EEFF11C0EDFFD950F30FE96EFF0EDA200C
:1001C000EA6EEE50ED100DE0F30EDBCFE9FFF40E1A
:1001D000DBCFEAFF010EDBCFEEFF020EDBCFEDFF40
:1001E00000D0F250E66EF29E0D01942B0D0191515C
:1001F00092110DE1010EDBCF91FD020EDBCF92FDDE
:100200000D01940503E1F8EC0DF000D017D00D01BD
:10021000985114E191CDE9FF92CDEAFF160EEB5013
:10022000106EF50EDB50D880105407E3010EDBCFC3
:1002300091FD020EDBCF92FD00D000D00D019C2B72
:10024000010EDBCFE9FF020EDBCFEAFF160EE92637
:10025000000EEA22EFCF10F00D019751D880105414
:100260000CE2010EDBCFE9FF020EDBCFEAFF160E38
:10027000E926000EEA22EFCF97FD010EDBCFE9FF62
:10028000020EDBCFEAFF020EE926000EEA22E9CFDA
:1002900010F0EACF11F010C0E6FF11C0E6FF010E2A
:1002A000DBCFE9FF020EDBCFEAFF160EE926000ED8
:1002B000EA22EF50090DF3CF12F0F4CF13F0000E45
:1002C00012260F0E132212C0E6FF13C0E6FFCDEC7C
:1002D00030F0E552E552E552E552010EDF6EE5528F
:1002E000E7BEF28E01D0DF68DF0412E10D01985104
:1002F0000FE091CDE9FF92CDEAFF160EEB50106EA4
:10030000F50EDB50105C03E215EC2EF000D000D0AF
:10031000DF5000D0106E050EE15C02E2E16AE552AA
:10032000E16E1050E552E5CFDAFFE7CFD9FF1200BA
:10033000D9CFE6FFDACFE6FFE1CFD9FFE2CFDAFF90
:10034000E652E652F250E66EF29ED950FC0FE96E8C
:10035000FF0EDA20EA6EEE50ED1005E191CD10F0BF
:1003600092CD11F006D0FC0EDBCF10F0FD0EDBCFEE
:1003700011F010C0DEFF11C0DDFFDECFE9FFDDCFE1
:10038000EAFF020EE926000EEA22E9CF10F0EACFDA
:1003900011F010C0E6FF11C0E6FF2FEC32F0E5527D
:1003A000E552000901E100D0DECFE9FFDDCFEAFF31
:1003B0000C0EE926000EEA22080EE926000EEA22BB
:1003C000EE50ED1015E0DECFE9FFDDCFEAFF0C0EB9
:1003D000E926000EEA22E9CF10F0EACF11F010C0B2
:1003E000E6FF11C0E6FF2FEC32F0E552E55200D0F7
:1003F000DECFE9FFDDCFEAFF020EE926000EEA229A
:10040000E9CF10F0EACF11F010C0E6FF11C0E6FF0F
:10041000430EE66E0F0EE66ECDEC30F0E552E5527F
:10042000E552E5520D01932B0D019C2BE552E7BEE1
:10043000F28E0D01985116E0DECF10F0DDCF11F0F5
:100440000D019151101802E19251111803E115ECC0
:100450002EF008D0F250E66EF29EBDEC0FF0E552A1
:10046000E7BEF28EE552E552E552E5CFDAFFE7CF7F
:10047000D9FF1200D9CFE6FFDACFE6FFE1CFD9FFEF
:10048000E2CFDAFF060EE12402E3E168E652E16E14
:10049000030EDB6A4CEC06F0040E95CDDBFF050E77
:1004A00096CDDBFFFA0EDBCF12F0FB0EDBCF13F0A5
:1004B000FC0EDBCFE9FFFD0EDBCFEAFF1250EE248E
:1004C000106E1350EE20116E10C0DEFF11C0DDFF64
:1004D000040EDBCF10F0050EDBCF11F0FC0EDBCFEE
:1004E000E9FFFD0EDBCFEAFFEECF12F0EFCF13F006
:1004F0001250105C1350115829E2DECF10F0DDCFFE
:1005000011F0FC0EDBCFE9FFFD0EDBCFEAFFEECFF3
:1005100012F0EFCF13F01250105C1350115815E287
:10052000DECF14F0DDCF15F0040EDBCF16F0050E94
:10053000DBCF17F01450165C1550175806E2010E69
:10054000F36E030EF3CFDBFF00D028D0DECF10F028
:10055000DDCF11F0FC0EDBCFE9FFFD0EDBCFEAFFB4
:10056000EECF12F0EFCF13F01250105C1350115871
:100570000FE3DECF14F0DDCF15F0040EDBCF16F065
:10058000050EDBCF17F01450165C1550175806E215
:10059000010EF36E030EF3CFDBFF00D0FC0EDBCFBA
:1005A000E9FFFD0EDBCFEAFFDECFEEFFDDCFEDFF93
:1005B000030EDB5020E091CDE9FF92CDEAFF020E61
:1005C000E926000EEA22E9CF10F0EACF11F010C0C0
:1005D000E6FF11C0E6FF2FEC32F0E552E5520009CC
:1005E00001E100D0DECFE6FFDDCFE6FFB0EC0EF09C
:1005F000E552E55200D053DBE76E020EE7CFDBFF9A
:10060000020EDB5003E115EC2EF000D0060EE15C8B
:1006100002E2E16AE552E16EE552E5CFDAFFE7CFAB
:10062000D9FF1200D9CFE6FFDACFE6FFE1CFD9FF3D
:10063000E2CFDAFFE652E652E652020EDB6AD9500A
:10064000FC0FE96EFF0EDA20EA6E000ED880EE5441
:10065000000EED5436E220DBFC0EDB500D0195253B
:100660000001106EFD0EDB500D0196210001116E90
:1006700010C0DEFF11C0DDFF91CDE9FF92CDEAFF92
:10068000020EE926000EEA22E9CF10F0EACF11F0BF
:1006900010C0E6FF11C0E6FF2FEC32F0E552E55244
:1006A000000901E100D0DECFE6FFDDCFE6FFB0ECD0
:1006B0000EF0E552E552F3DAE76E020EE7CFDBFF0C
:1006C00000D0020EDB5003E115EC2EF000D0E55215
:1006D000E552E552E552E5CFDAFFE7CFD9FF120048
:1006E000D9CFE6FFDACFE6FFE1CFD9FFE2CFDAFFDD
:1006F000E652E652F250E66EF29ED950FC0FE96ED9
:10070000FF0EDA20EA6EEE50ED1005E191CD10F00B
:1007100092CD11F006D0FC0EDBCF10F0FD0EDBCF3A
:1007200011F010C0DEFF11C0DDFFDECFE9FFDDCF2D
:10073000EAFF020EE926000EEA22E9CF10F0EACF26
:1007400011F010C0E6FF11C0E6FF2FEC32F0E552C9
:10075000E552000901E100D0DECFE9FFDDCFEAFF7D
:100760000C0EE926000EEA22080EE926000EEA2207
:10077000EE50ED1015E0DECFE9FFDDCFEAFF0C0E05
:10078000E926000EEA22E9CF10F0EACF11F010C0FE
:10079000E6FF11C0E6FF2FEC32F0E552E55200D043
:1007A000DECFE9FFDDCFEAFF020EE926000EEA22E6
:1007B000E9CF10F0EACF11F010C0E6FF11C0E6FF5C
:1007C0004C0EE66E0F0EE66ECDEC30F0E552E552C3
:1007D000E552E552E552E7BEF28EDECF10F0DDCFF6
:1007E00011F00D019151101802E19251111812E10E
:1007F0000D01985103E015EC2EF00BD00D01945132
:100800000F014C5D04E10D01916B926B02D0D7ECAE
:1008100008F00CD00D01985109E0F250E66EF29EFE
:10082000BDEC0FF0E552E7BEF28E00D0E552E55286
:10083000E552E5CFDAFFE7CFD9FF1200D9CFE6FFC7
:10084000DACFE6FFE1CFD9FFE2CFDAFFE652E65298
:10085000E652DF6AFC0EDBCF06F0FD0EDBCF07F0C1
:10086000DE5206C0DEFF07C0DDFFDD52010EDBCF2A
:10087000E9FF020EDBCFEAFF020EE926000EEA22B4
:10088000080EE926000EEA22EECF10F0EFCF11F0AD
:100890004C0E101802E10F0E11182EE1010EDBCFE5
:1008A000E9FF020EDBCFEAFF0C0EE926000EEA227A
:1008B000080EE926000EEA22EECF10F0EFCF11F07D
:1008C0003A0E101802E10F0E111815E0010EDBCFE1
:1008D000E9FF020EDBCFEAFF0C0EE926000EEA224A
:1008E000080EE926000EEA22EE50ED1003E1010E9B
:1008F000DF6E00D000D000D0DF5000D0E552E552CE
:10090000E552E552E5CFDAFFE7CFD9FF1200D9CFA4
:10091000E6FFDACFE6FFE1CFD9FFE2CFDAFFE6521A
:10092000E652FC0EDBCFDEFFDBCFDDFFD9CFE9FFE8
:10093000DACFEAFFEE50ED1001E18BD0DECF10F000
:10094000DDCF11F00D019151101802E192511118F3
:1009500001E17FD0F250E66EF29EDECFE6FFDDCF02
:10096000E6FF6CDFE552E55201086FE1DECFE9FFFB
:10097000DDCFEAFF020EE926000EEA22E9CF10F0F1
:10098000EACF11F010C0E6FF11C0E6FF2FEC32F005
:10099000E552E552DECFE9FFDDCFEAFF160EE9268C
:1009A000000EEA22EFCF10F00D019751D8801054BD
:1009B0000AE2DECFE9FFDDCFEAFF160EE926000EE0
:1009C000EA22EFCF97FDDECFE9FFDDCFEAFF020E8F
:1009D000E926000EEA22E9CF10F0EACF11F010C0AC
:1009E000E6FF11C0E6FFDECFE9FFDDCFEAFF160E1E
:1009F000E926000EEA22EF50090DF3CF12F0F4CFF2
:100A000013F0000E12260F0E132212C0E6FF13C0C1
:100A1000E6FFCDEC30F0E552E552E552E552DECF8F
:100A2000E9FFDDCFEAFF160EE926000EEA22EFCF3E
:100A300010F091CDE9FF92CDEAFF160EEB50105C5D
:100A400003E315EC2EF000D000D0E552E7BEF28EA5
:100A500000D0E552E552E552E5CFDAFFE7CFD9FF06
:100A60001200D9CFE6FFDACFE6FFE1CFD9FFE2CF20
:100A7000DAFFE652E652E652E652DF6AFC0EDBCFC0
:100A800006F0FD0EDBCF07F0DE5206C0DEFF07C02A
:100A9000DDFFDD52030EDB6A010EDBCFE6FF020E47
:100AA000DBCFE6FFCBDEE552E552010801E09CD04A
:100AB0000D019F5101E07BD0010EDBCFE9FF020E5B
:100AC000DBCFEAFF160EE926000EEA22EFCF10F088
:100AD00091CDE9FF92CDEAFF160EEB50105C03E3D7
:100AE000010EDF6E00D0010EDBCFE9FF020EDBCF7F
:100AF000EAFF020EE926000EEA22E9CF10F0EACF63
:100B000011F010C0E6FF11C0E6FF2FEC32F0E55205
:100B1000E552010EDBCFE9FF020EDBCFEAFF160E36
:100B2000E926000EEA22EFCF10F00D019751D88090
:100B300010540CE2010EDBCFE9FF020EDBCFEAFF1F
:100B4000160EE926000EEA22EFCF97FD010EDBCF4D
:100B5000E9FF020EDBCFEAFF020EE926000EEA22D1
:100B6000E9CF10F0EACF11F010C0E6FF11C0E6FFA8
:100B7000010EDBCFE9FF020EDBCFEAFF160EE926FE
:100B8000000EEA22EF50090DF3CF12F0F4CF13F06C
:100B9000000E12260F0E132212C0E6FF13C0E6FF4E
:100BA000CDEC30F0E552E552E552E5521CD0010E95
:100BB000DBCFE9FF020EDBCFEAFF0C0EE926000EC9
:100BC000EA22E9CF10F0EACF11F010C0E6FF11C021
:100BD000E6FF3A0EE66E0F0EE66ECDEC30F0E55213
:100BE000E552E552E55200D0DF5000D0106E040E01
:100BF000E15C02E2E16AE552E16E1050E552E5CFB8
:100C0000DAFFE7CFD9FF1200D9CFE6FFDACFE6FF50
:100C1000E1CFD9FFE2CFDAFFE652000EE66EE66AD8
:100C2000000EE66EE66A000EE66EE66AE66A000E02
:100C3000E66EE66A800EE66EE66AEC0EE66E6E0E14
:100C4000E66ECE0EE66E190EE66E26EC00F0106E25
:100C50000F0EE15C02E2E16AE552E16E1050DF6ED8
:100C6000DF040DE1F29E0D01010E986F0D01956BF1
:100C7000966BA3EC2DF0000901E000D000D0E55206
:100C8000E552E5CFDAFFE7CFD9FF1200F29E0D0162
:100C9000986B14EC2EF012000D019F2B1200D9CF8F
:100CA000E6FFDACFE6FFE1CFD9FFE2CFDAFFE65287
:100CB000E652E652020EDB6AF250E66EF29E0D013B
:100CC0009F070D019F5101E0B8D00D01945100081C
:100CD00001E3B2D00F013A5101E190D03FCFE9FFDB
:100CE00040CFEAFF060EE926000EEA22EECFDEFF35
:100CF000EDCFDDFFDECFE9FFDDCFEAFF0C0EE92609
:100D0000000EEA22E9CF10F0EACF11F010C0E6FFA2
:100D100011C0E6FF2FEC32F0E552E552DECFE9FFDD
:100D2000DDCFEAFF020EE926000EEA22E9CF10F03D
:100D3000EACF11F010C0E6FF11C0E6FF2FEC32F051
:100D4000E552E552DECFE9FFDDCFEAFF160EE926D8
:100D5000000EEA22EFCF10F00D019751D880105409
:100D60000AE2DECFE9FFDDCFEAFF160EE926000E2C
:100D7000EA22EFCF97FDDECFE9FFDDCFEAFF020EDB
:100D8000E926000EEA22E9CF10F0EACF11F010C0F8
:100D9000E6FF11C0E6FFDECFE9FFDDCFEAFF160E6A
:100DA000E926000EEA22EF50090DF3CF12F0F4CF3E
:100DB00013F0000E12260F0E132212C0E6FF13C00E
:100DC000E6FFCDEC30F0E552E552E552E552DECFDC
:100DD000E9FFDDCFEAFF160EE926000EEA22EFCF8B
:100DE00010F091CDE9FF92CDEAFF160EEB50105CAA
:100DF00004E30D01010E9A6F00D06CD70D019951DB
:100E000000080FE20D01995100080AE271D80009AB
:100E100004E00D01010E9A6F00D00D019907F2D781
:100E200000D00D019A0508E1010EF36E020EF3CF1A
:100E3000DBFF15EC2EF000D000D0E552E7BEF28EBD
:100E4000020EDB5000D0E552E552E552E552E5CF07
:100E5000DAFFE7CFD9FF1200D9CFE6FFDACFE6FFFE
:100E6000E1CFD9FFE2CFDAFFE652E652F250E66E6A
:100E7000F29E95CDDEFF96CDDDFFE552E7BEF28E08
:100E8000DECF10F0DDCF11F010C0F3FF11C0F4FF82
:100E900000D0E552E552E552E5CFDAFFE7CFD9FFC2
:100EA0001200D9CFE6FFDACFE6FFE1CFD9FFE2CFDC
:100EB000DAFFE652E652E652020EDB6A95CDDEFF1D
:100EC00096CDDDFFDECF10F0DDCF11F010C0F3FFC7
:100ED00011C0F4FF00D0E552E552E552E552E5CFEE
:100EE000DAFFE7CFD9FF12000D01945100D01200B4
:100EF000D9CFE6FFDACFE6FFE1CFD9FFE2CFDAFFC5
:100F0000090EE12402E3E168E652E16E040EDB6AB9
:100F10000D019F5101E02FD10D01952B000E96235D
:100F2000050E95CDDBFF060E96CDDBFFD950050FE4
:100F3000E96E000EDA20EA6EEE50ED1015E1070EB4
:100F400036CFDBFF080E37CFDBFF38CF36FF39CF88
:100F500037FF070EDBCF38FF080EDBCF39FF0D015F
:100F60009B2BBDEC0FF000D0050EDBCF10F0060E72
:100F7000DBCF11F00D019D51105C9E51115801E223
:100F8000E1D036CFE9FF37CFEAFFEF50000905E1A6
:100F90000D019D699E69D6D0D4D036CFE9FF37CFF9
:100FA000EAFF030EE926000EEA22020EE926000EF1
:100FB000EA22EE50EFCFEAFFE96E060EE926000EB8
:100FC000EA22EECFDEFFEDCFDDFFDECFE9FFDDCFA2
:100FD000EAFF020EE926000EEA22020EEECFDBFF48
:100FE000030EEDCFDBFF050EDBCF10F0060EDBCFDF
:100FF00011F0020EDBCF12F0030EDBCF13F0125014
:10100000105C1350115808E2020EDBCF9DFD030E59
:10101000DBCF9EFD97D000D0DECFE9FFDDCFEAFF2A
:10102000020EE926000EEA22E9CF10F0EACF11F015
:1010300010C0E6FF11C0E6FF2FEC32F0E552E5529A
:10104000DECFE9FFDDCFEAFF0C0EE926000EEA2233
:10105000080EE926000EEA22EE50ED1015E0DECF74
:10106000E9FFDDCFEAFF0C0EE926000EEA22E9CF08
:1010700010F0EACF11F010C0E6FF11C0E6FF2FEC30
:1010800032F0E552E55200D0DECFE9FFDDCFEAFFD6
:10109000160EE926000EEA22EFCF10F00D0197514F
:1010A000D88010540AE2DECFE9FFDDCFEAFF160E4A
:1010B000E926000EEA22EFCF97FDDECFE9FFDDCF74
:1010C000EAFF020EE926000EEA22E9CF10F0EACF8D
:1010D00011F010C0E6FF11C0E6FFDECFE9FFDDCF63
:1010E000EAFF160EE926000EEA22EF50090DF3CFB3
:1010F00012F0F4CF13F0000E12260F0E132212C0BE
:10110000E6FF13C0E6FFCDEC30F0E552E552E552C4
:10111000E552DECFE9FFDDCFEAFF160EE926000E2D
:10112000EA22EFCF10F091CDE9FF92CDEAFF160E43
:10113000EB50105C06E3010EF36E040EF3CFDBFF01
:1011400000D01FD791CDE9FF92CDEAFF160EEB50EC
:10115000090DF3CFE9FFF4CFEAFF000EE9260F0EE9
:10116000EA22EF50010806E2010EF36E040EF3CFFF
:10117000DBFF00D002D00D01992B0D019A5106E042
:10118000010EF36E040EF3CFDBFF00D0040EDB5034
:1011900000D0106E090EE15C02E2E16AE552E16EF8
:1011A0001050E552E5CFDAFFE7CFD9FF1200D9CFD3
:1011B000E6FFDACFE6FFE1CFD9FFE2CFDAFFE65272
:1011C000E6520D019F5104E00D01010E9A6F81D08E
:1011D0000D019A6B0D019751090DF3CFE9FFF4CF83
:1011E000EAFF000EE9260F0EEA22EF5003E10D019F
:1011F0009707F0D70D019751090DF3CF10F0F4CFF9
:1012000011F0000E10260F0E112210C0DEFF11C0CB
:10121000DDFFDECFE9FFDDCFEAFFEE52EE50EFCF8C
:10122000EAFFE96E020EE926000EEA22EECF10F088
:10123000EFCF11F0DECFE9FFDDCFEAFFEE5210C0B5
:10124000EEFF11C0EDFFDECFE9FFDDCFEAFFEE528A
:10125000EECF10F0EFCF11F0DECFE9FFDDCFEAFFE8
:10126000030EE926000EEA22E9CF12F0EACF13F0CE
:101270001250101802E1135011181AE1DECFE9FFE5
:10128000DDCFEAFFEE52EE50EFCFEAFFE96E020E3D
:10129000E926000EEA22EECF10F0EFCF11F0DECFFC
:1012A000E9FFDDCFEAFFEE5210C0EEFF11C0EDFF07
:1012B000DECFE9FFDDCFEAFFEE52EE50EFCFEAFFDF
:1012C000E96E060EE926000EEA22EECF91FDEDCF83
:1012D00092FDE552E552E552E5CFDAFFE7CFD9FFBF
:1012E0001200D9CFE6FFDACFE6FFE1CFD9FFE2CF98
:1012F000DAFFE652E65291CDE9FF92CDEAFF0C0EFD
:10130000E926000EEA22E9CF10F0EACF11F010C072
:10131000E6FF11C0E6FFFC0EDBCFE6FFFD0EDBCFE4
:10132000E6FF4DEC31F0E552E552E552E55291CD44
:10133000E9FF92CDEAFF020EE926000EEA22E9CF8C
:1013400010F0EACF11F010C0E6FF11C0E6FF2FEC5D
:1013500032F0E552E552000901E100D0D950FA0F10
:10136000E96EFF0EDA20EA6EFF0EEE1802E1FF0EC4
:10137000ED181BE191CDE9FF92CDEAFF020EE926BF
:10138000000EEA22E9CF10F0EACF11F010C0E6FF1C
:1013900011C0E6FF4C0EE66E0F0EE66ECDEC30F09F
:1013A000E552E552E552E55218D0FA0EDB500D0138
:1013B00095250001106EFB0EDB500D0196210001FA
:1013C000116E10C0DEFF11C0DDFFDECFE6FFDDCF06
:1013D000E6FFB0EC0EF0E552E552E552E552E5527B
:1013E000E5CFDAFFE7CFD9FF1200D9CFE6FFDACF9A
:1013F000E6FFE1CFD9FFE2CFDAFFE652E652FA0E7E
:10140000DBCF10F0FB0EDBCF11F01050800E11126D
:1014100091CDE9FF92CDEAFF0C0EE926000EEA22FB
:1014200010C0EEFF11C0EDFF91CDE9FF92CDEAFFB4
:101430000C0EE926000EEA22E9CF10F0EACF11F0F7
:1014400010C0E6FF11C0E6FFFC0EDBCFE6FFFD0E8D
:10145000DBCFE6FFCDEC30F0E552E552E552E55248
:1014600091CDE9FF92CDEAFF020EE926000EEA22B5
:10147000E9CF10F0EACF11F010C0E6FF11C0E6FF8F
:101480002FEC32F0E552E552000901E100D0D950CD
:10149000F80FE96EFF0EDA20EA6EFF0EEE1802E199
:1014A000FF0EED181BE191CDE9FF92CDEAFF020E90
:1014B000E926000EEA22E9CF10F0EACF11F010C0C1
:1014C000E6FF11C0E6FF4C0EE66E0F0EE66ECDECA9
:1014D00030F0E552E552E552E55218D0F80EDB50F7
:1014E0000D0195250001106EF90EDB500D019621BE
:1014F0000001116E10C0DEFF11C0DDFFDECFE6FF80
:10150000DDCFE6FFB0EC0EF0E552E552E552E552D4
:10151000E552E5CFDAFFE7CFD9FF1200D9CFE6FFDA
:10152000DACFE6FFE1CFD9FFE2CFDAFFE652E652AB
:10153000E652FC0EDBCFE9FFFD0EDBCFEAFF030E28
:10154000E926000EEA22020EE926000EEA22EE50FB
:10155000EFCFEAFFE96E060EE926000EEA22EECF93
:10156000DEFFEDCFDDFFDECFE9FFDDCFEAFF0C0EC2
:10157000E926000EEA22E9CF10F0EACF11F010C000
:10158000E6FF11C0E6FF2FEC32F0E552E5520D0107
:101590009F515AE1DECFE9FFDDCFEAFF020EE926D7
:1015A000000EEA22E9CF10F0EACF11F010C0E6FFFA
:1015B00011C0E6FF2FEC32F0E552E552DECFE9FF35
:1015C000DDCFEAFF160EE926000EEA22EFCF10F07B
:1015D0000D019751D88010540AE2DECFE9FFDDCF2C
:1015E000EAFF160EE926000EEA22EFCF97FDDECFC6
:1015F000E9FFDDCFEAFF020EE926000EEA22E9CF7D
:1016000010F0EACF11F010C0E6FF11C0E6FFDECF08
:10161000E9FFDDCFEAFF160EE926000EEA22EF50C1
:10162000090DF3CF12F0F4CF13F0000E12260F0EB7
:10163000132212C0E6FF13C0E6FFCDEC30F0E552F6
:10164000E552E552E5521AD0DECFE9FFDDCFEAFFE1
:101650000C0EE926000EEA22E9CF10F0EACF11F0D5
:1016600010C0E6FF11C0E6FF3A0EE66E0F0EE66E02
:10167000CDEC30F0E552E552E552E552DECFE9FF20
:10168000DDCFEAFF160EE926000EEA22EFCF10F0BA
:1016900091CDE9FF92CDEAFF160EEB50D8801054A1
:1016A00009E2010EF36E020EF3CFDBFF0D01010E16
:1016B0009A6F02D0020EDB6A020EDB5000D0E552B8
:1016C000E552E552E552E5CFDAFFE7CFD9FF120048
:1016D000D9CFE6FFDACFE6FFE1CFD9FFE2CFDAFFDD
:1016E000E652E652E652FA0EDBCF10F0FB0EDBCFED
:1016F00011F01050800E1112FC0EDBCFE9FFFD0E31
:10170000DBCFEAFF10C0EEFF11C0EDFFFC0EDBCF18
:10171000E9FFFD0EDBCFEAFF060EE926000EEA2206
:10172000EECFDEFFEDCFDDFFFC0EDBCFE6FFFD0EE3
:10173000DBCFE6FF2FEC32F0E552E552DECFE9FFDA
:10174000DDCFEAFF020EE926000EEA22E9CF10F013
:10175000EACF11F010C0E6FF11C0E6FF2FEC32F027
:10176000E552E552DECFE9FFDDCFEAFF160EE926AE
:10177000000EEA22EFCF10F00D019751D8801054DF
:101780000AE2DECFE9FFDDCFEAFF160EE926000E02
:10179000EA22EFCF97FDDECFE9FFDDCFEAFF020EB1
:1017A000E926000EEA22E9CF10F0EACF11F010C0CE
:1017B000E6FF11C0E6FFDECFE9FFDDCFEAFF160E40
:1017C000E926000EEA22EF50090DF3CF12F0F4CF14
:1017D00013F0000E12260F0E132212C0E6FF13C0E4
:1017E000E6FFCDEC30F0E552E552E552E552DECFB2
:1017F000E9FFDDCFEAFF160EE926000EEA22EFCF61
:1018000010F091CDE9FF92CDEAFF160EEB50D88093
:10181000105409E2010EF36E020EF3CFDBFF0D014F
:10182000010E9A6F02D0020EDB6A020EDB5000D06E
:10183000E552E552E552E552E5CFDAFFE7CFD9FFB1
:101840001200D9CFE6FFDACFE6FFE1CFD9FFE2CF32
:10185000DAFFFC0EDBCFE9FFFD0EDBCFEAFF9BCD0D
:10186000EFFFFC0EDBCFE9FFFD0EDBCFEAFFEE5210
:1018700095CDEEFF96CDEDFFE552E5CFDAFFE7CF50
:10188000D9FF1200D9CFE6FFDACFE6FFE1CFD9FFCB
:10189000E2CFDAFFE652E652E652F250E66EF29EF0
:1018A000010E95CDDBFF020E96CDDBFFFA0EDBCFEE
:1018B000E9FFFB0EDBCFEAFFFF0EEE1802E1FF0EA1
:1018C000ED1802E1DF6A71D0FC0EDBCFE9FFFD0EFF
:1018D000DBCFEAFFEF500D019B5D1BE0010EDBCF7C
:1018E00010F0020EDBCF11F0FC0EDBCFE9FFFD0E96
:1018F000DBCFEAFFEECF12F0EECF13F0EFCF14F014
:1019000000011350105C1450115803E3010EDF6EF8
:101910004CD0010EDBCF12F0020EDBCF13F0FC0E29
:10192000DBCFE9FFFD0EDBCFEAFFEE52EE50125C9B
:10193000106EEE501358116EFA0EDBCFE9FFFB0E5E
:10194000DBCFEAFFEECF14F0EFCF15F01450105CB0
:101950001550115828E2010EDBCF12F0020EDBCF3A
:1019600013F0FC0EDBCFE9FFFD0EDBCFEAFFEE52FA
:10197000EE50125C106EEE501358116EFA0EDBCF63
:10198000E9FFFB0EDBCFEAFF1050EE5E1150ED5A7F
:10199000FC0EDBCFE6FFFD0EDBCFE6FF52DFE552AC
:1019A000E552DF6A02D0010EDF6EE552E7BEF28E2D
:1019B000DF5000D0E552E552E552E552E5CFDAFFBF
:1019C000E7CFD9FF12000D01010E9A6F1200D9CF97
:1019D000E6FFDACFE6FFE1CFD9FFE2CFDAFF62D947
:1019E0000F010051010803E215EC2EF000D0F7D7EB
:1019F000E552E5CFDAFFE7CFD9FF1200D9CFE6FFF6
:101A0000DACFE6FFE1CFD9FFE2CFDAFFE652DF6AB5
:101A1000040EDF5C38E2DF50E76EFA0EDBCFE9FF41
:101A2000FB0EDBCFEAFFE750E926000EEA22EF507B
:101A3000E66EFC0EDBCFE9FFFD0EDBCFEAFF190EF1
:101A4000E926000EEA22E9CF10F0EACF11F0DF50CC
:101A50000F011024E96E000E1120EA6EE552E750E6
:101A6000EF6EDF50E76EFA0EDBCFE9FFFB0EDBCF48
:101A7000EAFFE750E926000EEA22EF5002E103D028
:101A800000D0DF2AC5D7FC0EDBCFE9FFFD0EDBCF90
:101A9000EAFF190EE926000EEA22030EE926000EDF
:101AA000EA22EF6A040EF36EF90EDBCFF4FFF35077
:101AB000F45C06E3030EF36EF90EF3CFDBFF00D008
:101AC000FC0EDBCFE9FFFD0EDBCFEAFF160EE926A9
:101AD000000EEA22F90EDBCFEFFFFC0EDBCFE9FFB1
:101AE000FD0EDBCFEAFF020EE926000EEA22E9CF67
:101AF00010F0EACF11F010C0E6FF11C0E6FFB5EC20
:101B000030F0E552E552FC0EDBCFE9FFFD0EDBCFF6
:101B1000EAFF0C0EE926000EEA22E9CF10F0EACF28
:101B200011F010C0E6FF11C0E6FFB5EC30F0E55251
:101B3000E552FC0EDBCFE9FFFD0EDBCFEAFF020E24
:101B4000E926000EEA22060EE926000EEA22FC0E25
:101B5000DBCFEEFFFD0EDBCFEDFFF90EDB50106E9D
:101B6000116A040ED8801056000E1156FC0EDBCF01
:101B7000E9FFFD0EDBCFEAFF0C0EE926000EEA229C
:101B800010C0EEFF11C0EDFFFC0EDBCFE9FFFD0E34
:101B9000DBCFEAFF0C0EE926000EEA22060EE9264C
:101BA000000EEA22FC0EDBCFEEFFFD0EDBCFEDFFD9
:101BB000FC0EDBCFE9FFFD0EDBCFEAFF1F0EE926AF
:101BC000000EEA22EE6AEE6AEE6AEE6AFC0EDBCFE7
:101BD000E9FFFD0EDBCFEAFF230EE926000EEA2225
:101BE000EF6AE552E552E5CFDAFFE7CFD9FF120001
:101BF000D9CFE6FFDACFE6FFE1CFD9FFE2CFDAFFB8
:101C0000E652DF6A040EDF5C14E2DF50090DF3CF09
:101C100010F0F4CF11F0000E10260F0E112210C09C
:101C2000E6FF11C0E6FF3BEC30F0E552E552DF2A5B
:101C3000E9D7240EE66E0F0EE66E3BEC30F0E5526F
:101C4000E5522D0EE66E0F0EE66E3BEC30F0E552DF
:101C5000E5523A0EE66E0F0EE66E3BEC30F0E552C2
:101C6000E552430EE66E0F0EE66E3BEC30F0E552A9
:101C7000E5524C0EE66E0F0EE66E3BEC30F0E55290
:101C8000E5520F01240E366F0F0E376F0F012D0E28
:101C9000386F0F0E396FE552E552E5CFDAFFE7CF27
:101CA000D9FF1200D9CFE6FFDACFE6FFE1CFD9FFA7
:101CB000E2CFDAFFE652E652E6520D0193510008F8
:101CC00046E24CEC06F00F01435102E0000E01D059
:101CD000010EDF6E4FEC06F0DF5038E1F250E66E99
:101CE000F29E48CFE9FF49CFEAFF060EE926000E33
:101CF000EA22010EEECFDBFF020EEDCFDBFF010E7D
:101D0000DBCFE9FF020EDBCFEAFF020EE926000E71
:101D1000EA22E9CF10F0EACF11F010C0E6FF11C0BF
:101D2000E6FF2FEC32F0E552E5520D0194070D016C
:101D30009307E552E7BEF28E010EDBCFE6FF020EFF
:101D4000DBCFE6FFF0D8E552E55200D0B6D7E5523A
:101D5000E552E552E552E5CFDAFFE7CFD9FF1200B1
:101D6000D9CFE6FFDACFE6FFE1CFD9FFE2CFDAFF46
:101D700091CDE9FF92CDEAFF020EE926000EEA229C
:101D8000FC0EDBCFEEFFFD0EDBCFEDFFFC0EDBCF5D
:101D900010F0FD0EDBCF11F00D019551105C965146
:101DA00011581BE291CDE9FF92CDEAFF020EE92620
:101DB000000EEA22E9CF10F0EACF11F010C0E6FFE2
:101DC00011C0E6FF38CFE6FF39CFE6FF4DEC31F02A
:101DD000E552E552E552E5522DD091CDE9FF92CD85
:101DE000EAFF020EE926000EEA22E9CF10F0EACF60
:101DF00011F010C0E6FF11C0E6FF36CFE6FF37CF87
:101E0000E6FF4DEC31F0E552E552E552E552FC0EAD
:101E1000DBCF10F0FD0EDBCF11F00D019D51105CFA
:101E20009E51115807E2FC0EDBCF9DFDFD0EDBCF6E
:101E30009EFD00D0E552E5CFDAFFE7CFD9FF1200D3
:101E4000D9CFE6FFDACFE6FFE1CFD9FFE2CFDAFF65
:101E5000E652E652240EE66EE66A1CEC36F0E552D7
:101E6000E552F3CFDEFFF4CFDDFFD9CFE9FFDACFC4
:101E7000EAFFEE50ED103FE0D950FA0FE96EFF0E89
:101E8000DA20EA6EEE50ED100FE1FC0EDBCFE6FF3C
:101E9000FD0EDBCFE6FF1CEC36F0E552E552F3CF4A
:101EA00010F0F4CF11F006D0FA0EDBCF10F0FB0EDD
:101EB000DBCF11F0DECFE9FFDDCFEAFF170EE92619
:101EC000000EEA2210C0EEFF11C0EDFFDECFE9FFE9
:101ED000DDCFEAFF170EE926000EEA22EE50ED10E4
:101EE0000AE1DECFE6FFDDCFE6FF78EC36F0E55223
:101EF000E552DE6ADD6AD9CFE9FFDACFEAFFEE50BC
:101F0000ED1000E0DECF10F0DDCF11F010C0F3FFD8
:101F100011C0F4FF00D0E552E552E552E5CFDAFFFB
:101F2000E7CFD9FF1200D9CFE6FFDACFE6FFE1CF46
:101F3000D9FFE2CFDAFFFC0EDBCFE9FFFD0EDBCFEE
:101F4000EAFF170EE926000EEA22EECFE6FFEFCFFA
:101F5000E6FF78EC36F0E552E552FC0EDBCFE6FF0B
:101F6000FD0EDBCFE6FF78EC36F0E552E552E552A8
:101F7000E5CFDAFFE7CFD9FF1200D9CFE6FFDACFFE
:101F8000E6FFE1CFD9FFE2CFDAFFE652E65236CFE5
:101F9000E9FF37CFEAFFEF50000904E10D019D6929
:101FA0009E6924D036CFE9FF37CFEAFF030EE9263A
:101FB000000EEA22020EE926000EEA22EE50EFCFD2
:101FC000EAFFE96E060EE926000EEA22EECFDEFFFA
:101FD000EDCFDDFFDECFE9FFDDCFEAFF020EE92620
:101FE000000EEA22EECF9DFDEDCF9EFDE552E552BB
:101FF000E552E5CFDAFFE7CFD9FF1200D9CFE6FFF0
:10200000DACFE6FFE1CFD9FFE2CFDAFFE652E652C0
:1020100091CDE9FF92CDEAFF0C0EE926000EEA22EF
:10202000EECFDEFFEDCFDDFF91CDE9FF92CDEAFFF0
:10203000160EEB50106E116A040ED8801056000E6A
:10204000115691CDE9FF92CDEAFF0C0EE926000E64
:10205000EA2210C0EEFF11C0EDFFDECF10F0DDCFA1
:1020600011F010C0F3FF11C0F4FF00D0E552E552AB
:10207000E552E5CFDAFFE7CFD9FF1200D9CFE6FF6F
:10208000DACFE6FFE1CFD9FFE2CFDAFF060EE12497
:1020900002E3E168E652E16EF250E66EF29E91CD07
:1020A000E9FF92CDEAFF1F0EE926000EEA22EECFED
:1020B00010F0EECF11F0EECF12F0EFCF13F0105082
:1020C0001110121013106FE191CDE9FF92CDEAFFCC
:1020D000230EE926000EEA22010EEF6ED950FB0F07
:1020E000E96EFF0EDA20EA6E000ED880EE54000E84
:1020F000ED5458E291CDE9FF92CDEAFF020EE926B8
:10210000000EEA22E9CF10F0EACF11F010C0E6FF8E
:1021100011C0E6FF2FEC32F0E552E552000901E173
:1021200000D0D950FB0FE96EFF0EDA20EA6EFF0EE9
:10213000EE1802E1FF0EED181BE191CDE9FF92CD03
:10214000EAFF020EE926000EEA22E9CF10F0EACFFC
:1021500011F010C0E6FF11C0E6FF4C0EE66E0F0E48
:10216000E66ECDEC30F0E552E552E552E55217D07F
:10217000FB0EDB500D0195250001106EFC0EDB50AF
:102180000D0196210001116E10C0DEFF11C0DDFFB0
:10219000DECFE6FFDDCFE6FFE3DDE552E55215ECED
:1021A0002EF000D000D0E552E7BEF28EF250E66E7F
:1021B000F29E91CDE9FF92CDEAFF1F0EE926000EB7
:1021C000EA22020EEECFDBFF030EEECFDBFF040EA2
:1021D000EECFDBFF050EEECFDBFF020EDBCF10F004
:1021E000030EDBCF11F0040EDBCF12F0050EDBCFB8
:1021F00013F010501110121013101EE0FD0EDB50E2
:102200000DE091CDE9FF92CDEAFF1F0EE926000E09
:10221000EA22EE6AEE6AEE6AEE6A0DD091CDE9FF2F
:1022200092CDEAFF1F0EE926000EEA22EE06000E0E
:10223000EE5AEE5AEE5A00D091CDE9FF92CDEAFF68
:10224000230EE926000EEA22EF6AE552E7BEF28E7F
:10225000020EDBCF10F0030EDBCF11F0040EDBCF4C
:1022600012F0050EDBCF13F010C004F011C005F022
:1022700012C006F013C007F000D0060EE15C02E2C7
:10228000E16AE552E16EE552E5CFDAFFE7CFD9FF2B
:102290001200D9CFE6FFDACFE6FFE1CFD9FFE2CFD8
:1022A000DAFFE652E652E652F250E66EF29E91CD29
:1022B000E9FF92CDEAFF230EEB50020801E18FD037
:1022C000FA0EDBCF10F0FB0EDBCF11F0FC0EDBCFF4
:1022D00012F0FD0EDBCF13F0101E111E121E131E86
:1022E00091CDE9FF92CDEAFF1F0EE926000EEA220A
:1022F0001050EE161150EE161250EE161350EE1648
:1023000091CDE9FF92CDEAFF230EE926000EEA22E5
:10231000010EEF6ED950F20FE96EFF0EDA20EA6E71
:10232000000ED880EE54000EED5458E291CDE9FF36
:1023300092CDEAFF020EE926000EEA22E9CF10F064
:10234000EACF11F010C0E6FF11C0E6FF2FEC32F02B
:10235000E552E552000901E100D0D950F20FE96ED3
:10236000FF0EDA20EA6EFF0EEE1802E1FF0EED1806
:102370001BE191CDE9FF92CDEAFF020EE926000EA6
:10238000EA22E9CF10F0EACF11F010C0E6FF11C049
:10239000E6FF4C0EE66E0F0EE66ECDEC30F0E55229
:1023A000E552E552E55217D0F20EDB500D019525AE
:1023B0000001106EF30EDB500D0196210001116E2D
:1023C00010C0DEFF11C0DDFFDECFE6FFDDCFE6FF90
:1023D000C7DCE552E55215EC2EF000D000D0E552F6
:1023E000E7BEF28EF250E66EF29ED950F40FE96E1F
:1023F000FF0EDA20EA6EEE50ED101EE091CDE9FFFF
:1024000092CDEAFF1F0EE926000EEA22EECF10F071
:10241000EECF11F0EECF12F0EFCF13F0F40EDBCFD2
:10242000E9FFF50EDBCFEAFF10C0EEFF11C0EEFFB3
:1024300012C0EEFF13C0EEFF91CDE9FF92CDEAFF8F
:10244000230EEB50010803E1020EDB6A25D0F60EE5
:10245000DBCF10F0F70EDBCF11F0F80EDBCF12F070
:10246000F90EDBCF13F0101E111E121E131E91CD9C
:10247000E9FF92CDEAFF1F0EE926000EEA22105076
:10248000EE161150EE161250EE161350EE16010E07
:10249000F36E020EF3CFDBFF91CDE9FF92CDEAFFA1
:1024A000230EE926000EEA22EF6AE552E7BEF28E1D
:1024B000020EDB5000D0E552E552E552E552E5CF81
:1024C000DAFFE7CFD9FF1200D9CFE6FFDACFE6FF78
:1024D000E1CFD9FFE2CFDAFFE652E652E652E6520A
:1024E000010EF36E030EF3CFDBFFFC0EDBCFDEFF3E
:1024F000DBCFDDFFF250E66EF29EDECFE9FFDDCFEF
:10250000EAFF230EE926000EEA22020EEFCFDBFFE0
:10251000DECFE9FFDDCFEAFF230EE926000EEA2237
:10252000020EEF6EF70EDB505DE0040A3FE0070A93
:1025300028E0010A18E0030A01E055D0DECFE9FFE8
:10254000DDCFEAFF1F0EE926000EEA22F80EDB506F
:10255000EE12F90EDB50EE12FA0EDB50EE12FB0E0D
:10256000DB50EE1240D0DECFE9FFDDCFEAFF1F0ED9
:10257000E926000EEA22EE2A000EEE22EE22EE22DC
:1025800032D0DECFE9FFDDCFEAFF1F0EE926000ED5
:10259000EA22F80EDBCFEEFFF90EDBCFEEFFFA0EEC
:1025A000DBCFEEFFFB0EDBCFEEFF1DD0020EDB50CC
:1025B000020815E0DECFE9FFDDCFEAFF1F0EE926B6
:1025C000000EEA22F80EDBCFEEFFF90EDBCFEEFFB6
:1025D000FA0EDBCFEEFFFB0EDBCFEEFF02D0030ED9
:1025E000DB6A01D000D0020EDB0470E1DECFE9FF30
:1025F000DDCFEAFF020EE926000EEA22E9CF10F055
:10260000EACF11F010C0E6FF11C0E6FF2FEC32F068
:10261000E552E552DECFE9FFDDCFEAFF160EE926EF
:10262000000EEA22EFCF10F00D019751D880105420
:102630000AE2DECFE9FFDDCFEAFF160EE926000E43
:10264000EA22EFCF97FDDECFE9FFDDCFEAFF020EF2
:10265000E926000EEA22E9CF10F0EACF11F010C00F
:10266000E6FF11C0E6FFDECFE9FFDDCFEAFF160E81
:10267000E926000EEA22EF50090DF3CF12F0F4CF55
:1026800013F0000E12260F0E132212C0E6FF13C025
:10269000E6FFCDEC30F0E552E552E552E552DECFF3
:1026A000E9FFDDCFEAFF160EE926000EEA22EFCFA2
:1026B00010F091CDE9FF92CDEAFF160EEB50D880D5
:1026C000105403E215EC2EF000D000D0E552E7BE26
:1026D000F28E030EDB5000D0106E040EE15C02E2BD
:1026E000E16AE552E16E1050E552E5CFDAFFE7CF3F
:1026F000D9FF1200D9CFE6FFDACFE6FFE1CFD9FF4D
:10270000E2CFDAFFE652E652E652E652E652010E18
:10271000F36E030EF3CFDBFFFC0EDBCFDEFFDBCF70
:10272000DDFF040EDB6ADECFE9FFDDCFEAFF230E1B
:10273000E926000EEA22020EEFCFDBFFDECFE9FF33
:10274000DDCFEAFF230EE926000EEA22020EEF6E2D
:10275000F70EDB505DE0040A3FE0070A28E0010ABB
:1027600018E0030A01E055D0DECFE9FFDDCFEAFF34
:102770001F0EE926000EEA22F80EDB50EE12F90ECB
:10278000DB50EE12FA0EDB50EE12FB0EDB50EE12B7
:1027900040D0DECFE9FFDDCFEAFF1F0EE926000EB5
:1027A000EA22EE2A000EEE22EE22EE2232D0DECF18
:1027B000E9FFDDCFEAFF1F0EE926000EEA22F80E40
:1027C000DBCFEEFFF90EDBCFEEFFFA0EDBCFEEFF35
:1027D000FB0EDBCFEEFF1DD0020EDB50020815E032
:1027E000DECFE9FFDDCFEAFF1F0EE926000EEA2269
:1027F000F80EDBCFEEFFF90EDBCFEEFFFA0EDBCFEC
:10280000EEFFFB0EDBCFEEFF02D0030EDB6A01D042
:1028100000D0020EDB0401E09CD00D019F515AE173
:10282000DECFE9FFDDCFEAFF020EE926000EEA2245
:10283000E9CF10F0EACF11F010C0E6FF11C0E6FFBB
:102840002FEC32F0E552E552DECFE9FFDDCFEAFFB3
:10285000160EE926000EEA22EFCF10F00D01975177
:10286000D88010540AE2DECFE9FFDDCFEAFF160E72
:10287000E926000EEA22EFCF97FDDECFE9FFDDCF9C
:10288000EAFF020EE926000EEA22E9CF10F0EACFB5
:1028900011F010C0E6FF11C0E6FFDECFE9FFDDCF8B
:1028A000EAFF160EE926000EEA22EF50090DF3CFDB
:1028B00012F0F4CF13F0000E12260F0E132212C0E6
:1028C000E6FF13C0E6FFCDEC30F0E552E552E552ED
:1028D000E5521AD0DECFE9FFDDCFEAFF0C0EE92684
:1028E000000EEA22E9CF10F0EACF11F010C0E6FFA7
:1028F00011C0E6FF3A0EE66E0F0EE66ECDEC30F03C
:10290000E552E552E552E552DECFE9FFDDCFEAFFC1
:10291000160EE926000EEA22EFCF10F091CDE9FF66
:1029200092CDEAFF160EEB50D880105412E2D95027
:10293000F50FE96EFF0EDA20EA6EEE50ED1008E0BA
:10294000F50EDBCFE9FFF60EDBCFEAFF010EEF6EEF
:1029500000D0030EDB5000D0106E050EE15C02E2E9
:10296000E16AE552E16E1050E552E5CFDAFFE7CFBC
:10297000D9FF1200D9CFE6FFDACFE6FFE1CFD9FFCA
:10298000E2CFDAFFE652E652E652E652FC0EDBCF29
:10299000DEFFDBCFDDFF030EDB6ADECFE9FFDDCF3D
:1029A000EAFF230EE926000EEA22020EEFCFDBFF3C
:1029B000DECFE9FFDDCFEAFF230EE926000EEA2293
:1029C000020EEF6EDECFE9FFDDCFEAFF1F0EE92634
:1029D000000EEA22EE2A000EEE22EE22EE22020E77
:1029E000DB0401E09CD00D019F515AE1DECFE9FFED
:1029F000DDCFEAFF020EE926000EEA22E9CF10F051
:102A0000EACF11F010C0E6FF11C0E6FF2FEC32F064
:102A1000E552E552DECFE9FFDDCFEAFF160EE926EB
:102A2000000EEA22EFCF10F00D019751D88010541C
:102A30000AE2DECFE9FFDDCFEAFF160EE926000E3F
:102A4000EA22EFCF97FDDECFE9FFDDCFEAFF020EEE
:102A5000E926000EEA22E9CF10F0EACF11F010C00B
:102A6000E6FF11C0E6FFDECFE9FFDDCFEAFF160E7D
:102A7000E926000EEA22EF50090DF3CF12F0F4CF51
:102A800013F0000E12260F0E132212C0E6FF13C021
:102A9000E6FFCDEC30F0E552E552E552E5521AD0B2
:102AA000DECFE9FFDDCFEAFF0C0EE926000EEA22B9
:102AB000E9CF10F0EACF11F010C0E6FF11C0E6FF39
:102AC0003A0EE66E0F0EE66ECDEC30F0E552E552B2
:102AD000E552E552DECFE9FFDDCFEAFF160EE9262B
:102AE000000EEA22EFCF10F091CDE9FF92CDEAFF80
:102AF000160EEB50D880105412E2D950FA0FE96E3E
:102B0000FF0EDA20EA6EEE50ED1008E0FA0EDBCF91
:102B1000E9FFFB0EDBCFEAFF010EEF6E00D0040EE3
:102B2000E15C02E2E16AE552E16EE552E5CFDAFFEF
:062B3000E7CFD9FF1200FF
:0A2B3600D9CFE6FFDACFE6FFE1CFCA
:102B4000D9FFE2CFDAFFE652E652FC0EDBCFDEFF22
:102B5000DBCFDDFFF250E66EF29EDECFE9FFDDCF88
:102B6000EAFF1C0EE926000EEA22EFCF14F0DECFBA
:102B7000E9FFDDCFEAFF1B0EE926000EEA22EF5047
:102B80001402F350126E136ADECFE9FFDDCFEAFFC5
:102B90001250EE24106E1350EE20116EDECFE9FFBE
:102BA000DDCFEAFF020EE926000EEA2210C0EEFF9A
:102BB00011C0EDFFDECFE9FFDDCFEAFF1A0EE926F7
:102BC000000EEA22EF6ADECFE9FFDDCFEAFFEECFAB
:102BD00010F0EFCF11F0DECFE9FFDDCFEAFF040EFA
:102BE000E926000EEA2210C0EEFF11C0EDFFDECF95
:102BF000E9FFDDCFEAFF1C0EE926000EEA22EFCF47
:102C000014F0DECFE9FFDDCFEAFF1B0EE926000E50
:102C1000EA22EF041402F350126E136ADECFE9FFCA
:102C2000DDCFEAFF1250EE24106E1350EE20116E2D
:102C3000DECFE9FFDDCFEAFF060EE926000EEA222D
:102C400010C0EEFF11C0EDFFDECFE9FFDDCFEAFFE0
:102C50001D0EE926000EEA22EF68DECFE9FFDDCF88
:102C6000EAFF1E0EE926000EEA22EF68FB0EDB509B
:102C700025E1DECFE9FFDDCFEAFF080EE926000EF1
:102C8000EA22EF501AE0DECFE9FFDDCFEAFF080EBF
:102C9000E926000EEA22E9CF10F0EACF11F010C0C9
:102CA000E6FF11C0E6FF8EEC0AF0E552E55201089E
:102CB00003E115EC2EF000D000D028D0DECFE9FFE4
:102CC000DDCFEAFF080EE926000EEA22E9CF10F078
:102CD000EACF11F010C0E6FF11C0E6FF3BEC30F088
:102CE000E552E552DECFE9FFDDCFEAFF110EE9261E
:102CF000000EEA22E9CF10F0EACF11F010C0E6FF93
:102D000011C0E6FF3BEC30F0E552E552E552E7BE7C
:102D1000F28E010E00D0E552E552E552E5CFDAFF22
:102D2000E7CFD9FF1200D9CFE6FFDACFE6FFE1CF38
:102D3000D9FFE2CFDAFF080EE12402E3E168E652B0
:102D4000E16E040EDB6A050EDB6AFC0EDB5005E16A
:102D5000020EDB6A030EDB6A14D0FC0EDBCFE6FF4B
:102D6000FD0EDB50E552E702F350106E116A010EC2
:102D70001026000E1122020E10C0DBFF030E11C040
:102D8000DBFF020EDBCF10F0030EDBCF11F01F0EC6
:102D90001026000E112210C0E6FF11C0E6FF1CEC49
:102DA00036F0E552E552060EF3CFDBFF070EF4CF07
:102DB000DBFFD950060FE96E000EDA20EA6EEE5006
:102DC000ED1050E0060EDBCFDEFFDBCFDDFFFC0EAB
:102DD000DB5009E1DECFE9FFDDCFEAFFDECFEEFF1A
:102DE000DDCFEDFF14D01F0EE76E060EDBCF10F027
:102DF000070EDBCF11F0E7501026000E1122DECFB8
:102E0000E9FFDDCFEAFF10C0EEFF11C0EDFFDECF1E
:102E1000E9FFDDCFEAFF1B0EE926000EEA22FD0ED8
:102E2000DBCFEFFFDECFE9FFDDCFEAFF1C0EE926A7
:102E3000000EEA22FC0EDBCFEFFF010EE66EDECFC6
:102E4000E6FFDDCFE6FF77DEE552E552E552D9CF6A
:102E5000E9FFDACFEAFF040EEECFDBFF050EEDCF80
:102E6000DBFF00D0040EDBCF10F0050EDBCF11F03E
:102E700010C0F3FF11C0F4FF00D0080EE15C02E2C5
:102E8000E16AE552E16EE552E5CFDAFFE7CFD9FF1F
:102E90001200D9CFE6FFDACFE6FFE1CFD9FFE2CFCC
:102EA000DAFFE652E652020EE66EE66AFD0EDBCF70
:102EB000E6FF39DFE552E552E552F3CFDEFFF4CF0E
:102EC000DDFFD9CFE9FFDACFEAFFEE50ED100CE0DD
:102ED000DECFE9FFDDCFEAFF1A0EE926000EEA2277
:102EE000FC0EDBCFEFFF00D0DECF10F0DDCF11F016
:102EF00010C0F3FF11C0F4FF00D0E552E552E552D7
:102F0000E5CFDAFFE7CFD9FF1200D9CFE6FFDACF5E
:102F1000E6FFE1CFD9FFE2CFDAFF070EE12402E3BB
:102F2000E168E652E16EDF6AFC0EDBCF06F0FD0ED3
:102F3000DBCF07F0050E06C0DBFF060E07C0DBFF88
:102F4000F250E66EF29E050EDBCFE9FF060EDBCFF8
:102F5000EAFF1A0EE926000EEA22EFCF10F0050E66
:102F6000DBCFE9FF060EDBCFEAFF1B0EE926000EE2
:102F7000EA22EF50105C04E3F70EDB50020851E147
:102F8000F70EDBCFE6FFFA0EDBCFE6FFFB0EDBCF63
:102F9000E6FF050EDBCFE6FF060EDBCFE6FF86EC95
:102FA0001DF0106E050EE15C02E2E16AE552E16E91
:102FB0001050E76E010EE7CFDBFF050EDBCFE9FF18
:102FC000060EDBCFEAFF110EE926000EEA22EF50D3
:102FD0001CE0050EDBCFE9FF060EDBCFEAFF110E8A
:102FE000E926000EEA22E9CF10F0EACF11F010C076
:102FF000E6FF11C0E6FF8EEC0AF0E552E55201084B
:1030000003E115EC2EF000D006D0010EDB5003E0FA
:1030100015EC2EF000D0E552E7BEF28E010EC5D0C1
:103020001ED0D950F80FE96EFF0EDA20EA6EEE508E
:10303000ED1006E1E552E7BEF28E000EB6D00FD0DD
:10304000DF500DE1D950020FE66E000EDA20E66E79
:1030500021EC0CF0E552E552010EDF6E00D0E55296
:10306000E7BEF28E4CEC06F0F250E66EF29E050ED4
:10307000DBCFE9FF060EDBCFEAFF1D0EE926000ECF
:10308000EA22EF50FF080BE1050EDBCFE9FF060E49
:10309000DBCFEAFF1D0EE926000EEA22EF6A050EDD
:1030A000DBCFE9FF060EDBCFEAFF1E0EE926000E9E
:1030B000EA22EF50FF080BE1050EDBCFE9FF060E19
:1030C000DBCFEAFF1E0EE926000EEA22EF6AE55288
:1030D000E7BEF28ED950F80FE66EFF0EDA20E66EEC
:1030E000D950020FE66E000EDA20E66E42EC0CF0CC
:1030F000E552E552E552E552000948E1050EDBCF05
:10310000E6FF060EDBCFE6FF92EC20F0E552E5523B
:1031100000092FE0F80EDBCFE6FFF90EDBCFE6FF6C
:10312000050EDBCFE9FF060EDBCFEAFF080EE9262E
:10313000000EEA22E9CF10F0EACF11F010C0E6FF4E
:1031400011C0E6FF71EC09F0E552E552E552E55297
:10315000050EDBCFE6FF060EDBCFE6FF80EC1FF0AF
:10316000E552E5524FEC06F0000902E115EC2EF0B5
:103170000CD0050EDBCFE6FF060EDBCFE6FF80ECC2
:103180001FF0E552E5524FEC06F00ED0050EDBCFF6
:10319000E6FF060EDBCFE6FF80EC1FF0E552E552BE
:1031A0004FEC06F0000E01D0CBD6106E070EE15C9E
:1031B00002E2E16AE552E16E1050E552E5CFDAFF36
:1031C000E7CFD9FF1200D9CFE6FFDACFE6FFE1CF94
:1031D000D9FFE2CFDAFFE652E652E652E652FC0EA3
:1031E000DBCF06F0FD0EDBCF07F0020E06C0DBFFE3
:1031F000030E07C0DBFF010EDB6A020EDBCFE9FF27
:10320000030EDBCFEAFF1A0EE926000EEA22EFCF0B
:1032100010F0020EDBCFE9FF030EDBCFEAFF1B0E3F
:10322000E926000EEA22EF50105C04E3F70EDB50B3
:1032300002086DE1F70EDBCFE6FFFA0EDBCFE6FF0B
:10324000FB0EDBCFE6FF020EDBCFE6FF030EDBCF8C
:10325000E6FF86EC1DF0106E050EE15C02E2E16A0D
:10326000E552E16E1050020EDBCFE9FF030EDBCF1B
:10327000EAFF1E0EE926000EEA22EF50FF0839E1B0
:10328000020EDBCFE9FF030EDBCFEAFF110EE926CA
:10329000000EEA22EF502CE0020EDBCFE9FF030E16
:1032A000DBCFEAFF110EE926000EEA22E9CF10F08B
:1032B000EACF11F010C0E6FF11C0E6FF8EEC0AF075
:1032C000E552E552000913E0D950F80FE96EFF0E00
:1032D000DA20EA6EEE50ED1009E0F80EDBCFE9FFE0
:1032E000F90EDBCFEAFF010EEF6E00D000D000D068
:1032F0000BD0020EDBCFE9FF030EDBCFEAFF1E0E81
:10330000E926000EEA22EF2A010EDF6E01D0DF6A05
:10331000DF5000D0106E040EE15C02E2E16AE5527B
:10332000E16E1050E552E5CFDAFFE7CFD9FF12008A
:10333000D9CFE6FFDACFE6FFE1CFD9FFE2CFDAFF60
:10334000E652E652E652E652FC0EDBCF06F0FD0EE8
:10335000DBCF07F0020E06C0DBFF030E07C0DBFF6A
:10336000010EDB6A020EDBCFE9FF030EDBCFEAFFC3
:103370001A0EE926000EEA22EFCF10F0020EDBCF84
:10338000E9FF030EDBCFEAFF1B0EE926000EEA225F
:10339000EF50105C5FE2020EDBCFE9FF030EDBCFE4
:1033A000EAFF1A0EE926000EEA22EF2A020EDBCF10
:1033B000E9FF030EDBCFEAFF1E0EE926000EEA222C
:1033C000EF50FF0839E1020EDBCFE9FF030EDBCF40
:1033D000EAFF110EE926000EEA22EF502CE0020E61
:1033E000DBCFE9FF030EDBCFEAFF110EE926000E6B
:1033F000EA22E9CF10F0EACF11F010C0E6FF11C0C9
:10340000E6FF8EEC0AF0E552E552000913E0D950D0
:10341000FA0FE96EFF0EDA20EA6EEE50ED1009E0C9
:10342000FA0EDBCFE9FFFB0EDBCFEAFF010EEF6EFA
:1034300000D000D000D00BD0020EDBCFE9FF030E8E
:10344000DBCFEAFF1E0EE926000EEA22EF2A010E6C
:10345000DF6E01D0DF6ADF5000D0106E040EE15C39
:1034600002E2E16AE552E16E1050E552E5CFDAFF83
:10347000E7CFD9FF1200D9CFE6FFDACFE6FFE1CFE1
:10348000D9FFE2CFDAFF080EE12402E3E168E65259
:10349000E16EDF6AFC0EDBCF06F0FD0EDBCF07F03E
:1034A000060E06C0DBFF070E07C0DBFFF250E66E1C
:1034B000F29E060EDBCFE9FF070EDBCFEAFF1A0E06
:1034C000E926000EEA22EF50000801E397D0060E2D
:1034D000DBCFE9FF070EDBCFEAFF060EE926000E81
:1034E000EA22040EEECFDBFF050EEDCFDBFFFA0E76
:1034F000DBCFE6FFFB0EDBCFE6FF060EDBCFE6FF02
:10350000070EDBCFE6FFE4EC1EF0E552E552E55294
:10351000E552F70EDB5034E1060EDBCFE9FF070E74
:10352000DBCFEAFF1A0EE926000EEA22EF06060EAE
:10353000DBCFE9FF070EDBCFEAFF080EE926000E1E
:10354000EA22EF501CE0060EDBCFE9FF070EDBCFCF
:10355000EAFF080EE926000EEA22E9CF10F0EACFD2
:1035600011F010C0E6FF11C0E6FF8EEC0AF0E55244
:10357000E552010803E115EC2EF000D000D038D060
:10358000060EDBCFE9FF070EDBCFEAFF060EE926CA
:10359000000EEA22040EDBCFEEFF050EDBCFEDFFBF
:1035A000060EDBCFE9FF070EDBCFEAFF110EE9269F
:1035B000000EEA22EF501CE0060EDBCFE9FF070EFB
:1035C000DBCFEAFF110EE926000EEA22E9CF10F068
:1035D000EACF11F010C0E6FF11C0E6FF8EEC0AF052
:1035E000E552E552000903E015EC2EF000D000D0C2
:1035F000E552E7BEF28E010EC3D01ED0D950F80FAF
:10360000E96EFF0EDA20EA6EEE50ED1006E1E552AB
:10361000E7BEF28E000EB4D00FD0DF500DE1D950CE
:10362000010FE66E000EDA20E66E21EC0CF0E5529A
:10363000E552010EDF6E00D0E552E7BEF28E4CEC93
:1036400006F0F250E66EF29E060EDBCFE9FF070EA3
:10365000DBCFEAFF1D0EE926000EEA22EF50FF083D
:103660000BE1060EDBCFE9FF070EDBCFEAFF1D0EF5
:10367000E926000EEA22EF6A060EDBCFE9FF070E0D
:10368000DBCFEAFF1E0EE926000EEA22EF50FF080C
:103690000BE1060EDBCFE9FF070EDBCFEAFF1E0EC4
:1036A000E926000EEA22EF6AE552E7BEF28ED95013
:1036B000F80FE66EFF0EDA20E66ED950010FE66EC7
:1036C000000EDA20E66E42EC0CF0E552E552E552CF
:1036D000E552000947E1060EDBCFE6FF070EDBCF20
:1036E000E6FF48EC20F0E552E55200092FE0F80E25
:1036F000DBCFE6FFF90EDBCFE6FF060EDBCFE9FFFF
:10370000070EDBCFEAFF110EE926000EEA22E9CF11
:1037100010F0EACF11F010C0E6FF11C0E6FF71EC27
:1037200009F0E552E552E552E552060EDBCFE6FF21
:10373000070EDBCFE6FFE4DBE552E5524FEC06F087
:10374000000903E115EC2EF000D00BD0060EDBCF04
:10375000E6FF070EDBCFE6FFD3DBE552E5524FEC89
:1037600006F00DD0060EDBCFE6FF070EDBCFE6FF3F
:10377000C7DBE552E5524FEC06F0000E01D096D6BD
:10378000106E080EE15C02E2E16AE552E16E105053
:10379000E552E5CFDAFFE7CFD9FF1200D9CFE6FF38
:1037A000DACFE6FFE1CFD9FFE2CFDAFFE652E65209
:1037B000E652E652FC0EDBCF06F0FD0EDBCF07F043
:1037C000020E06C0DBFF030E07C0DBFF010EDB6A43
:1037D000020EDBCFE9FF030EDBCFEAFF1A0EE9266C
:1037E000000EEA22EF50000870E2FA0EDBCFE6FF8F
:1037F000FB0EDBCFE6FF020EDBCFE6FF030EDBCFD7
:10380000E6FFE2DAE552E552E552E552020EDBCF81
:10381000E9FF030EDBCFEAFF1A0EE926000EEA22CB
:10382000EF06020EDBCFE9FF030EDBCFEAFF1D0E32
:10383000E926000EEA22EF50FF0839E1020EDBCF45
:10384000E9FF030EDBCFEAFF080EE926000EEA22AD
:10385000EF502CE0020EDBCFE9FF030EDBCFEAFFD7
:10386000080EE926000EEA22E9CF10F0EACF11F0A7
:1038700010C0E6FF11C0E6FF8EEC0AF0E552E552FB
:10388000000913E0D950F80FE96EFF0EDA20EA6E56
:10389000EE50ED1009E0F80EDBCFE9FFF90EDBCFBB
:1038A000EAFF010EEF6E00D000D000D00BD0020E68
:1038B000DBCFE9FF030EDBCFEAFF1D0EE926000E8A
:1038C000EA22EF2A010EDF6E01D0DF6ADF5000D05E
:1038D000106E040EE15C02E2E16AE552E16E105006
:1038E000E552E5CFDAFFE7CFD9FF1200D9CFE6FFE7
:1038F000DACFE6FFE1CFD9FFE2CFDAFF060EE1240F
:1039000002E3E168E652E16EFC0EDBCF06F0FD0E4D
:10391000DBCF07F0040E06C0DBFF050E07C0DBFFA0
:10392000010EDB6A040EDBCFE9FF050EDBCFEAFFF9
:103930001A0EE926000EEA22EF50000834E2040EC7
:10394000DBCFE9FF050EDBCFEAFF060EE926000E0E
:10395000EA22020EEECFDBFF030EEDCFDBFFFA0E05
:10396000DBCFE6FFFB0EDBCFE6FF040EDBCFE6FF8F
:10397000050EDBCFE6FF28DAE552E552E552E552C7
:10398000040EDBCFE9FF050EDBCFEAFF060EE926CA
:10399000000EEA22020EDBCFEEFF030EDBCFEDFFBF
:1039A000010EDF6E01D0DF6ADF5000D0106E060E10
:1039B000E15C02E2E16AE552E16E1050E552E5CFCA
:1039C000DAFFE7CFD9FF1200D9CFE6FFDACFE6FF63
:1039D000E1CFD9FFE2CFDAFFE652F250E66EF29E77
:1039E000FC0EDBCFE9FFFD0EDBCFEAFF1A0EE92666
:1039F000000EEA22EFCFDFFFE552E7BEF28EDF5086
:103A000000D0E552E552E5CFDAFFE7CFD9FF12004B
:103A1000D9CFE6FFDACFE6FFE1CFD9FFE2CFDAFF79
:103A2000E652E652E652FC0EDBCF06F0FD0EDBCF8F
:103A300007F0DE5206C0DEFF07C0DDFFDD52F250A8
:103A4000E66EF29E010EDBCFE9FF020EDBCFEAFF4E
:103A50001B0EE926000EEA22EFCF10F0010EDBCF9D
:103A6000E9FF020EDBCFEAFF1A0EE926000EEA227A
:103A7000EF50105CDF6EE552E7BEF28EDF5000D0F3
:103A8000E552E552E552E552E5CFDAFFE7CFD9FF3F
:103A90001200D9CFE6FFDACFE6FFE1CFD9FFE2CFC0
:103AA000DAFFE652FC0EDBCFE9FFFD0EDBCFEAFFCB
:103AB0001A0EE926000EEA22EFCFDFFFDF5000D01A
:103AC000E552E552E5CFDAFFE7CFD9FF1200D9CFB3
:103AD000E6FFDACFE6FFE1CFD9FFE2CFDAFFE65229
:103AE000E652FC0EDBCFDEFFDBCFDDFFDECFE6FFF5
:103AF000DDCFE6FF78EC36F0E552E552E552E552CF
:103B0000E552E5CFDAFFE7CFD9FF1200D9CFE6FFC4
:103B1000DACFE6FFE1CFD9FFE2CFDAFFE652DF6A84
:103B2000FC0EDBCFE9FFFD0EDBCFEAFF1C0EE92622
:103B3000000EEA22EF5001E133D1F90EDB5001E033
:103B400081D0FC0EDBCFE9FFFD0EDBCFEAFF1C0EC0
:103B5000E926000EEA22EF50E66EE66AFA0EDBCFA7
:103B6000E6FFFB0EDBCFE6FFFC0EDBCFE9FFFD0E31
:103B7000DBCFEAFF040EE926000EEA22EECFE6FFD5
:103B8000EFCFE6FFE8EC36F0106E060EE15C02E2E5
:103B9000E16AE552E16E1050FC0EDBCFE9FFFD0E4D
:103BA000DBCFEAFF1C0EE926000EEA22EF50106E72
:103BB000116AFC0EDBCFE9FFFD0EDBCFEAFF040E3E
:103BC000E926000EEA221050EE261150ED22FC0EDE
:103BD000DBCFE9FFFD0EDBCFEAFF040EE926000E86
:103BE000EA22EECF10F0EFCF11F0FC0EDBCFE9FFB1
:103BF000FD0EDBCFEAFF020EE926000EEA22EECF31
:103C000012F0EFCF13F01250105C1350115819E35B
:103C1000FC0EDBCFE9FFFD0EDBCFEAFFEECF10F0AD
:103C2000EFCF11F0FC0EDBCFE9FFFD0EDBCFEAFF9B
:103C3000040EE926000EEA2210C0EEFF11C0EDFFCF
:103C400000D0AED0FC0EDBCFE9FFFD0EDBCFEAFFEC
:103C50001C0EE926000EEA22EF50E66EE66AFA0E26
:103C6000DBCFE6FFFB0EDBCFE6FFFC0EDBCFE9FF91
:103C7000FD0EDBCFEAFF060EE926000EEA22EECFAC
:103C8000E6FFEFCFE6FFE8EC36F0106E060EE15CE3
:103C900002E2E16AE552E16E1050FC0EDBCFE9FF73
:103CA000FD0EDBCFEAFF1C0EE926000EEA22EF50E4
:103CB000106E116AFC0EDBCFE9FFFD0EDBCFEAFFD1
:103CC000060EE926000EEA221050EE5E1150ED5A63
:103CD000FC0EDBCFE9FFFD0EDBCFEAFF060EE92687
:103CE000000EEA22EECF10F0EFCF11F0FC0EDBCF8A
:103CF000E9FFFD0EDBCFEAFFEECF12F0EFCF13F0BE
:103D000000011250105C135011582CE2FC0EDBCF56
:103D1000E9FFFD0EDBCFEAFF1C0EE926000EEA22CA
:103D2000EF50126E136AFC0EDBCFE9FFFD0EDBCF06
:103D3000EAFF020EE926000EEA221250EE5C106E37
:103D40001350EE58116EFC0EDBCFE9FFFD0EDBCFFA
:103D5000EAFF060EE926000EEA2210C0EEFF11C0AF
:103D6000EDFF00D0F90EDB5002081AE1FC0EDBCFAC
:103D7000E9FFFD0EDBCFEAFF1A0EE926000EEA226C
:103D8000EF5000080CE2FC0EDBCFE9FFFD0EDBCFAD
:103D9000EAFF1A0EE926000EEA22EF0600D000D054
:103DA000FC0EDBCFE9FFFD0EDBCFEAFF1A0EE926A2
:103DB000000EEA22EF2ADF5000D0E552E552E5CFAF
:103DC000DAFFE7CFD9FF1200D9CFE6FFDACFE6FF5F
:103DD000E1CFD9FFE2CFDAFFFC0EDBCFE9FFFD0E2A
:103DE000DBCFEAFF1C0EE926000EEA22EF5001E1CC
:103DF00081D0FC0EDBCFE9FFFD0EDBCFEAFF1C0E0E
:103E0000E926000EEA22EF50106E116AFC0EDBCF9D
:103E1000E9FFFD0EDBCFEAFF060EE926000EEA22DF
:103E20001050EE261150ED22FC0EDBCFE9FFFD0E07
:103E3000DBCFEAFF060EE926000EEA22EECF10F0F5
:103E4000EFCF11F0FC0EDBCFE9FFFD0EDBCFEAFF79
:103E5000020EE926000EEA22EECF12F0EFCF13F0A9
:103E600000011250105C1350115819E3FC0EDBCF07
:103E7000E9FFFD0EDBCFEAFFEECF10F0EFCF11F040
:103E8000FC0EDBCFE9FFFD0EDBCFEAFF060EE926D5
:103E9000000EEA2210C0EEFF11C0EDFF00D0FC0EB4
:103EA000DBCFE9FFFD0EDBCFEAFF1C0EE926000E9B
:103EB000EA22EF50E66EE66AFC0EDBCFE9FFFD0E6C
:103EC000DBCFEAFF060EE926000EEA22EECFE6FF80
:103ED000EFCFE6FFFA0EDBCFE6FFFB0EDBCFE6FF10
:103EE000E8EC36F0106E060EE15C02E2E16AE552A3
:103EF000E16E1050E552E5CFDAFFE7CFD9FF1200AF
:103F0000D9CFE6FFDACFE6FFE1CFD9FFE2CFDAFF84
:103F1000F250E66EF29EFC0EDBCFE9FFFD0EDBCF2A
:103F2000EAFF1E0EE926000EEA22EFCF10F0000E87
:103F3000E76E1018E8AE02D0103403D0E750D880F6
:103F4000105435E2FC0EDBCFE9FFFD0EDBCFEAFFBC
:103F5000110EE926000EEA22EF501CE0FC0EDBCF2A
:103F6000E9FFFD0EDBCFEAFF110EE926000EEA2283
:103F7000E9CF10F0EACF11F010C0E6FF11C0E6FF64
:103F80008EEC0AF0E552E552000903E0E3EC0CF098
:103F900000D001D00CD0FC0EDBCFE9FFFD0EDBCF53
:103FA000EAFF1E0EE926000EEA22EF06B4D7FC0E49
:103FB000DBCFE9FFFD0EDBCFEAFF1E0EE926000E88
:103FC000EA22EF68E552E7BEF28EF250E66EF29E0C
:103FD000FC0EDBCFE9FFFD0EDBCFEAFF1D0EE9266D
:103FE000000EEA22EFCF10F0000EE76E1018E8AED8
:103FF00002D0103403D0E750D880105435E2FC0EC4
:10400000DBCFE9FFFD0EDBCFEAFF080EE926000E4D
:10401000EA22EF5027E0FC0EDBCFE9FFFD0EDBCFFD
:10402000EAFF080EE926000EEA22E9CF10F0EACFF7
:1040300011F010C0E6FF11C0E6FF8EEC0AF0E55269
:10404000E552000903E0E3EC0CF000D0FC0EDBCFFE
:10405000E9FFFD0EDBCFEAFF1D0EE926000EEA2286
:10406000EF0601D001D0B4D7FC0EDBCFE9FFFD0E87
:10407000DBCFEAFF1D0EE926000EEA22EF68E552CB
:10408000E7BEF28EE552E5CFDAFFE7CFD9FF1200A7
:10409000D9CFE6FFDACFE6FFE1CFD9FFE2CFDAFFF3
:1040A000E652F250E66EF29EFC0EDBCFE9FFFD0E0B
:1040B000DBCFEAFF1A0EE926000EEA22EF5003E1F9
:1040C000010EDF6E01D0DF6AE552E7BEF28EDF50EF
:1040D00000D0E552E552E5CFDAFFE7CFD9FF120075
:1040E000D9CFE6FFDACFE6FFE1CFD9FFE2CFDAFFA3
:1040F000E652FC0EDBCFE9FFFD0EDBCFEAFF1A0E26
:10410000E926000EEA22EF5003E1010EDF6E01D036
:10411000DF6ADF5000D0E552E552E5CFDAFFE7CFA6
:10412000D9FF1200D9CFE6FFDACFE6FFE1CFD9FF02
:10413000E2CFDAFFE652F250E66EF29EFC0EDBCFE3
:10414000E9FFFD0EDBCFEAFF1A0EE926000EEA2298
:10415000EFCF10F0FC0EDBCFE9FFFD0EDBCFEAFF67
:104160001B0EE926000EEA22EF50105C03E1010E5F
:10417000DF6E01D0DF6AE552E7BEF28EDF5000D07D
:10418000E552E552E5CFDAFFE7CFD9FF1200D9CFEC
:10419000E6FFDACFE6FFE1CFD9FFE2CFDAFFE65262
:1041A000FC0EDBCFE9FFFD0EDBCFEAFF1A0EE9269E
:1041B000000EEA22EFCF10F0FC0EDBCFE9FFFD0E80
:1041C000DBCFEAFF1B0EE926000EEA22EF50105C5F
:1041D00003E1010EDF6E01D0DF6ADF5000D0E5524F
:0C41E000E552E5CFDAFFE7CFD9FF12006F
:0441EC00D9CFE6FF42
:1041F000DACFE6FFE1CFD9FFE2CFDAFFE652E652AF
:104200000B0EE66EE66A1CEC36F0E552E552F3CF93
:10421000DEFFF4CFDDFFD9CFE9FFDACFEAFFEE50C2
:10422000ED101DE0DECFE9FFDDCFEAFF000EEB6A07
:10423000010EEB6ADECFE9FFDDCFEAFF020EE926D1
:10424000000EEA22E9CF10F0EACF11F010C0E6FF2D
:1042500011C0E6FF3BEC30F0E552E55200D0DECF76
:1042600010F0DDCF11F010C0F3FF11C0F4FF00D04B
:10427000E552E552E552E5CFDAFFE7CFD9FF12006C
:10428000D9CFE6FFDACFE6FFE1CFD9FFE2CFDAFF01
:10429000080EE12402E3E168E652E16EFC0EDBCF9A
:1042A00006F0FD0EDBCF07F0040E06C0DBFF050EA7
:1042B00007C0DBFF070EDB6A4CEC06F0040EDBCF19
:1042C000E9FF050EDBCFEAFFEECFDEFFEDCFDDFF2E
:1042D000FA0EDBCFE6FFFB0EDBCFE6FFFC0EDBCFFB
:1042E000E6FFFD0EDBCFE6FFE0DAE552E552E552F0
:1042F000E552FA0EDBCF14F0FB0EDBCF15F0DE50EB
:104300001410126EDD501510136EF80EDB501214DF
:10431000106EF90EDB501314116EF80EDB501018EE
:1043200003E1F90EDB50111827E1FA0EDBCF12F092
:10433000FB0EDBCF13F0DE501210106EDD501310A9
:10434000116E020E10C0DBFF030E11C0DBFFF80E72
:10435000DB1C106EF90EDB1C116E040EDBCFE9FFC7
:10436000050EDBCFEAFF1050EE161150ED16F60EDB
:10437000DB6AF70EDB6A4CD0D950F60FE96EFF0E00
:10438000DA20EA6EEE50ED1037E0F60EDBCFE6FFF6
:10439000F70EDBCFE6FFF80EDBCF10F0F90EDBCF28
:1043A00011F01050010E11121050040E111210C015
:1043B000E6FF11C0E6FF040EDBCFE9FF050EDBCF01
:1043C000EAFF020EE926000EEA22E9CF12F0EACF58
:1043D00013F012C0E6FF13C0E6FFF5EC09F0146E0F
:1043E000060EE15C02E2E16AE552E16E1450020E53
:1043F000DB6A030EDB6A0CD0040EDBCFE9FF050E8F
:10440000DBCFEAFF020EEECFDBFF030EEDCFDBFFCB
:104410004FEC06F0E76E060EE7CFDBFFD950F60F44
:10442000E96EFF0EDA20EA6EEE50ED1059E0060E4E
:10443000DB5003E115EC2EF000D0FEEC0FF0020E85
:10444000F3CFDBFF030EF4CFDBFF030EDB50020BD9
:104450003FE1F250E66EF29E040EDBCFE9FF050E5F
:10446000DBCFEAFF020EEECFDBFF030EEDCFDBFF6B
:10447000F80EDBCF12F0F90EDBCF13F0020EDB509B
:104480001214106E030EDB501314116EF80EDB5075
:10449000101803E1F90EDB50111811E1F80EDB1CC6
:1044A000106EF90EDB1C116E040EDBCFE9FF050E5A
:1044B000DBCFEAFF1050EE161150ED1600D0E5529A
:1044C000E7BEF28E010EF36E070EF3CFDBFF00D0D6
:1044D000D950020FE96E000EDA20EA6EEE52ED6A54
:1044E000020EDBCF10F0030EDBCF11F010C0F3FF94
:1044F00011C0F4FF00D0080EE15C02E2E16AE5526F
:10450000E16EE552E5CFDAFFE7CFD9FF1200D9CF50
:10451000E6FFDACFE6FFE1CFD9FFE2CFDAFF0B0EFD
:10452000E12402E3E168E652E16EFC0EDBCFDEFF40
:10453000DBCFDDFF040EDB6A050EDB6A080EDB6AEB
:104540004CEC06F0DECFE9FFDDCFEAFF090EEECF3F
:10455000DBFF0A0EEDCFDBFFF80EDBCFE6FFFA0E36
:10456000DBCFE6FFFB0EDBCFE6FF090EDBCFE6FF7E
:104570000A0EDBCFE6FF85DB106E050EE15C02E282
:10458000E16AE552E16E1050E76E060EE7CFDBFF01
:10459000060EDB5023E0090EDBCF06F00A0EDBCF60
:1045A00007F0020E06C0DBFF030E07C0DBFFF60EAE
:1045B000DB6AF70EDB6AF90EDB500FE0FA0EDB1C4C
:1045C000106EFB0EDB1C116EDECFE9FFDDCFEAFFC4
:1045D0001050EE161150ED1600D064D0D950F60FE1
:1045E000E96EFF0EDA20EA6EEE50ED100DE1090ED5
:1045F000DBCF06F00A0EDBCF07F0020E06C0DBFFB2
:10460000030E07C0DBFF4ED0F90EDB5009E0D95096
:10461000040FE96E000EDA20EA6EEE52ED8000D053
:10462000F80EDB5009E0D950040FE96E000EDA20D5
:10463000EA6EEE52ED8400D0F60EDBCFE6FFF70E09
:10464000DBCFE6FF040EDBCF12F0050EDBCF13F05D
:10465000FA0EDB501210106EFB0EDB501310116EB1
:1046600010C0E6FF11C0E6FFDECFE9FFDDCFEAFFB5
:10467000020EE926000EEA22E9CF14F0EACF15F087
:1046800014C0E6FF15C0E6FFF5EC09F0166E060E45
:10469000E15C02E2E16AE552E16E1650020EDB6A6D
:1046A000030EDB6A4FEC06F0E76E070EE7CFDBFF89
:1046B000D950F60FE96EFF0EDA20EA6EEE50ED10DB
:1046C0005AE0070EDB5003E115EC2EF000D0FEECB3
:1046D0000FF0020EF3CFDBFF030EF4CFDBFF030E70
:1046E000DB50020B40E1F250E66EF29EDECFE9FFB6
:1046F000DDCFEAFF020EEECFDBFF030EEDCFDBFFD7
:10470000F80EDBCFE6FFFA0EDBCFE6FFFB0EDBCFCA
:10471000E6FF020EDBCFE6FF030EDBCFE6FFB1DAEA
:10472000106E050EE15C02E2E16AE552E16E1050A6
:10473000000913E0F90EDB500FE0FA0EDB1C106EDF
:10474000FB0EDB1C116EDECFE9FFDDCFEAFF105060
:10475000EE161150ED1600D000D0E552E7BEF28EF5
:10476000080EDB6A00D0D950020FE96E000EDA2085
:10477000EA6EEE52ED6A020EDBCF10F0030EDBCFD5
:1047800011F010C0F3FF11C0F4FF00D00B0EE15C7C
:1047900002E2E16AE552E16EE552E5CFDAFFE7CFEA
:1047A000D9FF1200D9CFE6FFDACFE6FFE1CFD9FF7C
:1047B000E2CFDAFFE652E652E652E652FC0EDBCFDB
:1047C000DEFFDBCFDDFFF250E66EF29EDECFE9FFCB
:1047D000DDCFEAFF020EEECFDBFF030EEDCFDBFFF6
:1047E000FA0EDB1C106EFB0EDB1C116EDECFE9FF38
:1047F000DDCFEAFF1050EE161150ED16E552E7BE80
:10480000F28E020EDBCF10F0030EDBCF11F010C0E2
:10481000F3FF11C0F4FF00D0040EE15C02E2E16A94
:10482000E552E16EE552E5CFDAFFE7CFD9FF12009E
:10483000D9CFE6FFDACFE6FFE1CFD9FFE2CFDAFF4B
:10484000E652E652E652E652E652FC0EDBCF06F0A6
:10485000FD0EDBCF07F0DE5206C0DEFF07C0DDFF36
:10486000DD52DF6A010EDBCFE9FF020EDBCFEAFF8C
:10487000030EEECFDBFF040EEDCFDBFF030EDBCF2D
:1048800010F0040EDBCF11F010C0F3FF11C0F4FFE5
:1048900000D0050EE15C02E2E16AE552E16EE5520C
:1048A000E5CFDAFFE7CFD9FF1200D9CFE6FFDACFA5
:1048B000E6FFE1CFD9FFE2CFDAFF110EE12402E3F8
:1048C000E168E652E16E080EDB6A090EDB6AFC0E57
:1048D000DBCF06F0FD0EDBCF07F00E0E06C0DBFFD0
:1048E0000F0E07C0DBFF100EDB6A0E0EDBCFE9FFF9
:1048F0000F0EDBCFEAFF020EE926000EEA22E9CF17
:1049000010F0EACF11F0060E10C0DBFF070E11C049
:10491000DBFF060EDBCFE9FF070EDBCFEAFF030E5E
:10492000E926000EEA22E9CF10F0EACF11F0040EDA
:1049300010C0DBFF050E11C0DBFF4CEC06F0060ECD
:10494000DBCFE9FF070EDBCFEAFF030EE926000EFF
:10495000EA22020EE926000EEA22EECFDEFFEDCFBC
:10496000DDFFFA0EDBCF10F0FB0EDBCF11F00E0EE9
:10497000DBCFE9FF0F0EDBCFEAFF1050EE12115034
:10498000ED12040EDB50DF1804E1050EDB50DE52A1
:10499000DD1801E1ABD0DECFE9FFDDCFEAFF020E8B
:1049A000E926000EEA22020EEECFDBFF030EEDCF6A
:1049B000DBFFDECFE9FFDDCFEAFF0A0EEECFDBFF44
:1049C0000B0EEDCFDBFF100EDB6A0A0EDBCF10F013
:1049D0000B0EDBCF11F0000E1016FF0E11160C0E91
:1049E00010C0DBFF0D0E11C0DBFFD9500A0FE96EBE
:1049F000000EDA20EA6EEE52ED6A0D0EDB50040B6B
:104A00001CE10A0EDBCF12F00B0EDBCF13F00E0E03
:104A1000DBCFE9FF0F0EDBCFEAFF1250EE14106E72
:104A20001350EE14116E1050111006E0010EF36ECB
:104A3000100EF3CFDBFF00D020D00A0EDBCF12F038
:104A40000B0EDBCF13F00E0EDBCFE9FF0F0EDBCF2B
:104A5000EAFF1250EE14106E1350EE14116E0A0E8F
:104A6000DB50101803E10B0EDB50111806E1010EAC
:104A7000F36E100EF3CFDBFF00D0100EDB5030E0F2
:104A80000D0EDB50010B11E00A0EDBCF10F00B0E08
:104A9000DBCF11F0D950080FE96E000EDA20EA6E74
:104AA0001050EE121150ED1200D00E0EDBCFE9FFC8
:104AB0000F0EDBCFEAFFEECF10F0EFCF11F010506A
:104AC000020E111210C0E6FF11C0E6FFDECFE6FFB6
:104AD000DDCFE6FF68EC0BF0E552E552E552E5521A
:104AE000020EDBCFDEFFDBCFDDFF4BD7080EDB1C7A
:104AF000106E090EDB1C116E0E0EDBCFE9FF0F0EE0
:104B0000DBCFEAFF1050EE161150ED164FEC06F019
:104B10000E0EDBCFE9FF0F0EDBCFEAFFEECF10F07A
:104B2000EFCF11F010C0F3FF11C0F4FF00D0110E51
:104B3000E15C02E2E16AE552E16EE552E5CFDAFFBF
:104B4000E7CFD9FF1200D9CFE6FFDACFE6FFE1CFFA
:104B5000D9FFE2CFDAFFE652E652E652E652FC0E09
:104B6000DBCFDEFFDBCFDDFFDECFE9FFDDCFEAFF0E
:104B7000020EE926000EEA22E9CF10F0EACF11F08A
:104B8000020E10C0DBFF030E11C0DBFF4CEC06F081
:104B9000020EDBCFE9FF030EDBCFEAFFEF50000888
:104BA0001CE2E66A020EE66E020EDBCFE9FF030EA0
:104BB000DBCFEAFF030EE926000EEA22020EE92609
:104BC000000EEA22EECFE6FFEFCFE6FF68EC0BF037
:104BD000E552E552E552E552DBD7DECFE6FFDDCF09
:104BE000E6FF78EC36F0E552E5524FEC06F0040EA5
:104BF000E15C02E2E16AE552E16EE552E5CFDAFFFF
:104C0000E7CFD9FF1200D9CFE6FFDACFE6FFE1CF39
:104C1000D9FFE2CFDAFFF80EDBCFE6FFF90EDBCFEC
:104C2000E6FFFC0EDBCFE6FFFD0EDBCFE6FF3DDE51
:104C3000E552E552E552E552E552E5CFDAFFE7CF1E
:104C4000D9FF1200D9CFE6FFDACFE6FFE1CFD9FFD7
:104C5000E2CFDAFFF80EDBCFE6FFF90EDBCFE6FF9F
:104C6000FC0EDBCFE6FFFD0EDBCFE6FF9BDDE55262
:104C7000E552E552E552E552E5CFDAFFE7CFD9FF3D
:104C80001200D9CFE6FFDACFE6FFE1CFD9FFE2CFBE
:104C9000DAFFE652DF6AF90EDB5015E1FA0EDBCFE0
:104CA00012F0FB0EDBCF13F0FC0EDB501214106E73
:104CB000FD0EDB501314116E1050111003E0010EA5
:104CC000DF6E00D019D0FA0EDBCF12F0FB0EDBCF77
:104CD00013F0FC0EDB501214106EFD0EDB5013149B
:104CE000116EFA0EDB50101803E1FB0EDB501118A9
:104CF00003E1010EDF6E00D0DF5000D0E552E55237
:0A4D0000E5CFDAFFE7CFD9FF12007C
:064D0A00D9CFE6FFDACF6D
:104D1000E6FFE1CFD9FFE2CFDAFFE652E652E652F4
:104D20001A0EE66EE66A1CEC36F0E552E552DE52EB
:104D3000F3CFDEFFF4CFDDFFDD52D950010FE96E76
:104D4000000EDA20EA6EEE50ED1001E103D10D0104
:104D5000A051A11107E1010EDBCFA0FD020EDBCFB8
:104D6000A1FDECDB020EF36EFB0EDBCFF4FFF35084
:104D7000F45C05E3010EF36EFB0EF3CFDBFF010ED7
:104D8000DBCFE9FF020EDBCFEAFF180EEB6A190E4C
:104D9000EB6A010EDBCFE9FF020EDBCFEAFF160E56
:104DA000E926000EEA22FB0EDBCFEFFF010EDBCF80
:104DB000E9FF020EDBCFEAFF170EE926000EEA221A
:104DC000FA0EDBCFEFFF010EDBCFE9FF020EDBCFE8
:104DD000EAFFFC0EDBCFEEFFFD0EDBCFEDFF010E99
:104DE000DBCFE9FF020EDBCFEAFF020EE926000E61
:104DF000EA22E9CF10F0EACF11F010C0E6FF11C0AF
:104E0000E6FFB5EC30F0E552E552010EDBCFE9FFED
:104E1000020EDBCFEAFF0C0EE926000EEA22E9CFF4
:104E200010F0EACF11F010C0E6FF11C0E6FFB5ECBC
:104E300030F0E552E552010EDBCFE9FF020EDBCF89
:104E4000EAFF020EE926000EEA22060EE926000E0F
:104E5000EA22010EDBCFEEFF020EDBCFEDFF010EEB
:104E6000DBCFE9FF020EDBCFEAFF0C0EE926000ED6
:104E7000EA22060EE926000EEA22010EDBCFEEFF43
:104E8000020EDBCFEDFFFB0EDB50106E116A020E3F
:104E9000D8801056000E1156010EDBCFE9FF020E2E
:104EA000DBCFEAFF0C0EE926000EEA2210C0EEFF6F
:104EB00011C0EDFF010EDBCFE9FF020EDBCFEAFFF1
:104EC000160EE926000EEA22EFCF10F00D01A251D6
:104ED000D88010540CE2010EDBCFE9FF020EDBCFCD
:104EE000EAFF160EE926000EEA22EFCFA2FD010E20
:104EF000DBCFE9FF020EDBCFEAFF020EE926000E50
:104F0000EA22E9CF10F0EACF11F010C0E6FF11C09D
:104F1000E6FF010EDBCFE9FF020EDBCFEAFF160E44
:104F2000E926000EEA22EF50090DF3CF12F0F4CF7C
:104F300013F0600E12260D0E132212C0E6FF13C0EE
:104F4000E6FFCDEC30F0E552E552E552E552010EB8
:104F5000DF6E01D0DF68DF5000D0E552E552E55248
:104F6000E552E5CFDAFFE7CFD9FF1200D9CFE6FF50
:104F7000DACFE6FFE1CFD9FFE2CFDAFFE652E65221
:104F8000FC0EDB500D01A3250001106EFD0EDB5061
:104F90000D01A4210001116E10C0DEFF11C0DDFF64
:104FA000A0CDE9FFA1CDEAFF020EE926000EEA221C
:104FB000E9CF10F0EACF11F010C0E6FF11C0E6FF14
:104FC0002FEC32F0E552E552A0CDE9FFA1CDEAFF8A
:104FD000020EE926000EEA22DECFEEFFDDCFEDFF66
:104FE000DECF10F0DDCF11F00D01A351105CA45104
:104FF00011581BE2A0CDE9FFA1CDEAFF020EE92680
:10500000000EEA22E9CF10F0EACF11F010C0E6FF5F
:1050100011C0E6FF86CDE6FF87CDE6FF4DEC31F00F
:10502000E552E552E552E5521AD0A0CDE9FFA1CDF7
:10503000EAFF020EE926000EEA22E9CF10F0EACFDD
:1050400011F010C0E6FF11C0E6FF84CDE6FF85CD6C
:10505000E6FF4DEC31F0E552E552E552E552D9500C
:10506000FA0FE96EFF0EDA20EA6EEE50ED101CE04A
:10507000A0CDE9FFA1CDEAFF0C0EE926000EEA2241
:10508000E9CF10F0EACF11F010C0E6FF11C0E6FF43
:10509000FA0EDBCFE6FFFB0EDBCFE6FF4DEC31F087
:1050A000E552E552E552E552E552E552E552E5CFCB
:1050B000DAFFE7CFD9FF1200D9CFE6FFDACFE6FF5C
:1050C000E1CFD9FFE2CFDAFFE652E6520D01885177
:1050D00001E17CD0F29E8DCDE9FF8ECDEAFF060E78
:1050E000E926000EEA22EECFDEFFEDCFDDFFDECFB8
:1050F000E9FFDDCFEAFF0C0EE926000EEA22E9CF38
:1051000010F0EACF11F010C0E6FF11C0E6FF2FEC5F
:1051100032F0E552E552F28EDECFE9FFDDCFEAFF55
:10512000020EE926000EEA22E9CF10F0EACF11F0D4
:1051300010C0E6FF11C0E6FF2FEC32F0E552E55259
:10514000DECFE9FFDDCFEAFF160EE926000EEA22E8
:10515000EFCF10F00D01A251D88010540AE2DECF3B
:10516000E9FFDDCFEAFF160EE926000EEA22EFCFB7
:10517000A2FDDECFE9FFDDCFEAFF020EE926000E39
:10518000EA22E9CF10F0EACF11F010C0E6FF11C01B
:10519000E6FFDECFE9FFDDCFEAFF160EE926000EBF
:1051A000EA22EF50090DF3CF12F0F4CF13F0600EA6
:1051B00012260D0E132212C0E6FF13C0E6FFCDEC3F
:1051C00030F0E552E552E552E55280D7E552E5521E
:1051D000E552E5CFDAFFE7CFD9FF1200D9CFE6FFDE
:1051E000DACFE6FFE1CFD9FFE2CFDAFFE652E652AF
:1051F000E652E6522CEC07F00D01A551F35C0D01CF
:10520000A76F0D01A651F4580D01A86F0D01A7510C
:10521000A81101E1CFD00D01A32B000EA4230D0195
:10522000A707000EA85B0D01A351A41110E1020E07
:1052300084CDDBFF030E85CDDBFF86CD84FD87CDDE
:1052400085FD020EDBCF86FD030EDBCF87FD84CD0F
:10525000E9FF85CDEAFFEF50000901E1AAD084CD36
:10526000E9FF85CDEAFF030EE926000EEA22020ED1
:10527000E926000EEA22EE50EFCFEAFFE96E060EB5
:10528000E926000EEA22EECFDEFFEDCFDDFFDECF16
:10529000E9FFDDCFEAFF020EE926000EEA22EECF9B
:1052A00010F0EFCF11F00D011050A35D1150A45973
:1052B00001E27FD0F29EDECFE9FFDDCFEAFF020EF2
:1052C000E926000EEA22E9CF10F0EACF11F010C073
:1052D000E6FF11C0E6FF2FEC32F0E552E552DECFDB
:1052E000E9FFDDCFEAFF0C0EE926000EEA22080EE8
:1052F000E926000EEA22EE50ED1014E0DECFE9FFC1
:10530000DDCFEAFF0C0EE926000EEA22E9CF10F00D
:10531000EACF11F010C0E6FF11C0E6FF2FEC32F02B
:10532000E552E552F28EDECFE9FFDDCFEAFF160E41
:10533000E926000EEA22EFCF10F00D01A251D8802D
:1053400010540AE2DECFE9FFDDCFEAFF160EE926B0
:10535000000EEA22EFCFA2FDDECFE9FFDDCFEAFFAC
:10536000020EE926000EEA22E9CF10F0EACF11F092
:1053700010C0E6FF11C0E6FFDECFE9FFDDCFEAFF98
:10538000160EE926000EEA22EF50090DF3CF12F0B7
:10539000F4CF13F0600E12260D0E132212C0E6FF9A
:1053A00013C0E6FFCDEC30F0E552E552E552E55290
:1053B0004ED72CD7A3CDA5FDA4CDA6FD040EE15C50
:1053C00002E2E16AE552E16EE552E5CFDAFFE7CFAE
:1053D000D9FF1200D9CFE6FFDACFE6FFE1CFD9FF40
:1053E000E2CFDAFFE652E65267DEF8DE0D01A251A7
:1053F000090DF3CFE9FFF4CFEAFF600EE9260D0EA9
:10540000EA22EF5007E10D01A25101E18FD00D0119
:10541000A207ECD70D01A251090DF3CF10F0F4CF84
:1054200011F0600E10260D0E112210C0DEFF11C00B
:10543000DDFFDECFE9FFDDCFEAFFEE52EE50EFCF2A
:10544000EAFFE96E020EE926000EEA22EECF10F026
:10545000EFCF11F0DECFE9FFDDCFEAFFEE5210C053
:10546000EEFF11C0EDFFDECFE9FFDDCFEAFFEE5228
:10547000EECF10F0EFCF11F0DECFE9FFDDCFEAFF86
:10548000030EE926000EEA22E9CF12F0EACF13F06C
:105490001250101802E1135011181AE1DECFE9FF83
:1054A000DDCFEAFFEE52EE50EFCFEAFFE96E020EDB
:1054B000E926000EEA22EECF10F0EFCF11F0DECF9A
:1054C000E9FFDDCFEAFFEE5210C0EEFF11C0EDFFA5
:1054D000DECFE9FFDDCFEAFFEE52EE50EFCFEAFF7D
:1054E000E96E060EE926000EEA22EECFA0FDEDCF12
:1054F000A1FDA0CDE9FFA1CDEAFFEECF10F0EFCFE7
:1055000011F0A0CDE9FFA1CDEAFF170EEB50E66E3A
:10551000A0CDE6FFA1CDE6FF04D011C0FAFF1050E8
:10552000F96EFBDFE552E552E55200D0E552E55257
:10553000E552E5CFDAFFE7CFD9FF1200D9CFE6FF7A
:10554000DACFE6FFE1CFD9FFE2CFDAFFE652DF6A3A
:10555000020EDF5C14E2DF50090DF3CF10F0F4CF40
:1055600011F0600E10260D0E112210C0E6FF11C0C2
:10557000E6FF3BEC30F0E552E552DF2AE9D7720E48
:10558000E66E0D0EE66E3BEC30F0E552E5527B0E1A
:10559000E66E0D0EE66E3BEC30F0E552E552880EFD
:1055A000E66E0D0EE66E3BEC30F0E552E5520D0175
:1055B000720E846F0D0E856F0D017B0E866F0D0EC2
:1055C000876FE552E552E5CFDAFFE7CFD9FF12004A
:1055D000D9CFE6FFDACFE6FFE1CFD9FFE2CFDAFF9E
:1055E000E652E652E652FC0EDBCFE9FFFD0EDBCFC2
:1055F000EAFF030EE926000EEA22020EE926000E5B
:10560000EA22EE50EFCFEAFFE96E060EE926000E21
:10561000EA22EECFDEFFEDCFDDFFDECFE9FFDDCF0B
:10562000EAFF0C0EE926000EEA22E9CF10F0EACFDD
:1056300011F010C0E6FF11C0E6FF2FEC32F0E5528A
:10564000E552DECFE9FFDDCFEAFF0C0EE926000EC2
:10565000EA22E9CF10F0EACF11F010C0E6FF11C046
:10566000E6FF880EE66E0D0EE66ECDEC30F0E552EC
:10567000E552E552E552DECFE9FFDDCFEAFF160E37
:10568000E926000EEA22EFCF10F0A0CDE9FFA1CD70
:10569000EAFF160EEB50105C06E3010EF36E020EED
:1056A000F3CFDBFF02D0020EDB6A020EDB5000D02C
:1056B000E552E552E552E552E5CFDAFFE7CFD9FFF3
:0256C0001200D6
:0E56C200D9CFE6FFDACFE6FFE1CFD9FFE2CF86
:1056D000DAFFE652E652E652E652E652FC0EDBCF25
:1056E000E9FFFD0EDBCFEAFF110EEF6EFC0EDB2AA9
:1056F000FD0E01E3DB2AFC0EDBCFE9FFFD0EDBCF65
:10570000EAFF220EEF6EFC0EDB2AFD0E01E3DB2A20
:10571000FC0EDBCFE9FFFD0EDBCFEAFF330EEF6EB1
:10572000FC0EDB2AFD0E01E3DB2AF80EDBCF10F0C6
:10573000F90EDBCF11F0000E10C0DBFF010E11C01F
:10574000DBFF020EDB6A030EDB6AD9CFE9FFDACF9B
:10575000EAFFEECF10F0EECF11F0EECF12F0EFCF68
:1057600013F01050E66EFC0EDBCFE9FFFD0EDBCF31
:10577000EAFFE552E750EF6EFC0EDB2AFD0E01E377
:10578000DB2AD9CFE9FFDACFEAFF080EE76ED8901F
:10579000030EEB32020EEB32010EEB32EF32E70674
:1057A000F6E1D9CFE9FFDACFEAFFEECF10F0EECF86
:1057B00011F0EECF12F0EFCF13F01050E66EFC0EAA
:1057C000DBCFE9FFFD0EDBCFEAFFE552E750EF6EDE
:1057D000FC0EDB2AFD0E01E3DB2AFC0EDBCFE9FF2A
:1057E000FD0EDBCFEAFF440EEF6EFC0EDB2AFD0E52
:1057F00001E3DB2AFC0EDBCFE9FFFD0EDBCFEAFF86
:10580000660EEF6EFC0EDB2AFD0E01E3DB2AFC0EBA
:10581000DBCFE9FFFD0EDBCFEAFFCC0EEF6EFC0E17
:10582000DB2AFD0E01E3DB2AFC0EDBCFE9FFFD0ED8
:10583000DBCFEAFFC00EEF6EFC0EDB2AFD0E01E3AC
:10584000DB2AFC0EDBCFE9FFFD0EDBCFEAFF110EFA
:10585000EF6EFC0EDB2AFD0E01E3DB2AFC0EDBCF34
:10586000E9FFFD0EDBCFEAFF220EEF6EFC0EDB2A16
:10587000FD0E01E3DB2AFC0EDBCFE9FFFD0EDBCFE3
:10588000EAFF330EEF6EFC0EDB2AFD0E01E3DB2A8E
:10589000FC0EDBCFE9FFFD0EDBCFEAFF440EEF6E1F
:1058A000FC0EDB2AFD0E01E3DB2AFC0EDBCFE9FF59
:1058B000FD0EDBCFEAFF550EEF6EFC0EDB2AFD0E70
:1058C00001E3DB2AFC0EDBCFE9FFFD0EDBCFEAFFB5
:1058D000660EEF6EFC0EDB2AFD0E01E3DB2AFC0EEA
:1058E000DBCFE9FFFD0EDBCFEAFFEF6AFC0EDB2A20
:1058F000FD0E01E3DB2AFC0EDBCFE9FFFD0EDBCF63
:10590000EAFF880EEF6EFC0EDB2AFD0E01E3DB2AB8
:10591000FC0EDBCFE9FFFD0EDBCFEAFF990EEF6E49
:10592000FC0EDB2AFD0E01E3DB2AFC0EDBCFE9FFD8
:10593000FD0EDBCFEAFFAA0EEF6EFC0EDB2AFD0E9A
:1059400001E3DB2AFC0EDBCFE9FFFD0EDBCFEAFF34
:10595000BB0EEF6EFC0EDB2AFD0E01E3DB2AFC0E14
:10596000DBCFE9FFFD0EDBCFEAFFEF6AFC0EDB2A9F
:10597000FD0E01E3DB2AFC0EDBCFE9FFFD0EDBCFE2
:10598000EAFFEF6AFC0EDB2AFD0E01E3DB2A040EC0
:10599000DB6A040EDB50130815E3FC0EDBCFE9FFD6
:1059A000FD0EDBCFEAFF040EDBCFEFFFFC0EDBCFFB
:1059B000E9FFDB2AFD0EDBCFEAFF01E3DB2A040E61
:1059C000DB2AE7D7FC0EDBCFE9FFFD0EDBCFEAFFDA
:1059D000130EEF6EFC0EDB2AFD0E01E3DB2AFC0E3C
:1059E000DBCFE9FFFD0EDBCFEAFFEF6AFC0EDB2A1F
:1059F000FD0E01E3DB2AFA0EDBCF10F0FB0EDBCF4E
:105A000011F0000E10C0DBFF010E11C0DBFF020E13
:105A1000DB6A030EDB6AD9CFE9FFDACFEAFFEECF0C
:105A200010F0EECF11F0EECF12F0EFCF13F01050D8
:105A3000E66EFC0EDBCFE9FFFD0EDBCFEAFFE552A1
:105A4000E750EF6EFC0EDB2AFD0E01E3DB2AD9CF17
:105A5000E9FFDACFEAFF080EE76ED890030EEB32CB
:105A6000020EEB32010EEB32EF32E706F6E1D9CF50
:105A7000E9FFDACFEAFFEECF10F0EECF11F0EECF74
:105A800012F0EFCF13F01050E66EFC0EDBCFE9FF03
:105A9000FD0EDBCFEAFFE552E750EF6EFC0EDB2A8E
:105AA000FD0E01E3DB2AD9CFE9FFDACFEAFF080ECA
:105AB000E76ED890030EEB32020EEB32010EEB32A2
