:020000040000FA
:0600000048EF3AF0120087
:020006001200E6
:080008009EA402D0F5EF2EF0DA
:100010009EAA02D083EF36F09EA804D09DA802D0FD
:0600200007EF37F01200AB
:0A0026000400D8740000A00D0000D3
:1000300009000000D6740000B20D000002000000AC
:10004000D3740000AD0D000003000000C474000074
:08005000910D00000F000000FB
:08005800D9CFE6FFDACFE6FF85
:10006000E1CFD9FFE2CFDAFFE652E652E652E6529E
:10007000E652F10EDBCFE6FFF20EDBCFE6FFF80E25
:10008000DBCFE6FFF90EDBCFE6FF26EC0FF0E55203
:10009000E552E552E552DE52F3CFDEFFF4CFDDFF4D
:1000A000DD52D950010FE96E000EDA20EA6EEE50F3
:1000B000ED1001E11ED1010EDBCFE9FF020EDBCF17
:1000C000EAFF170EE926000EEA22030EEECFDBFF51
:1000D000040EEDCFDBFFF80EDBCF16F0F90EDBCF11
:1000E00017F01606000E175A010EDBCFE9FF020EBD
:1000F000DBCFEAFF170EE926000EEA221650EE24A7
:10010000146E1750EE20156E010EDBCFE9FF020EC4
:10011000DBCFEAFF1D0EE926000EEA2214C0EEFF37
:1001200015C0EDFFF80EDBCFE6FFF90EDBCFE6FFE3
:10013000EF0EDBCFE6FFF00EDBCFE6FFF50EDBCFF9
:10014000E6FFFA0EDBCFE6FFFB0EDBCFE6FF010E8C
:10015000DBCFE6FF020EDBCFE6FF04EC0DF0146E02
:10016000090EE15C02E2E16AE552E16E1450F60E1E
:10017000DBCFE6FFF70EDBCFE6FFFC0EDBCFE6FFC3
:10018000FD0EDBCFE6FF030EDBCFE6FF040EDBCF79
:10019000E6FF67EC2BF0166E060EE15C02E2E16A08
:1001A000E552E16E1650F3CF14F0F4CF15F0010EC6
:1001B000DBCFE9FF020EDBCFEAFF14C0EEFF15C074
:1001C000EDFFD950F30FE96EFF0EDA20EA6EEE5024
:1001D000ED100DE0F30EDBCFE9FFF40EDBCFEAFF0D
:1001E000010EDBCFEEFF020EDBCFEDFF00D0F250B1
:1001F000E66EF29E0D01942B0D01915192110DE1CD
:10020000010EDBCF91FD020EDBCF92FD0D019405B7
:1002100003E1FEEC0DF000D017D00D01985114E170
:1002200091CDE9FF92CDEAFF160EEB50146EF50E5C
:10023000DB50D880145407E3010EDBCF91FD020E92
:10024000DBCF92FD00D000D00D019C2B010EDBCF47
:10025000E9FF020EDBCFEAFF160EE926000EEA22C6
:10026000EFCF14F00D019751D88014540CE2010E19
:10027000DBCFE9FF020EDBCFEAFF160EE926000E08
:10028000EA22EFCF97FD010EDBCFE9FF020EDBCFB5
:10029000EAFF020EE926000EEA22E9CF14F0EACFC7
:1002A00015F014C0E6FF15C0E6FF010EDBCFE9FF35
:1002B000020EDBCFEAFF160EE926000EEA22EF500F
:1002C000090DF3CF16F0F4CF17F0000E16260F0E1F
:1002D000172216C0E6FF17C0E6FF70EC33F0E552B8
:1002E000E552E552E552010EDF6EE552E7BEF28EB1
:1002F00001D0DF68DF0412E10D0198510FE091CDCC
:10030000E9FF92CDEAFF160EEB50146EF50EDB50AE
:10031000145C03E21BEC2EF000D000D0DF5000D0C4
:10032000146E050EE15C02E2E16AE552E16E1450E2
:10033000E552E5CFDAFFE7CFD9FF1200D9CFE6FFCC
:10034000DACFE6FFE1CFD9FFE2CFDAFFE652E6529D
:10035000F250E66EF29ED950FC0FE96EFF0EDA20E5
:10036000EA6EEE50ED1005E191CD14F092CD15F04E
:1003700006D0FC0EDBCF14F0FD0EDBCF15F014C061
:10038000DEFF15C0DDFFDECFE9FFDDCFEAFF020EA5
:10039000E926000EEA22E9CF14F0EACF15F014C0E6
:1003A000E6FF15C0E6FFD2EC34F0E552E552000955
:1003B00001E100D0DECFE9FFDDCFEAFF0C0EE92638
:1003C000000EEA22080EE926000EEA22EE50ED1099
:1003D00015E0DECFE9FFDDCFEAFF0C0EE926000EC7
:1003E000EA22E9CF14F0EACF15F014C0E6FF15C0F9
:1003F000E6FFD2EC34F0E552E55200D0DECFE9FF63
:10040000DDCFEAFF020EE926000EEA22E9CF14F062
:10041000EACF15F014C0E6FF15C0E6FF430EE66E06
:100420000F0EE66E70EC33F0E552E552E552E55200
:100430000D01932B0D019C2BE552E7BEF28E0D01B1
:10044000985116E0DECF14F0DDCF15F00D0191517B
:10045000141802E19251151803E11BEC2EF008D09C
:10046000F250E66EF29EC3EC0FF0E552E7BEF28E5C
:10047000E552E552E552E5CFDAFFE7CFD9FF1200AA
:10048000D9CFE6FFDACFE6FFE1CFD9FFE2CFDAFF3F
:10049000060EE12402E3E168E652E16E030EDB6A38
:1004A00052EC06F0040E95CDDBFF050E96CDDBFF7A
:1004B000FA0EDBCF16F0FB0EDBCF17F0FC0EDBCF16
:1004C000E9FFFD0EDBCFEAFF1650EE24146E175045
:1004D000EE20156E14C0DEFF15C0DDFF040EDBCF6D
:1004E00014F0050EDBCF15F0FC0EDBCFE9FFFD0E9F
:1004F000DBCFEAFFEECF16F0EFCF17F01650145C0B
:100500001750155829E2DECF14F0DDCF15F0FC0EA0
:10051000DBCFE9FFFD0EDBCFEAFFEECF16F0EFCF2A
:1005200017F01650145C1750155815E2DECF18F06E
:10053000DDCF19F0040EDBCF1AF0050EDBCF1BF078
:1005400018501A5C19501B5806E2010EF36E030E88
:10055000F3CFDBFF00D028D0DECF14F0DDCF15F0D5
:10056000FC0EDBCFE9FFFD0EDBCFEAFFEECF16F08E
:10057000EFCF17F01650145C175015580FE3DECF6D
:1005800018F0DDCF19F0040EDBCF1AF0050EDBCF2B
:100590001BF018501A5C19501B5806E2010EF36E3E
:1005A000030EF3CFDBFF00D0FC0EDBCFE9FFFD0E27
:1005B000DBCFEAFFDECFEEFFDDCFEDFF030EDB503A
:1005C00020E091CDE9FF92CDEAFF020EE926000E70
:1005D000EA22E9CF14F0EACF15F014C0E6FF15C007
:1005E000E6FFD2EC34F0E552E552000901E100D01B
:1005F000DECFE6FFDDCFE6FFB6EC0EF0E552E552CA
:1006000000D053DBE76E020EE7CFDBFF020EDB50BC
:1006100003E11BEC2EF000D0060EE15C02E2E16A81
:10062000E552E16EE552E5CFDAFFE7CFD9FF1200E0
:10063000D9CFE6FFDACFE6FFE1CFD9FFE2CFDAFF8D
:10064000E652E652E652020EDB6AD950FC0FE96E22
:10065000FF0EDA20EA6E000ED880EE54000EED5444
:1006600036E220DBFC0EDB500D0195250001146EF7
:10067000FD0EDB500D0196210001156E14C0DEFF4A
:1006800015C0DDFF91CDE9FF92CDEAFF020EE9260C
:10069000000EEA22E9CF14F0EACF15F014C0E6FF0D
:1006A00015C0E6FFD2EC34F0E552E552000901E155
:1006B00000D0DECFE6FFDDCFE6FFB6EC0EF0E55270
:1006C000E552F3DAE76E020EE7CFDBFF00D0020E51
:1006D000DB5003E11BEC2EF000D0E552E552E55271
:1006E000E552E5CFDAFFE7CFD9FF1200D9CFE6FF19
:1006F000DACFE6FFE1CFD9FFE2CFDAFFE652E652EA
:10070000F250E66EF29ED950FC0FE96EFF0EDA2031
:10071000EA6EEE50ED1005E191CD14F092CD15F09A
:1007200006D0FC0EDBCF14F0FD0EDBCF15F014C0AD
:10073000DEFF15C0DDFFDECFE9FFDDCFEAFF020EF1
:10074000E926000EEA22E9CF14F0EACF15F014C032
:10075000E6FF15C0E6FFD2EC34F0E552E5520009A1
:1007600001E100D0DECFE9FFDDCFEAFF0C0EE92684
:10077000000EEA22080EE926000EEA22EE50ED10E5
:1007800015E0DECFE9FFDDCFEAFF0C0EE926000E13
:10079000EA22E9CF14F0EACF15F014C0E6FF15C045
:1007A000E6FFD2EC34F0E552E55200D0DECFE9FFAF
:1007B000DDCFEAFF020EE926000EEA22E9CF14F0AF
:1007C000EACF15F014C0E6FF15C0E6FF4C0EE66E4A
:1007D0000F0EE66E70EC33F0E552E552E552E5524D
:1007E000E552E7BEF28EDECF14F0DDCF15F00D013D
:1007F0009151141802E19251151812E10D0198510E
:1008000003E01BEC2EF00BD00D0194510F014C5D59
:1008100004E10D01916B926B02D0DDEC08F00CD07D
:100820000D01985109E0F250E66EF29EC3EC0FF014
:10083000E552E7BEF28E00D0E552E552E552E5CF33
:10084000DAFFE7CFD9FF1200D9CFE6FFDACFE6FF14
:10085000E1CFD9FFE2CFDAFFE652E652E652DF6A95
:10086000FC0EDBCF08F0FD0EDBCF09F0DE5208C036
:10087000DEFF09C0DDFFDD52010EDBCFE9FF020E16
:10088000DBCFEAFF020EE926000EEA22080EE92677
:10089000000EEA22EECF14F0EFCF15F04C0E141834
:1008A00002E10F0E15182EE1010EDBCFE9FF020E5B
:1008B000DBCFEAFF0C0EE926000EEA22080EE9263D
:1008C000000EEA22EECF14F0EFCF15F03A0E141816
:1008D00002E10F0E151815E0010EDBCFE9FF020E45
:1008E000DBCFEAFF0C0EE926000EEA22080EE9260D
:1008F000000EEA22EE50ED1003E1010EDF6E00D093
:1009000000D000D0DF5000D0E552E552E552E5526C
:10091000E5CFDAFFE7CFD9FF1200D9CFE6FFDACF74
:10092000E6FFE1CFD9FFE2CFDAFFE652E652FC0E56
:10093000DBCFDEFFDBCFDDFFD9CFE9FFDACFEAFF88
:10094000EE50ED1001E18BD0DECF14F0DDCF15F0CD
:100950000D019151141802E19251151801E17FD057
:10096000F250E66EF29EDECFE6FFDDCFE6FF6CDFF3
:10097000E552E55201086FE1DECFE9FFDDCFEAFF86
:10098000020EE926000EEA22E9CF14F0EACF15F0B4
:1009900014C0E6FF15C0E6FFD2EC34F0E552E55294
:1009A000DECFE9FFDDCFEAFF160EE926000EEA22D0
:1009B000EFCF14F00D019751D88014540AE2DECF26
:1009C000E9FFDDCFEAFF160EE926000EEA22EFCF9F
:1009D00097FDDECFE9FFDDCFEAFF020EE926000E2C
:1009E000EA22E9CF14F0EACF15F014C0E6FF15C0F3
:1009F000E6FFDECFE9FFDDCFEAFF160EE926000EA7
:100A0000EA22EF50090DF3CF16F0F4CF17F0000EE5
:100A100016260F0E172216C0E6FF17C0E6FF70EC71
:100A200033F0E552E552E552E552DECFE9FFDDCF86
:100A3000EAFF160EE926000EEA22EFCF14F091CD60
:100A4000E9FF92CDEAFF160EEB50145C03E31BECBA
:100A50002EF000D000D0E552E7BEF28E00D0E55275
:100A6000E552E552E5CFDAFFE7CFD9FF1200D9CF43
:100A7000E6FFDACFE6FFE1CFD9FFE2CFDAFFE652B9
:100A8000E652E652E652DF6AFC0EDBCF08F0FD0EBE
:100A9000DBCF09F0DE5208C0DEFF09C0DDFFDD520A
:100AA000030EDB6A010EDBCFE6FF020EDBCFE6FFB3
:100AB000CBDEE552E552010801E09CD00D019F51CB
:100AC00001E07BD0010EDBCFE9FF020EDBCFEAFFB6
:100AD000160EE926000EEA22EFCF14F091CDE9FFC1
:100AE00092CDEAFF160EEB50145C03E3010EDF6EAD
:100AF00000D0010EDBCFE9FF020EDBCFEAFF020ED2
:100B0000E926000EEA22E9CF14F0EACF15F014C06E
:100B1000E6FF15C0E6FFD2EC34F0E552E552010ED7
:100B2000DBCFE9FF020EDBCFEAFF160EE926000E4F
:100B3000EA22EFCF14F00D019751D88014540CE243
:100B4000010EDBCFE9FF020EDBCFEAFF160EE9262E
:100B5000000EEA22EFCF97FD010EDBCFE9FF020E78
:100B6000DBCFEAFF020EE926000EEA22E9CF14F0FD
:100B7000EACF15F014C0E6FF15C0E6FF010EDBCF8B
:100B8000E9FF020EDBCFEAFF160EE926000EEA228D
:100B9000EF50090DF3CF16F0F4CF17F0000E162624
:100BA0000F0E172216C0E6FF17C0E6FF70EC33F0F9
:100BB000E552E552E552E5521CD0010EDBCFE9FFCC
:100BC000020EDBCFEAFF0C0EE926000EEA22E9CF87
:100BD00014F0EACF15F014C0E6FF15C0E6FF3A0E98
:100BE000E66E0F0EE66E70EC33F0E552E552E5521C
:100BF000E55200D0DF5000D0146E040EE15C02E23A
:100C0000E16AE552E16E1450E552E5CFDAFFE7CF35
:100C1000D9FF1200D9CFE6FFDACFE6FFE1CFD9FF47
:100C2000E2CFDAFFE652000EE66EE66A000EE66EEE
:100C3000E66A000EE66EE66AE66A000EE66EE66AB0
:100C4000800EE66EE66AAC0EE66E740EE66EDA0EA6
:100C5000E66E190EE66E2CEC00F0146E0F0EE15CE1
:100C600002E2E16AE552E16E1450DF6EDF040DE14D
:100C7000F29E0D01010E986F0D01956B966BA9EC1C
:100C80002DF0000901E000D000D0E552E552E5CF9B
:100C9000DAFFE7CFD9FF1200F29E0D01986B1AEC34
:100CA0002EF012000D019F2B1200D9CFE6FFDACFF4
:100CB000E6FFE1CFD9FFE2CFDAFFE652E652E65295
:100CC000020EDB6AF250E66EF29E0D019F070D01E7
:100CD0009F5101E0B8D00D019451000801E3B2D05A
:100CE0000F013A5101E190D03FCFE9FF40CFEAFF39
:100CF000060EE926000EEA22EECFDEFFEDCFDDFF85
:100D0000DECFE9FFDDCFEAFF0C0EE926000EEA2276
:100D1000E9CF14F0EACF15F014C0E6FF15C0E6FFE6
:100D2000D2EC34F0E552E552DECFE9FFDDCFEAFF49
:100D3000020EE926000EEA22E9CF14F0EACF15F000
:100D400014C0E6FF15C0E6FFD2EC34F0E552E552E0
:100D5000DECFE9FFDDCFEAFF160EE926000EEA221C
:100D6000EFCF14F00D019751D88014540AE2DECF72
:100D7000E9FFDDCFEAFF160EE926000EEA22EFCFEB
:100D800097FDDECFE9FFDDCFEAFF020EE926000E78
:100D9000EA22E9CF14F0EACF15F014C0E6FF15C03F
:100DA000E6FFDECFE9FFDDCFEAFF160EE926000EF3
:100DB000EA22EF50090DF3CF16F0F4CF17F0000E32
:100DC00016260F0E172216C0E6FF17C0E6FF70ECBE
:100DD00033F0E552E552E552E552DECFE9FFDDCFD3
:100DE000EAFF160EE926000EEA22EFCF14F091CDAD
:100DF000E9FF92CDEAFF160EEB50145C04E30D01FF
:100E0000010E9A6F00D06CD70D01995100080FE2C6
:100E10000D01995100080AE271D8000904E00D01A2
:100E2000010E9A6F00D00D019907F2D700D00D0185
:100E30009A0508E1010EF36E020EF3CFDBFF1BEC07
:100E40002EF000D000D0E552E7BEF28E020EDB504D
:100E500000D0E552E552E552E552E5CFDAFFE7CFA3
:100E6000D9FF1200D9CFE6FFDACFE6FFE1CFD9FFF5
:100E7000E2CFDAFFE652E652F250E66EF29E95CDF0
:100E8000DEFF96CDDDFFE552E7BEF28EDECF14F039
:100E9000DDCF15F014C0F3FF15C0F4FF00D0E5520C
:100EA000E552E552E5CFDAFFE7CFD9FF1200D9CFFF
:100EB000E6FFDACFE6FFE1CFD9FFE2CFDAFFE65275
:100EC000E652E652020EDB6A95CDDEFF96CDDDFFDF
:100ED000DECF14F0DDCF15F014C0F3FF15C0F4FF22
:100EE00000D0E552E552E552E552E5CFDAFFE7CF13
:100EF000D9FF12000D01945100D01200D9CFE6FFA6
:100F0000DACFE6FFE1CFD9FFE2CFDAFF090EE12425
:100F100002E3E168E652E16E040EDB6A0D019F51C7
:100F200001E02FD10D01952B000E9623050E95CDD6
:100F3000DBFF060E96CDDBFFD950050FE96E000EE4
:100F4000DA20EA6EEE50ED1015E1070E36CFDBFF2A
:100F5000080E37CFDBFF38CF36FF39CF37FF070E0C
:100F6000DBCF38FF080EDBCF39FF0D019B2BC3EC25
:100F70000FF000D0050EDBCF14F0060EDBCF15F01E
:100F80000D019D51145C9E51155801E2E1D036CF00
:100F9000E9FF37CFEAFFEF50000905E10D019D6938
:100FA0009E69D6D0D4D036CFE9FF37CFEAFF030E03
:100FB000E926000EEA22020EE926000EEA22EE5091
:100FC000EFCFEAFFE96E060EE926000EEA22EECF29
:100FD000DEFFEDCFDDFFDECFE9FFDDCFEAFF020E62
:100FE000E926000EEA22020EEECFDBFF030EEDCF64
:100FF000DBFF050EDBCF14F0060EDBCF15F0020E83
:10100000DBCF16F0030EDBCF17F01650145C175031
:10101000155808E2020EDBCF9DFD030EDBCF9EFDCF
:1010200097D000D0DECFE9FFDDCFEAFF020EE92640
:10103000000EEA22E9CF14F0EACF15F014C0E6FF63
:1010400015C0E6FFD2EC34F0E552E552DECFE9FF01
:10105000DDCFEAFF0C0EE926000EEA22080EE92693
:10106000000EEA22EE50ED1015E0DECFE9FFDDCFF5
:10107000EAFF0C0EE926000EEA22E9CF14F0EACFCF
:1010800015F014C0E6FF15C0E6FFD2EC34F0E552CF
:10109000E55200D0DECFE9FFDDCFEAFF160EE926EC
:1010A000000EEA22EFCF14F00D019751D8801454AE
:1010B0000AE2DECFE9FFDDCFEAFF160EE926000ED9
:1010C000EA22EFCF97FDDECFE9FFDDCFEAFF020E88
:1010D000E926000EEA22E9CF14F0EACF15F014C099
:1010E000E6FF15C0E6FFDECFE9FFDDCFEAFF160E13
:1010F000E926000EEA22EF50090DF3CF16F0F4CFE7
:1011000017F0000E16260F0E172216C0E6FF17C0A6
:10111000E6FF70EC33F0E552E552E552E552DECFE2
:10112000E9FFDDCFEAFF160EE926000EEA22EFCF37
:1011300014F091CDE9FF92CDEAFF160EEB50145C4E
:1011400006E3010EF36E040EF3CFDBFF00D01FD7D2
:1011500091CDE9FF92CDEAFF160EEB50090DF3CFCA
:10116000E9FFF4CFEAFF000EE9260F0EEA22EF5066
:10117000010806E2010EF36E040EF3CFDBFF00D090
:1011800002D00D01992B0D019A5106E0010EF36E6C
:10119000040EF3CFDBFF00D0040EDB5000D0146E42
:1011A000090EE15C02E2E16AE552E16E1450E5529B
:1011B000E5CFDAFFE7CFD9FF1200D9CFE6FFDACFCC
:1011C000E6FFE1CFD9FFE2CFDAFFE652E6520D01AA
:1011D0009F5104E00D01010E9A6F81D00D019A6BB1
:1011E0000D019751090DF3CFE9FFF4CFEAFF000E8F
:1011F000E9260F0EEA22EF5003E10D019707F0D721
:101200000D019751090DF3CF14F0F4CF15F0000E36
:1012100014260F0E152214C0DEFF15C0DDFFDECF31
:10122000E9FFDDCFEAFFEE52EE50EFCFEAFFE96EC5
:10123000020EE926000EEA22EECF14F0EFCF15F0F1
:10124000DECFE9FFDDCFEAFFEE5214C0EEFF15C09E
:10125000EDFFDECFE9FFDDCFEAFFEE52EECF14F077
:10126000EFCF15F0DECFE9FFDDCFEAFF030EE92671
:10127000000EEA22E9CF16F0EACF17F01650141844
:1012800002E1175015181AE1DECFE9FFDDCFEAFFC2
:10129000EE52EE50EFCFEAFFE96E020EE926000EA5
:1012A000EA22EECF14F0EFCF15F0DECFE9FFDDCF6D
:1012B000EAFFEE5214C0EEFF15C0EDFFDECFE9FFEE
:1012C000DDCFEAFFEE52EE50EFCFEAFFE96E060EF9
:1012D000E926000EEA22EECF91FDEDCF92FDE55218
:1012E000E552E552E5CFDAFFE7CFD9FF1200D9CFBB
:1012F000E6FFDACFE6FFE1CFD9FFE2CFDAFFE65231
:10130000E65291CDE9FF92CDEAFF0C0EE926000EE0
:10131000EA22E9CF14F0EACF15F014C0E6FF15C0B9
:10132000E6FFFC0EDBCFE6FFFD0EDBCFE6FFF0ECC9
:1013300033F0E552E552E552E55291CDE9FF92CD09
:10134000EAFF020EE926000EEA22E9CF14F0EACF06
:1013500015F014C0E6FF15C0E6FFD2EC34F0E552FC
:10136000E552000901E100D0D950FA0FE96EFF0EF5
:10137000DA20EA6EFF0EEE1802E1FF0EED181BE117
:1013800091CDE9FF92CDEAFF020EE926000EEA2296
:10139000E9CF14F0EACF15F014C0E6FF15C0E6FF60
:1013A0004C0EE66E0F0EE66E70EC33F0E552E55231
:1013B000E552E55218D0FA0EDB500D0195250001DB
:1013C000146EFB0EDB500D0196210001156E14C04A
:1013D000DEFF15C0DDFFDECFE6FFDDCFE6FFB6ECBA
:1013E0000EF0E552E552E552E552E552E5CFDAFF5F
:1013F000E7CFD9FF1200D9CFE6FFDACFE6FFE1CF82
:10140000D9FFE2CFDAFFE652E652FA0EDBCF14F054
:10141000FB0EDBCF15F01450800E151291CDE9FFB5
:1014200092CDEAFF0C0EE926000EEA2214C0EEFF70
:1014300015C0EDFF91CDE9FF92CDEAFF0C0EE92634
:10144000000EEA22E9CF14F0EACF15F014C0E6FF4F
:1014500015C0E6FFFC0EDBCFE6FFFD0EDBCFE6FF9F
:1014600070EC33F0E552E552E552E55291CDE9FFDB
:1014700092CDEAFF020EE926000EEA22E9CF14F02F
:10148000EACF15F014C0E6FF15C0E6FFD2EC34F049
:10149000E552E552000901E100D0D950F80FE96E9C
:1014A000FF0EDA20EA6EFF0EEE1802E1FF0EED18D5
:1014B0001BE191CDE9FF92CDEAFF020EE926000E75
:1014C000EA22E9CF14F0EACF15F014C0E6FF15C008
:1014D000E6FF4C0EE66E0F0EE66E70EC33F0E55252
:1014E000E552E552E55218D0F80EDB500D01952576
:1014F0000001146EF90EDB500D0196210001156EEE
:1015000014C0DEFF15C0DDFFDECFE6FFDDCFE6FF56
:10151000B6EC0EF0E552E552E552E552E552E5CF64
:10152000DAFFE7CFD9FF1200D9CFE6FFDACFE6FF27
:10153000E1CFD9FFE2CFDAFFE652E652E652FC0EE7
:10154000DBCFE9FFFD0EDBCFEAFF030EE926000E3D
:10155000EA22020EE926000EEA22EE50EFCFEAFF61
:10156000E96E060EE926000EEA22EECFDEFFEDCF91
:10157000DDFFDECFE9FFDDCFEAFF0C0EE926000E2E
:10158000EA22E9CF14F0EACF15F014C0E6FF15C047
:10159000E6FFD2EC34F0E552E5520D019F515AE1DD
:1015A000DECFE9FFDDCFEAFF020EE926000EEA22D8
:1015B000E9CF14F0EACF15F014C0E6FF15C0E6FF3E
:1015C000D2EC34F0E552E552DECFE9FFDDCFEAFFA1
:1015D000160EE926000EEA22EFCF14F00D01975106
:1015E000D88014540AE2DECFE9FFDDCFEAFF160E01
:1015F000E926000EEA22EFCF97FDDECFE9FFDDCF2F
:10160000EAFF020EE926000EEA22E9CF14F0EACF43
:1016100015F014C0E6FF15C0E6FFDECFE9FFDDCF11
:10162000EAFF160EE926000EEA22EF50090DF3CF6D
:1016300016F0F4CF17F0000E16260F0E172216C064
:10164000E6FF17C0E6FF70EC33F0E552E552E552D5
:10165000E5521AD0DECFE9FFDDCFEAFF0C0EE92616
:10166000000EEA22E9CF14F0EACF15F014C0E6FF2D
:1016700015C0E6FF3A0EE66E0F0EE66E70EC33F024
:10168000E552E552E552E552DECFE9FFDDCFEAFF54
:10169000160EE926000EEA22EFCF14F091CDE9FFF5
:1016A00092CDEAFF160EEB50D880145409E2010ED9
:1016B000F36E020EF3CFDBFF0D01010E9A6F02D025
:1016C000020EDB6A020EDB5000D0E552E552E55215
:1016D000E552E5CFDAFFE7CFD9FF1200D9CFE6FF19
:1016E000DACFE6FFE1CFD9FFE2CFDAFFE652E652EA
:1016F000E652FA0EDBCF14F0FB0EDBCF15F01450E0
:10170000800E1512FC0EDBCFE9FFFD0EDBCFEAFFEA
:1017100014C0EEFF15C0EDFFFC0EDBCFE9FFFD0EA0
:10172000DBCFEAFF060EE926000EEA22EECFDEFF4F
:10173000EDCFDDFFFC0EDBCFE6FFFD0EDBCFE6FFDE
:10174000D2EC34F0E552E552DECFE9FFDDCFEAFF1F
:10175000020EE926000EEA22E9CF14F0EACF15F0D6
:1017600014C0E6FF15C0E6FFD2EC34F0E552E552B6
:10177000DECFE9FFDDCFEAFF160EE926000EEA22F2
:10178000EFCF14F00D019751D88014540AE2DECF48
:10179000E9FFDDCFEAFF160EE926000EEA22EFCFC1
:1017A00097FDDECFE9FFDDCFEAFF020EE926000E4E
:1017B000EA22E9CF14F0EACF15F014C0E6FF15C015
:1017C000E6FFDECFE9FFDDCFEAFF160EE926000EC9
:1017D000EA22EF50090DF3CF16F0F4CF17F0000E08
:1017E00016260F0E172216C0E6FF17C0E6FF70EC94
:1017F00033F0E552E552E552E552DECFE9FFDDCFA9
:10180000EAFF160EE926000EEA22EFCF14F091CD82
:10181000E9FF92CDEAFF160EEB50D880145409E28E
:10182000010EF36E020EF3CFDBFF0D01010E9A6F76
:1018300002D0020EDB6A020EDB5000D0E552E55208
:10184000E552E552E5CFDAFFE7CFD9FF1200D9CF55
:10185000E6FFDACFE6FFE1CFD9FFE2CFDAFFFC0EF9
:10186000DBCFE9FFFD0EDBCFEAFF9BCDEFFFFC0EE8
:10187000DBCFE9FFFD0EDBCFEAFFEE5295CDEEFFA9
:1018800096CDEDFFE552E5CFDAFFE7CFD9FF1200A5
:10189000D9CFE6FFDACFE6FFE1CFD9FFE2CFDAFF1B
:1018A000E652E652E652F250E66EF29E010E95CDF9
:1018B000DBFF020E96CDDBFFFA0EDBCFE9FFFB0E5E
:1018C000DBCFEAFFFF0EEE1802E1FF0EED1802E19A
:1018D000DF6A71D0FC0EDBCFE9FFFD0EDBCFEAFF44
:1018E000EF500D019B5D1BE0010EDBCF14F0020EEB
:1018F000DBCF15F0FC0EDBCFE9FFFD0EDBCFEAFFFF
:10190000EECF16F0EECF17F0EFCF18F00001175022
:10191000145C1850155803E3010EDF6E4CD0010E15
:10192000DBCF16F0020EDBCF17F0FC0EDBCFE9FFAA
:10193000FD0EDBCFEAFFEE52EE50165C146EEE5059
:101940001758156EFA0EDBCFE9FFFB0EDBCFEAFF6F
:10195000EECF18F0EFCF19F01850145C195015584D
:1019600028E2010EDBCF16F0020EDBCF17F0FC0EE3
:10197000DBCFE9FFFD0EDBCFEAFFEE52EE50165C47
:10198000146EEE501758156EFA0EDBCFE9FFFB0E02
:10199000DBCFEAFF1450EE5E1550ED5AFC0EDBCFA4
:1019A000E6FFFD0EDBCFE6FF52DFE552E552DF6AD0
:1019B00002D0010EDF6EE552E7BEF28EDF5000D09E
:1019C000E552E552E552E552E5CFDAFFE7CFD9FF20
:1019D00012000D01010E9A6F1200D9CFE6FFDACF87
:1019E000E6FFE1CFD9FFE2CFDAFF62D90F01005164
:1019F000010803E21BEC2EF000D0F7D7E552E5CF4B
:101A0000DAFFE7CFD9FF1200D9CFE6FFDACFE6FF42
:101A1000E1CFD9FFE2CFDAFFE652DF6A040EDF5CE6
:101A200038E2DF50E76EFA0EDBCFE9FFFB0EDBCFCB
:101A3000EAFFE750E926000EEA22EF50E66EFC0EC0
:101A4000DBCFE9FFFD0EDBCFEAFF190EE926000E22
:101A5000EA22E9CF14F0EACF15F0DF500F01142489
:101A6000E96E000E1520EA6EE552E750EF6EDF508A
:101A7000E76EFA0EDBCFE9FFFB0EDBCFEAFFE750A4
:101A8000E926000EEA22EF5002E103D000D0DF2A5F
:101A9000C5D7FC0EDBCFE9FFFD0EDBCFEAFF190E49
:101AA000E926000EEA22030EE926000EEA22EF6A7A
:101AB000040EF36EF90EDBCFF4FFF350F45C06E393
:101AC000030EF36EF90EF3CFDBFF00D0FC0EDBCF7D
:101AD000E9FFFD0EDBCFEAFF160EE926000EEA2233
:101AE000F90EDBCFEFFFFC0EDBCFE9FFFD0EDBCF06
:101AF000EAFF020EE926000EEA22E9CF14F0EACF4F
:101B000015F014C0E6FF15C0E6FF58EC33F0E552BF
:101B1000E552FC0EDBCFE9FFFD0EDBCFEAFF0C0E3A
:101B2000E926000EEA22E9CF14F0EACF15F014C03E
:101B3000E6FF15C0E6FF58EC33F0E552E552FC0E27
:101B4000DBCFE9FFFD0EDBCFEAFF020EE926000E38
:101B5000EA22060EE926000EEA22FC0EDBCFEEFF9B
:101B6000FD0EDBCFEDFFF90EDB50146E156A040E8F
:101B7000D8801456000E1556FC0EDBCFE9FFFD0E83
:101B8000DBCFEAFF0C0EE926000EEA2214C0EEFFBE
:101B900015C0EDFFFC0EDBCFE9FFFD0EDBCFEAFF4A
:101BA0000C0EE926000EEA22060EE926000EEA22B5
:101BB000FC0EDBCFEEFFFD0EDBCFEDFFFC0EDBCF2F
:101BC000E9FFFD0EDBCFEAFF1F0EE926000EEA2239
:101BD000EE6AEE6AEE6AEE6AFC0EDBCFE9FFFD0EFE
:101BE000DBCFEAFF230EE926000EEA22EF6AE55278
:101BF000E552E5CFDAFFE7CFD9FF1200D9CFE6FFF4
:101C0000DACFE6FFE1CFD9FFE2CFDAFFE652DF6AB3
:101C1000040EDF5C14E2DF50090DF3CF14F0F4CFB3
:101C200015F0000E14260F0E152214C0E6FF15C085
:101C3000E6FFDEEC32F0E552E552DF2AE9D7240E6A
:101C4000E66E0F0EE66EDEEC32F0E552E5522D0E3A
:101C5000E66E0F0EE66EDEEC32F0E552E5523A0E1D
:101C6000E66E0F0EE66EDEEC32F0E552E552430E04
:101C7000E66E0F0EE66EDEEC32F0E552E5524C0EEB
:101C8000E66E0F0EE66EDEEC32F0E552E5520F0125
:101C9000240E366F0F0E376F0F012D0E386F0F0E9B
:101CA000396FE552E552E5CFDAFFE7CFD9FF1200F1
:101CB000D9CFE6FFDACFE6FFE1CFD9FFE2CFDAFFF7
:101CC000E652E652E6520D019351000846E252EC0C
:101CD00006F00F01435102E0000E01D0010EDF6E4D
:101CE00055EC06F0DF5038E1F250E66EF29E48CF38
:101CF000E9FF49CFEAFF060EE926000EEA22010EAF
:101D0000EECFDBFF020EEDCFDBFF010EDBCFE9FFF5
:101D1000020EDBCFEAFF020EE926000EEA22E9CF2F
:101D200014F0EACF15F014C0E6FF15C0E6FFD2ECC0
:101D300034F0E552E5520D0194070D019307E55289
:101D4000E7BEF28E010EDBCFE6FF020EDBCFE6FF31
:101D5000F0D8E552E55200D0B6D7E552E552E5524B
:101D6000E552E5CFDAFFE7CFD9FF1200D9CFE6FF82
:101D7000DACFE6FFE1CFD9FFE2CFDAFF91CDE9FF7D
:101D800092CDEAFF020EE926000EEA22FC0EDBCF1E
:101D9000EEFFFD0EDBCFEDFFFC0EDBCF14F0FD0EF2
:101DA000DBCF15F00D019551145C965115581BE2CF
:101DB00091CDE9FF92CDEAFF020EE926000EEA225C
:101DC000E9CF14F0EACF15F014C0E6FF15C0E6FF26
:101DD00038CFE6FF39CFE6FFF0EC33F0E552E552BD
:101DE000E552E5522DD091CDE9FF92CDEAFF020EEA
:101DF000E926000EEA22E9CF14F0EACF15F014C06C
:101E0000E6FF15C0E6FF36CFE6FF37CFE6FFF0EC82
:101E100033F0E552E552E552E552FC0EDBCF14F00B
:101E2000FD0EDBCF15F00D019D51145C9E51155830
:101E300007E2FC0EDBCF9DFDFD0EDBCF9EFD00D04B
:101E4000E552E5CFDAFFE7CFD9FF1200D9CFE6FFA1
:101E5000DACFE6FFE1CFD9FFE2CFDAFFE652E65272
:101E6000240EE66EE66AE6EC38F0E552E552F3CF72
:101E7000DEFFF4CFDDFFD9CFE9FFDACFEAFFEE5086
:101E8000ED103FE0D950FA0FE96EFF0EDA20EA6E4E
:101E9000EE50ED100FE1FC0EDBCFE6FFFD0EDBCFC9
:101EA000E6FFE6EC38F0E552E552F3CF14F0F4CF5C
:101EB00015F006D0FA0EDBCF14F0FB0EDBCF15F0D9
:101EC000DECFE9FFDDCFEAFF170EE926000EEA229A
:101ED00014C0EEFF15C0EDFFDECFE9FFDDCFEAFF56
:101EE000170EE926000EEA22EE50ED100AE1DECFD1
:101EF000E6FFDDCFE6FF42EC39F0E552E552DE6A5F
:101F0000DD6AD9CFE9FFDACFEAFFEE50ED1000E04D
:101F1000DECF14F0DDCF15F014C0F3FF15C0F4FFD1
:101F200000D0E552E552E552E5CFDAFFE7CFD9FF21
:101F30001200D9CFE6FFDACFE6FFE1CFD9FFE2CF3B
:101F4000DAFFFC0EDBCFE9FFFD0EDBCFEAFF170E59
:101F5000E926000EEA22EECFE6FFEFCFE6FF42ECE5
:101F600039F0E552E552FC0EDBCFE6FFFD0EDBCF8C
:101F7000E6FF42EC39F0E552E552E552E5CFDAFFF3
:101F8000E7CFD9FF1200D9CFE6FFDACFE6FFE1CFE6
:101F9000D9FFE2CFDAFFE652E65236CFE9FF37CF7C
:101FA000EAFFEF50000904E10D019D699E6924D00C
:101FB00036CFE9FF37CFEAFF030EE926000EEA220B
:101FC000020EE926000EEA22EE50EFCFEAFFE96E9C
:101FD000060EE926000EEA22EECFDEFFEDCFDDFF92
:101FE000DECFE9FFDDCFEAFF020EE926000EEA228E
:101FF000EECF9DFDEDCF9EFDE552E552E552E5CFDA
:10200000DAFFE7CFD9FF1200D9CFE6FFDACFE6FF3C
:10201000E1CFD9FFE2CFDAFFE652E65291CDE9FFF8
:1020200092CDEAFF0C0EE926000EEA22EECFDEFF8B
:10203000EDCFDDFF91CDE9FF92CDEAFF160EEB501B
:10204000146E156A040ED8801456000E155691CDE4
:10205000E9FF92CDEAFF0C0EE926000EEA2214C039
:10206000EEFF15C0EDFFDECF14F0DDCF15F014C08C
:10207000F3FF15C0F4FF00D0E552E552E552E5CF7D
:10208000DAFFE7CFD9FF1200D9CFE6FFDACFE6FFBC
:10209000E1CFD9FFE2CFDAFF060EE12402E3E168E7
:1020A000E652E16EF250E66EF29E91CDE9FF92CDDE
:1020B000EAFF1F0EE926000EEA22EECF14F0EECF63
:1020C00015F0EECF16F0EFCF17F0145015101610D4
:1020D00017106FE191CDE9FF92CDEAFF230EE926BB
:1020E000000EEA22010EEF6ED950FB0FE96EFF0ED3
:1020F000DA20EA6E000ED880EE54000EED5458E25D
:1021000091CDE9FF92CDEAFF020EE926000EEA2208
:10211000E9CF14F0EACF15F014C0E6FF15C0E6FFD2
:10212000D2EC34F0E552E552000901E100D0D9507B
:10213000FB0FE96EFF0EDA20EA6EFF0EEE1802E1E9
:10214000FF0EED181BE191CDE9FF92CDEAFF020EE3
:10215000E926000EEA22E9CF14F0EACF15F014C008
:10216000E6FF15C0E6FF4C0EE66E0F0EE66E70EC55
:1021700033F0E552E552E552E55217D0FB0EDB5045
:102180000D0195250001146EFC0EDB500D0196210A
:102190000001156E14C0DEFF15C0DDFFDECFE6FFC7
:1021A000DDCFE6FFE3DDE552E5521BEC2EF000D07B
:1021B00000D0E552E7BEF28EF250E66EF29E91CD6F
:1021C000E9FF92CDEAFF1F0EE926000EEA22020E79
:1021D000EECFDBFF030EEECFDBFF040EEECFDBFF17
:1021E000050EEECFDBFF020EDBCF14F0030EDBCFCC
:1021F00015F0040EDBCF16F0050EDBCF17F01450F0
:102200001510161017101EE0FD0EDB500DE091CDDD
:10221000E9FF92CDEAFF1F0EE926000EEA22EE6AE0
:10222000EE6AEE6AEE6A0DD091CDE9FF92CDEAFF3B
:102230001F0EE926000EEA22EE06000EEE5AEE5AB6
:10224000EE5A00D091CDE9FF92CDEAFF230EE926A8
:10225000000EEA22EF6AE552E7BEF28E020EDBCFF5
:1022600014F0030EDBCF15F0040EDBCF16F0050ED5
:10227000DBCF17F014C006F015C007F016C008F049
:1022800017C009F000D0060EE15C02E2E16AE552F7
:10229000E16EE552E5CFDAFFE7CFD9FF1200D9CFE3
:1022A000E6FFDACFE6FFE1CFD9FFE2CFDAFFE65271
:1022B000E652E652F250E66EF29E91CDE9FF92CDE3
:1022C000EAFF230EEB50020801E18FD0FA0EDBCFBC
:1022D00014F0FB0EDBCF15F0FC0EDBCF16F0FD0E7D
:1022E000DBCF17F0141E151E161E171E91CDE9FF29
:1022F00092CDEAFF1F0EE926000EEA221450EE16D8
:102300001550EE161650EE161750EE1691CDE9FF49
:1023100092CDEAFF230EE926000EEA22010EEF6EAF
:10232000D950F20FE96EFF0EDA20EA6E000ED88067
:10233000EE54000EED5458E291CDE9FF92CDEAFF44
:10234000020EE926000EEA22E9CF14F0EACF15F0DA
:1023500014C0E6FF15C0E6FFD2EC34F0E552E552BA
:10236000000901E100D0D950F20FE96EFF0EDA202A
:10237000EA6EFF0EEE1802E1FF0EED181BE191CDA3
:10238000E9FF92CDEAFF020EE926000EEA22E9CF2C
:1023900014F0EACF15F014C0E6FF15C0E6FF4C0EAE
:1023A000E66E0F0EE66E70EC33F0E552E552E55244
:1023B000E55217D0F20EDB500D0195250001146E89
:1023C000F30EDB500D0196210001156E14C0DEFFE7
:1023D00015C0DDFFDECFE6FFDDCFE6FFC7DCE5524F
:1023E000E5521BEC2EF000D000D0E552E7BEF28E95
:1023F000F250E66EF29ED950F40FE96EFF0EDA202D
:10240000EA6EEE50ED101EE091CDE9FF92CDEAFFAD
:102410001F0EE926000EEA22EECF14F0EECF15F0E3
:10242000EECF16F0EFCF17F0F40EDBCFE9FFF50E8D
:10243000DBCFEAFF14C0EEFF15C0EEFF16C0EEFFC3
:1024400017C0EEFF91CDE9FF92CDEAFF230EEB50CE
:10245000010803E1020EDB6A25D0F60EDBCF14F093
:10246000F70EDBCF15F0F80EDBCF16F0F90EDBCF51
:1024700017F0141E151E161E171E91CDE9FF92CDE2
:10248000EAFF1F0EE926000EEA221450EE16155040
:10249000EE161650EE161750EE16010EF36E020EE3
:1024A000F3CFDBFF91CDE9FF92CDEAFF230EE926C2
:1024B000000EEA22EF6AE552E7BEF28E020EDB5012
:1024C00000D0E552E552E552E552E5CFDAFFE7CF1D
:1024D000D9FF1200D9CFE6FFDACFE6FFE1CFD9FF6F
:1024E000E2CFDAFFE652E652E652E652010EF36E12
:1024F000030EF3CFDBFFFC0EDBCFDEFFDBCFDDFF18
:10250000F250E66EF29EDECFE9FFDDCFEAFF230E4A
:10251000E926000EEA22020EEFCFDBFFDECFE9FF55
:10252000DDCFEAFF230EE926000EEA22020EEF6E4F
:10253000F70EDB505DE0040A3FE0070A28E0010ADD
:1025400018E0030A01E055D0DECFE9FFDDCFEAFF56
:102550001F0EE926000EEA22F80EDB50EE12F90EED
:10256000DB50EE12FA0EDB50EE12FB0EDB50EE12D9
:1025700040D0DECFE9FFDDCFEAFF1F0EE926000ED7
:10258000EA22EE2A000EEE22EE22EE2232D0DECF3A
:10259000E9FFDDCFEAFF1F0EE926000EEA22F80E62
:1025A000DBCFEEFFF90EDBCFEEFFFA0EDBCFEEFF57
:1025B000FB0EDBCFEEFF1DD0020EDB50020815E054
:1025C000DECFE9FFDDCFEAFF1F0EE926000EEA228B
:1025D000F80EDBCFEEFFF90EDBCFEEFFFA0EDBCF0E
:1025E000EEFFFB0EDBCFEEFF02D0030EDB6A01D065
:1025F00000D0020EDB0470E1DECFE9FFDDCFEAFFA1
:10260000020EE926000EEA22E9CF14F0EACF15F017
:1026100014C0E6FF15C0E6FFD2EC34F0E552E552F7
:10262000DECFE9FFDDCFEAFF160EE926000EEA2233
:10263000EFCF14F00D019751D88014540AE2DECF89
:10264000E9FFDDCFEAFF160EE926000EEA22EFCF02
:1026500097FDDECFE9FFDDCFEAFF020EE926000E8F
:10266000EA22E9CF14F0EACF15F014C0E6FF15C056
:10267000E6FFDECFE9FFDDCFEAFF160EE926000E0A
:10268000EA22EF50090DF3CF16F0F4CF17F0000E49
:1026900016260F0E172216C0E6FF17C0E6FF70ECD5
:1026A00033F0E552E552E552E552DECFE9FFDDCFEA
:1026B000EAFF160EE926000EEA22EFCF14F091CDC4
:1026C000E9FF92CDEAFF160EEB50D880145403E2D6
:1026D0001BEC2EF000D000D0E552E7BEF28E030EC8
:1026E000DB5000D0146E040EE15C02E2E16AE552B8
:1026F000E16E1450E552E5CFDAFFE7CFD9FF1200C3
:10270000D9CFE6FFDACFE6FFE1CFD9FFE2CFDAFF9C
:10271000E652E652E652E652E652010EF36E030E20
:10272000F3CFDBFFFC0EDBCFDEFFDBCFDDFF040EE4
:10273000DB6ADECFE9FFDDCFEAFF230EE926000EDC
:10274000EA22020EEFCFDBFFDECFE9FFDDCFEAFFAB
:10275000230EE926000EEA22020EEF6EF70EDB5082
:102760005DE0040A3FE0070A28E0010A18E0030AD6
:1027700001E055D0DECFE9FFDDCFEAFF1F0EE926ED
:10278000000EEA22F80EDB50EE12F90EDB50EE12CC
:10279000FA0EDB50EE12FB0EDB50EE1240D0DECF15
:1027A000E9FFDDCFEAFF1F0EE926000EEA22EE2A3E
:1027B000000EEE22EE22EE2232D0DECFE9FFDDCF98
:1027C000EAFF1F0EE926000EEA22F80EDBCFEEFF2D
:1027D000F90EDBCFEEFFFA0EDBCFEEFFFB0EDBCF09
:1027E000EEFF1DD0020EDB50020815E0DECFE9FF40
:1027F000DDCFEAFF1F0EE926000EEA22F80EDBCF3E
:10280000EEFFF90EDBCFEEFFFA0EDBCFEEFFFB0E95
:10281000DBCFEEFF02D0030EDB6A01D000D0020E48
:10282000DB0401E09CD00D019F515AE1DECFE9FFAE
:10283000DDCFEAFF020EE926000EEA22E9CF14F00E
:10284000EACF15F014C0E6FF15C0E6FFD2EC34F075
:10285000E552E552DECFE9FFDDCFEAFF160EE926AD
:10286000000EEA22EFCF14F00D019751D8801454D6
:102870000AE2DECFE9FFDDCFEAFF160EE926000E01
:10288000EA22EFCF97FDDECFE9FFDDCFEAFF020EB0
:10289000E926000EEA22E9CF14F0EACF15F014C0C1
:1028A000E6FF15C0E6FFDECFE9FFDDCFEAFF160E3B
:1028B000E926000EEA22EF50090DF3CF16F0F4CF0F
:1028C00017F0000E16260F0E172216C0E6FF17C0CF
:1028D000E6FF70EC33F0E552E552E552E5521AD0CE
:1028E000DECFE9FFDDCFEAFF0C0EE926000EEA227B
:1028F000E9CF14F0EACF15F014C0E6FF15C0E6FFEB
:102900003A0EE66E0F0EE66E70EC33F0E552E552CD
:10291000E552E552DECFE9FFDDCFEAFF160EE926EC
:10292000000EEA22EFCF14F091CDE9FF92CDEAFF3D
:10293000160EEB50D880145412E2D950F50FE96E00
:10294000FF0EDA20EA6EEE50ED1008E0F50EDBCF58
:10295000E9FFF60EDBCFEAFF010EEF6E00D0030EAB
:10296000DB5000D0146E050EE15C02E2E16AE55234
:10297000E16E1450E552E5CFDAFFE7CFD9FF120040
:10298000D9CFE6FFDACFE6FFE1CFD9FFE2CFDAFF1A
:10299000E652E652E652E652FC0EDBCFDEFFDBCF1C
:1029A000DDFF030EDB6ADECFE9FFDDCFEAFF230E9A
:1029B000E926000EEA22020EEFCFDBFFDECFE9FFB1
:1029C000DDCFEAFF230EE926000EEA22020EEF6EAB
:1029D000DECFE9FFDDCFEAFF1F0EE926000EEA2277
:1029E000EE2A000EEE22EE22EE22020EDB0401E0C1
:1029F0009CD00D019F515AE1DECFE9FFDDCFEAFF08
:102A0000020EE926000EEA22E9CF14F0EACF15F013
:102A100014C0E6FF15C0E6FFD2EC34F0E552E552F3
:102A2000DECFE9FFDDCFEAFF160EE926000EEA222F
:102A3000EFCF14F00D019751D88014540AE2DECF85
:102A4000E9FFDDCFEAFF160EE926000EEA22EFCFFE
:102A500097FDDECFE9FFDDCFEAFF020EE926000E8B
:102A6000EA22E9CF14F0EACF15F014C0E6FF15C052
:102A7000E6FFDECFE9FFDDCFEAFF160EE926000E06
:102A8000EA22EF50090DF3CF16F0F4CF17F0000E45
:102A900016260F0E172216C0E6FF17C0E6FF70ECD1
:102AA00033F0E552E552E552E5521AD0DECFE9FFA8
:102AB000DDCFEAFF0C0EE926000EEA22E9CF14F082
:102AC000EACF15F014C0E6FF15C0E6FF3A0EE66E39
:102AD0000F0EE66E70EC33F0E552E552E552E5522A
:102AE000DECFE9FFDDCFEAFF160EE926000EEA226F
:102AF000EFCF14F091CDE9FF92CDEAFF160EEB5027
:102B0000D880145412E2D950FA0FE96EFF0EDA2081
:102B1000EA6EEE50ED1008E0FA0EDBCFE9FFFB0E97
:102B2000DBCFEAFF010EEF6E00D0040EE15C02E2A3
:102B3000E16AE552E16EE552E5CFDAFFE7CFD9FF72
:022B4000120081
:0E2B4200D9CFE6FFDACFE6FFE1CFD9FFE2CF31
:102B5000DAFFE652E652FC0EDBCFDEFFDBCFDDFF15
:102B6000F250E66EF29EDECFE9FFDDCFEAFF1C0EEB
:102B7000E926000EEA22EFCF18F0DECFE9FFDDCF25
:102B8000EAFF1B0EE926000EEA22EF501802F3506E
:102B9000166E176ADECFE9FFDDCFEAFF1650EE248E
:102BA000146E1750EE20156EDECFE9FFDDCFEAFF81
:102BB000020EE926000EEA2214C0EEFF15C0EDFF5A
:102BC000DECFE9FFDDCFEAFF1A0EE926000EEA228A
:102BD000EF6ADECFE9FFDDCFEAFFEECF14F0EFCFF3
:102BE00015F0DECFE9FFDDCFEAFF040EE926000E87
:102BF000EA2214C0EEFF15C0EDFFDECFE9FFDDCF06
:102C0000EAFF1C0EE926000EEA22EFCF18F0DECF15
:102C1000E9FFDDCFEAFF1B0EE926000EEA22EF04F2
:102C20001802F350166E176ADECFE9FFDDCFEAFF18
:102C30001650EE24146E1750EE20156EDECFE9FF0D
:102C4000DDCFEAFF060EE926000EEA2214C0EEFFF1
:102C500015C0EDFFDECFE9FFDDCFEAFF1D0EE9264F
:102C6000000EEA22EF68DECFE9FFDDCFEAFF1E0E9D
:102C7000E926000EEA22EF68FB0EDB5025E1DECFED
:102C8000E9FFDDCFEAFF080EE926000EEA22EF5049
:102C90001AE0DECFE9FFDDCFEAFF080EE926000EDD
:102CA000EA22E9CF14F0EACF15F014C0E6FF15C010
:102CB000E6FF94EC0AF0E552E552010803E11BEC53
:102CC0002EF000D000D028D0DECFE9FFDDCFEAFF24
:102CD000080EE926000EEA22E9CF14F0EACF15F03B
:102CE00014C0E6FF15C0E6FFDEEC32F0E552E55217
:102CF000DECFE9FFDDCFEAFF110EE926000EEA2262
:102D0000E9CF14F0EACF15F014C0E6FF15C0E6FFD6
:102D1000DEEC32F0E552E552E552E7BEF28E010EEE
:102D200000D0E552E552E552E5CFDAFFE7CFD9FF13
:102D30001200D9CFE6FFDACFE6FFE1CFD9FFE2CF2D
:102D4000DAFF080EE12402E3E168E652E16E040EC8
:102D5000DB6A050EDB6AFC0EDB5005E1020EDB6A66
:102D6000030EDB6A14D0FC0EDBCFE6FFFD0EDB505A
:102D7000E552E702F350146E156A010E1426000E98
:102D80001522020E14C0DBFF030E15C0DBFF020E7E
:102D9000DBCF14F0030EDBCF15F01F0E1426000E50
:102DA000152214C0E6FF15C0E6FFE6EC38F0E55248
:102DB000E552060EF3CFDBFF070EF4CFDBFFD95051
:102DC000060FE96E000EDA20EA6EEE50ED1050E0CC
:102DD000060EDBCFDEFFDBCFDDFFFC0EDB5009E1B3
:102DE000DECFE9FFDDCFEAFFDECFEEFFDDCFEDFF87
:102DF00014D01F0EE76E060EDBCF14F0070EDBCFEC
:102E000015F0E7501426000E1522DECFE9FFDDCFC6
:102E1000EAFF14C0EEFF15C0EDFFDECFE9FFDDCF06
:102E2000EAFF1B0EE926000EEA22FD0EDBCFEFFFC4
:102E3000DECFE9FFDDCFEAFF1C0EE926000EEA2215
:102E4000FC0EDBCFEFFF010EE66EDECFE6FFDDCF3F
:102E5000E6FF77DEE552E552E552D9CFE9FFDACF5A
:102E6000EAFF040EEECFDBFF050EEDCFDBFF00D057
:102E7000040EDBCF14F0050EDBCF15F014C0F3FF0A
:102E800015C0F4FF00D0080EE15C02E2E16AE552F1
:102E9000E16EE552E5CFDAFFE7CFD9FF1200D9CFD7
:102EA000E6FFDACFE6FFE1CFD9FFE2CFDAFFE65265
:102EB000E652020EE66EE66AFD0EDBCFE6FF39DF74
:102EC000E552E552E552F3CFDEFFF4CFDDFFD9CF77
:102ED000E9FFDACFEAFFEE50ED100CE0DECFE9FFBC
:102EE000DDCFEAFF1A0EE926000EEA22FC0EDBCF48
:102EF000EFFF00D0DECF14F0DDCF15F014C0F3FFEC
:102F000015C0F4FF00D0E552E552E552E5CFDAFFF7
:102F1000E7CFD9FF1200D9CFE6FFDACFE6FFE1CF46
:102F2000D9FFE2CFDAFF070EE12402E3E168E652BF
:102F3000E16EDF6AFC0EDBCF08F0FD0EDBCF09F09F
:102F4000050E08C0DBFF060E09C0DBFFF250E66E7F
:102F5000F29E050EDBCFE9FF060EDBCFEAFF1A0E6D
:102F6000E926000EEA22EFCF14F0050EDBCFE9FFD1
:102F7000060EDBCFEAFF1B0EE926000EEA22EF5019
:102F8000145C04E3F70EDB50020851E1F70EDBCFCF
:102F9000E6FFFA0EDBCFE6FFFB0EDBCFE6FF050E0A
:102FA000DBCFE6FF060EDBCFE6FF8CEC1DF0146EE8
:102FB000050EE15C02E2E16AE552E16E1450E76E53
:102FC000010EE7CFDBFF050EDBCFE9FF060EDBCFFF
:102FD000EAFF110EE926000EEA22EF501CE0050E72
:102FE000DBCFE9FF060EDBCFEAFF110EE926000E6C
:102FF000EA22E9CF14F0EACF15F014C0E6FF15C0BD
:10300000E6FF94EC0AF0E552E552010803E11BECFF
:103010002EF000D006D0010EDB5003E01BEC2EF0AA
:1030200000D0E552E7BEF28E010EC5D01ED0D950B9
:10303000F80FE96EFF0EDA20EA6EEE50ED1006E1B1
:10304000E552E7BEF28E000EB6D00FD0DF500DE194
:10305000D950020FE66E000EDA20E66E27EC0CF077
:10306000E552E552010EDF6E00D0E552E7BEF28E6A
:1030700052EC06F0F250E66EF29E050EDBCFE9FF51
:10308000060EDBCFEAFF1D0EE926000EEA22EF5006
:10309000FF080BE1050EDBCFE9FF060EDBCFEAFFF1
:1030A0001D0EE926000EEA22EF6A050EDBCFE9FFCE
:1030B000060EDBCFEAFF1E0EE926000EEA22EF50D5
:1030C000FF080BE1050EDBCFE9FF060EDBCFEAFFC1
:1030D0001E0EE926000EEA22EF6AE552E7BEF28EE6
:1030E000D950F80FE66EFF0EDA20E66ED950020FC7
:1030F000E66E000EDA20E66E48EC0CF0E552E55282
:10310000E552E552000948E1050EDBCFE6FF060E69
:10311000DBCFE6FF98EC20F0E552E55200092FE006
:10312000F80EDBCFE6FFF90EDBCFE6FF050EDBCFB7
:10313000E9FF060EDBCFEAFF080EE926000EEA22C1
:10314000E9CF14F0EACF15F014C0E6FF15C0E6FF92
:1031500077EC09F0E552E552E552E552050EDBCF7A
:10316000E6FF060EDBCFE6FF86EC1FF0E552E552E8
:1031700055EC06F0000902E11BEC2EF00CD0050E18
:10318000DBCFE6FF060EDBCFE6FF86EC1FF0E55255
:10319000E55255EC06F00ED0050EDBCFE6FF060E2D
:1031A000DBCFE6FF86EC1FF0E552E55255EC06F06A
:1031B000000E01D0CBD6146E070EE15C02E2E16A8C
:1031C000E552E16E1450E552E5CFDAFFE7CFD9FFC3
:1031D0001200D9CFE6FFDACFE6FFE1CFD9FFE2CF89
:1031E000DAFFE652E652E652E652FC0EDBCF08F07A
:1031F000FD0EDBCF09F0020E08C0DBFF030E09C095
:10320000DBFF010EDB6A020EDBCFE9FF030EDBCF33
:10321000EAFF1A0EE926000EEA22EFCF14F0020EA2
:10322000DBCFE9FF030EDBCFEAFF1B0EE926000E22
:10323000EA22EF50145C04E3F70EDB5002086DE164
:10324000F70EDBCFE6FFFA0EDBCFE6FFFB0EDBCFA0
:10325000E6FF020EDBCFE6FF030EDBCFE6FF8CECD2
:103260001DF0146E050EE15C02E2E16AE552E16ECA
:103270001450020EDBCFE9FF030EDBCFEAFF1E0E78
:10328000E926000EEA22EF50FF0839E1020EDBCFFB
:10329000E9FF030EDBCFEAFF110EE926000EEA225A
:1032A000EF502CE0020EDBCFE9FF030EDBCFEAFF8D
:1032B000110EE926000EEA22E9CF14F0EACF15F04C
:1032C00014C0E6FF15C0E6FF94EC0AF0E552E552A3
:1032D000000913E0D950F80FE96EFF0EDA20EA6E0C
:1032E000EE50ED1009E0F80EDBCFE9FFF90EDBCF71
:1032F000EAFF010EEF6E00D000D000D00BD0020E1E
:10330000DBCFE9FF030EDBCFEAFF1E0EE926000E3E
:10331000EA22EF2A010EDF6E01D0DF6ADF5000D013
:10332000146E040EE15C02E2E16AE552E16E1450B3
:10333000E552E5CFDAFFE7CFD9FF1200D9CFE6FF9C
:10334000DACFE6FFE1CFD9FFE2CFDAFFE652E6526D
:10335000E652E652FC0EDBCF08F0FD0EDBCF09F0A3
:10336000020E08C0DBFF030E09C0DBFF010EDB6AA3
:10337000020EDBCFE9FF030EDBCFEAFF1A0EE926D0
:10338000000EEA22EFCF14F0020EDBCFE9FF030EAE
:10339000DBCFEAFF1B0EE926000EEA22EF50145C99
:1033A0005FE2020EDBCFE9FF030EDBCFEAFF1A0E6E
:1033B000E926000EEA22EF2A020EDBCFE9FF030E18
:1033C000DBCFEAFF1E0EE926000EEA22EF50FF08CF
:1033D00039E1020EDBCFE9FF030EDBCFEAFF110E6E
:1033E000E926000EEA22EF502CE0020EDBCFE9FFC7
:1033F000030EDBCFEAFF110EE926000EEA22E9CF29
:1034000014F0EACF15F014C0E6FF15C0E6FF94EC07
:103410000AF0E552E552000913E0D950FA0FE96EBF
:10342000FF0EDA20EA6EEE50ED1009E0FA0EDBCF67
:10343000E9FFFB0EDBCFEAFF010EEF6E00D000D0FC
:1034400000D00BD0020EDBCFE9FF030EDBCFEAFF8B
:103450001E0EE926000EEA22EF2A010EDF6E01D0D1
:10346000DF6ADF5000D0146E040EE15C02E2E16A14
:10347000E552E16E1450E552E5CFDAFFE7CFD9FF10
:103480001200D9CFE6FFDACFE6FFE1CFD9FFE2CFD6
:10349000DAFF080EE12402E3E168E652E16EDF6A3A
:1034A000FC0EDBCF08F0FD0EDBCF09F0060E08C0E6
:1034B000DBFF070E09C0DBFFF250E66EF29E060E40
:1034C000DBCFE9FF070EDBCFEAFF1A0EE926000E7D
:1034D000EA22EF50000801E397D0060EDBCFE9FFA8
:1034E000070EDBCFEAFF060EE926000EEA22040EE5
:1034F000EECFDBFF050EEDCFDBFFFA0EDBCFE6FFF5
:10350000FB0EDBCFE6FF060EDBCFE6FF070EDBCFC1
:10351000E6FFEAEC1EF0E552E552E552E552F70E01
:10352000DB5034E1060EDBCFE9FF070EDBCFEAFF0D
:103530001A0EE926000EEA22EF06060EDBCFE9FF9F
:10354000070EDBCFEAFF080EE926000EEA22EF5055
:103550001CE0060EDBCFE9FF070EDBCFEAFF080E0B
:10356000E926000EEA22E9CF14F0EACF15F014C0E4
:10357000E6FF15C0E6FF94EC0AF0E552E5520108BB
:1035800003E11BEC2EF000D000D038D0060EDBCFCC
:10359000E9FF070EDBCFEAFF060EE926000EEA225E
:1035A000040EDBCFEEFF050EDBCFEDFF060EDBCF0B
:1035B000E9FF070EDBCFEAFF110EE926000EEA2233
:1035C000EF501CE0060EDBCFE9FF070EDBCFEAFF72
:1035D000110EE926000EEA22E9CF14F0EACF15F029
:1035E00014C0E6FF15C0E6FF94EC0AF0E552E55280
:1035F000000903E01BEC2EF000D000D0E552E7BE3E
:10360000F28E010EC3D01ED0D950F80FE96EFF0E16
:10361000DA20EA6EEE50ED1006E1E552E7BEF28EDA
:10362000000EB4D00FD0DF500DE1D950010FE66E7F
:10363000000EDA20E66E27EC0CF0E552E552010EA2
:10364000DF6E00D0E552E7BEF28E52EC06F0F2508B
:10365000E66EF29E060EDBCFE9FF070EDBCFEAFF38
:103660001D0EE926000EEA22EF50FF080BE1060EC0
:10367000DBCFE9FF070EDBCFEAFF1D0EE926000EC8
:10368000EA22EF6A060EDBCFE9FF070EDBCFEAFF87
:103690001E0EE926000EEA22EF50FF080BE1060E8F
:1036A000DBCFE9FF070EDBCFEAFF1E0EE926000E97
:1036B000EA22EF6AE552E7BEF28ED950F80FE66EC5
:1036C000FF0EDA20E66ED950010FE66E000EDA200A
:1036D000E66E48EC0CF0E552E552E552E552000981
:1036E00047E1060EDBCFE6FF070EDBCFE6FF4EEC31
:1036F00020F0E552E55200092FE0F80EDBCFE6FF9F
:10370000F90EDBCFE6FF060EDBCFE9FF070EDBCFBE
:10371000EAFF110EE926000EEA22E9CF14F0EACF03
:1037200015F014C0E6FF15C0E6FF77EC09F0E5528E
:10373000E552E552E552060EDBCFE6FF070EDBCF82
:10374000E6FFE4DBE552E55255EC06F0000903E143
:103750001BEC2EF000D00BD0060EDBCFE6FF070EE1
:10376000DBCFE6FFD3DBE552E55255EC06F00DD09A
:10377000060EDBCFE6FF070EDBCFE6FFC7DBE55229
:10378000E55255EC06F0000E01D096D6146E080EE8
:10379000E15C02E2E16AE552E16E1450E552E5CFE8
:1037A000DAFFE7CFD9FF1200D9CFE6FFDACFE6FF85
:1037B000E1CFD9FFE2CFDAFFE652E652E652E65217
:1037C000FC0EDBCF08F0FD0EDBCF09F0020E08C0C7
:1037D000DBFF030E09C0DBFF010EDB6A020EDBCF4D
:1037E000E9FF030EDBCFEAFF1A0EE926000EEA22FC
:1037F000EF50000870E2FA0EDBCFE6FFFB0EDBCFE6
:10380000E6FF020EDBCFE6FF030EDBCFE6FFE2DAD8
:10381000E552E552E552E552020EDBCFE9FF030E19
:10382000DBCFEAFF1A0EE926000EEA22EF06020EAF
:10383000DBCFE9FF030EDBCFEAFF1D0EE926000E0A
:10384000EA22EF50FF0839E1020EDBCFE9FF030E59
:10385000DBCFEAFF080EE926000EEA22EF502CE04B
:10386000020EDBCFE9FF030EDBCFEAFF080EE926ED
:10387000000EEA22E9CF14F0EACF15F014C0E6FFFB
:1038800015C0E6FF94EC0AF0E552E552000913E09A
:10389000D950F80FE96EFF0EDA20EA6EEE50ED1007
:1038A00009E0F80EDBCFE9FFF90EDBCFEAFF010EEE
:1038B000EF6E00D000D000D00BD0020EDBCFE9FFBE
:1038C000030EDBCFEAFF1D0EE926000EEA22EF2AE7
:1038D000010EDF6E01D0DF6ADF5000D0146E040EDF
:1038E000E15C02E2E16AE552E16E1450E552E5CF97
:1038F000DAFFE7CFD9FF1200D9CFE6FFDACFE6FF34
:10390000E1CFD9FFE2CFDAFF060EE12402E3E1685E
:10391000E652E16EFC0EDBCF08F0FD0EDBCF09F0C6
:10392000040E08C0DBFF050E09C0DBFF010EDB6AD9
:10393000040EDBCFE9FF050EDBCFEAFF1A0EE92606
:10394000000EEA22EF50000834E2040EDBCFE9FF5C
:10395000050EDBCFEAFF060EE926000EEA22020E74
:10396000EECFDBFF030EEDCFDBFFFA0EDBCFE6FF82
:10397000FB0EDBCFE6FF040EDBCFE6FF050EDBCF51
:10398000E6FF28DAE552E552E552E552040EDBCFB8
:10399000E9FF050EDBCFEAFF060EE926000EEA225C
:1039A000020EDBCFEEFF030EDBCFEDFF010EDF6E6D
:1039B00001D0DF6ADF5000D0146E060EE15C02E237
:1039C000E16AE552E16E1450E552E5CFDAFFE7CF48
:1039D000D9FF1200D9CFE6FFDACFE6FFE1CFD9FF5A
:1039E000E2CFDAFFE652F250E66EF29EFC0EDBCF3B
:1039F000E9FFFD0EDBCFEAFF1A0EE926000EEA22F0
:103A0000EFCFDFFFE552E7BEF28EDF5000D0E55288
:103A1000E552E5CFDAFFE7CFD9FF1200D9CFE6FFB5
:103A2000DACFE6FFE1CFD9FFE2CFDAFFE652E65286
:103A3000E652FC0EDBCF08F0FD0EDBCF09F0DE52C4
:103A400008C0DEFF09C0DDFFDD52F250E66EF29ED7
:103A5000010EDBCFE9FF020EDBCFEAFF1B0EE926EA
:103A6000000EEA22EFCF14F0010EDBCFE9FF020EC9
:103A7000DBCFEAFF1A0EE926000EEA22EF50145CB3
:103A8000DF6EE552E7BEF28EDF5000D0E552E55220
:103A9000E552E552E5CFDAFFE7CFD9FF1200D9CFE3
:103AA000E6FFDACFE6FFE1CFD9FFE2CFDAFFE65259
:103AB000FC0EDBCFE9FFFD0EDBCFEAFF1A0EE92695
:103AC000000EEA22EFCFDFFFDF5000D0E552E552D3
:103AD000E5CFDAFFE7CFD9FF1200D9CFE6FFDACF83
:103AE000E6FFE1CFD9FFE2CFDAFFE652E652FC0E65
:103AF000DBCFDEFFDBCFDDFFDECFE6FFDDCFE6FF96
:103B000042EC39F0E552E552E552E552E552E5CF97
:103B1000DAFFE7CFD9FF1200D9CFE6FFDACFE6FF11
:103B2000E1CFD9FFE2CFDAFFE652DF6AFC0EDBCF4E
:103B3000E9FFFD0EDBCFEAFF1C0EE926000EEA22AC
:103B4000EF5001E133D1F90EDB5001E081D0FC0EE2
:103B5000DBCFE9FFFD0EDBCFEAFF1C0EE926000EEE
:103B6000EA22EF50E66EE66AFA0EDBCFE6FFFB0EC6
:103B7000DBCFE6FFFC0EDBCFE9FFFD0EDBCFEAFF7C
:103B8000040EE926000EEA22EECFE6FFEFCFE6FFB5
:103B9000B2EC39F0146E060EE15C02E2E16AE55225
:103BA000E16E1450FC0EDBCFE9FFFD0EDBCFEAFF28
:103BB0001C0EE926000EEA22EF50146E156AFC0E68
:103BC000DBCFE9FFFD0EDBCFEAFF040EE926000E96
:103BD000EA221450EE261550ED22FC0EDBCFE9FF51
:103BE000FD0EDBCFEAFF040EE926000EEA22EECF3F
:103BF00014F0EFCF15F0FC0EDBCFE9FFFD0EDBCFAD
:103C0000EAFF020EE926000EEA22EECF16F0EFCF11
:103C100017F01650145C1750155819E3FC0EDBCF43
:103C2000E9FFFD0EDBCFEAFFEECF14F0EFCF15F08A
:103C3000FC0EDBCFE9FFFD0EDBCFEAFF040EE92629
:103C4000000EEA2214C0EEFF15C0EDFF00D0AED08A
:103C5000FC0EDBCFE9FFFD0EDBCFEAFF1C0EE926F1
:103C6000000EEA22EF50E66EE66AFA0EDBCFE6FFC0
:103C7000FB0EDBCFE6FFFC0EDBCFE9FFFD0EDBCF5B
:103C8000EAFF060EE926000EEA22EECFE6FFEFCFAE
:103C9000E6FFB2EC39F0146E060EE15C02E2E16A76
:103CA000E552E16E1450FC0EDBCFE9FFFD0EDBCFD9
:103CB000EAFF1C0EE926000EEA22EF50146E156A88
:103CC000FC0EDBCFE9FFFD0EDBCFEAFF060EE92697
:103CD000000EEA221450EE5E1550ED5AFC0EDBCFBA
:103CE000E9FFFD0EDBCFEAFF060EE926000EEA2211
:103CF000EECF14F0EFCF15F0FC0EDBCFE9FFFD0E99
:103D0000DBCFEAFFEECF16F0EFCF17F00001165031
:103D1000145C175015582CE2FC0EDBCFE9FFFD0EAA
:103D2000DBCFEAFF1C0EE926000EEA22EF50166EEA
:103D3000176AFC0EDBCFE9FFFD0EDBCFEAFF020EB8
:103D4000E926000EEA221650EE5C146E1750EE586B
:103D5000156EFC0EDBCFE9FFFD0EDBCFEAFF060E92
:103D6000E926000EEA2214C0EEFF15C0EDFF00D0D8
:103D7000F90EDB5002081AE1FC0EDBCFE9FFFD0E65
:103D8000DBCFEAFF1A0EE926000EEA22EF50000808
:103D90000CE2FC0EDBCFE9FFFD0EDBCFEAFF1A0ED3
:103DA000E926000EEA22EF0600D000D0FC0EDBCFA1
:103DB000E9FFFD0EDBCFEAFF1A0EE926000EEA222C
:103DC000EF2ADF5000D0E552E552E5CFDAFFE7CF2A
:103DD000D9FF1200D9CFE6FFDACFE6FFE1CFD9FF56
:103DE000E2CFDAFFFC0EDBCFE9FFFD0EDBCFEAFF0F
:103DF0001C0EE926000EEA22EF5001E181D0FC0EF4
:103E0000DBCFE9FFFD0EDBCFEAFF1C0EE926000E3B
:103E1000EA22EF50146E156AFC0EDBCFE9FFFD0EAF
:103E2000DBCFEAFF060EE926000EEA221450EE264A
:103E30001550ED22FC0EDBCFE9FFFD0EDBCFEAFFD4
:103E4000060EE926000EEA22EECF14F0EFCF15F0B1
:103E5000FC0EDBCFE9FFFD0EDBCFEAFF020EE92609
:103E6000000EEA22EECF16F0EFCF17F00001165049
:103E7000145C1750155819E3FC0EDBCFE9FFFD0E5B
:103E8000DBCFEAFFEECF14F0EFCF15F0FC0EDBCF67
:103E9000E9FFFD0EDBCFEAFF060EE926000EEA225F
:103EA00014C0EEFF15C0EDFF00D0FC0EDBCFE9FF24
:103EB000FD0EDBCFEAFF1C0EE926000EEA22EF50D2
:103EC000E66EE66AFC0EDBCFE9FFFD0EDBCFEAFF14
:103ED000060EE926000EEA22EECFE6FFEFCFE6FF60
:103EE000FA0EDBCFE6FFFB0EDBCFE6FFB2EC39F0DC
:103EF000146E060EE15C02E2E16AE552E16E1450D6
:103F0000E552E5CFDAFFE7CFD9FF1200D9CFE6FFC0
:103F1000DACFE6FFE1CFD9FFE2CFDAFFF250E66E6B
:103F2000F29EFC0EDBCFE9FFFD0EDBCFEAFF1E0E9B
:103F3000E926000EEA22EFCF14F0000EE76E141807
:103F4000E8AE02D0143403D0E750D880145435E2E0
:103F5000FC0EDBCFE9FFFD0EDBCFEAFF110EE926F9
:103F6000000EEA22EF501CE0FC0EDBCFE9FFFD0E55
:103F7000DBCFEAFF110EE926000EEA22E9CF14F0AA
:103F8000EACF15F014C0E6FF15C0E6FF94EC0AF086
:103F9000E552E552000903E0E9EC0CF000D001D055
:103FA0000CD0FC0EDBCFE9FFFD0EDBCFEAFF1E0ECF
:103FB000E926000EEA22EF06B4D7FC0EDBCFE9FFBC
:103FC000FD0EDBCFEAFF1E0EE926000EEA22EF68A7
:103FD000E552E7BEF28EF250E66EF29EFC0EDBCFAB
:103FE000E9FFFD0EDBCFEAFF1D0EE926000EEA22F7
:103FF000EFCF14F0000EE76E1418E8AE02D01434C0
:1040000003D0E750D880145435E2FC0EDBCFE9FF33
:10401000FD0EDBCFEAFF080EE926000EEA22EF5084
:1040200027E0FC0EDBCFE9FFFD0EDBCFEAFF080E39
:10403000E926000EEA22E9CF14F0EACF15F014C009
:10404000E6FF15C0E6FF94EC0AF0E552E5520009E0
:1040500003E0E9EC0CF000D0FC0EDBCFE9FFFD0E35
:10406000DBCFEAFF1D0EE926000EEA22EF0601D0A3
:1040700001D0B4D7FC0EDBCFE9FFFD0EDBCFEAFFAA
:104080001D0EE926000EEA22EF68E552E7BEF28E29
:10409000E552E5CFDAFFE7CFD9FF1200D9CFE6FF2F
:1040A000DACFE6FFE1CFD9FFE2CFDAFFE652F250F6
:1040B000E66EF29EFC0EDBCFE9FFFD0EDBCFEAFFE2
:1040C0001A0EE926000EEA22EF5003E1010EDF6E20
:1040D00001D0DF6AE552E7BEF28EDF5000D0E55234
:1040E000E552E5CFDAFFE7CFD9FF1200D9CFE6FFDF
:1040F000DACFE6FFE1CFD9FFE2CFDAFFE652FC0EDE
:10410000DBCFE9FFFD0EDBCFEAFF1A0EE926000E3A
:10411000EA22EF5003E1010EDF6E01D0DF6ADF50CB
:1041200000D0E552E552E5CFDAFFE7CFD9FF120024
:10413000D9CFE6FFDACFE6FFE1CFD9FFE2CFDAFF52
:10414000E652F250E66EF29EFC0EDBCFE9FFFD0E6A
:10415000DBCFEAFF1A0EE926000EEA22EFCF14F0B9
:10416000FC0EDBCFE9FFFD0EDBCFEAFF1B0EE926DD
:10417000000EEA22EF50145C03E1010EDF6E01D065
:10418000DF6AE552E7BEF28EDF5000D0E552E5521D
:10419000E5CFDAFFE7CFD9FF1200D9CFE6FFDACFBC
:1041A000E6FFE1CFD9FFE2CFDAFFE652FC0EDBCF2C
:1041B000E9FFFD0EDBCFEAFF1A0EE926000EEA2228
:1041C000EFCF14F0FC0EDBCFE9FFFD0EDBCFEAFFF3
:1041D0001B0EE926000EEA22EF50145C03E1010EEB
:1041E000DF6E01D0DF6ADF5000D0E552E552E5CF47
:0841F000DAFFE7CFD9FF12004E
:0841F800D9CFE6FFDACFE6FFA4
:10420000E1CFD9FFE2CFDAFFE652E6520B0EE66EBF
:10421000E66AE6EC38F0E552E552F3CFDEFFF4CF84
:10422000DDFFD9CFE9FFDACFEAFFEE50ED101DE058
:10423000DECFE9FFDDCFEAFF000EEB6A010EEB6A8D
:10424000DECFE9FFDDCFEAFF020EE926000EEA220B
:10425000E9CF14F0EACF15F014C0E6FF15C0E6FF71
:10426000DEEC32F0E552E55200D0DECF14F0DDCFC7
:1042700015F014C0F3FF15C0F4FF00D0E552E5526D
:10428000E552E5CFDAFFE7CFD9FF1200D9CFE6FF3D
:10429000DACFE6FFE1CFD9FFE2CFDAFF080EE12463
:1042A00002E3E168E652E16EFC0EDBCF08F0FD0EA2
:1042B000DBCF09F0040E08C0DBFF050E09C0DBFFF1
:1042C000070EDB6A52EC06F0040EDBCFE9FF050EA9
:1042D000DBCFEAFFEECFDEFFEDCFDDFFFA0EDBCF67
:1042E000E6FFFB0EDBCFE6FFFC0EDBCFE6FFFD0EAD
:1042F000DBCFE6FFE0DAE552E552E552E552FA0E91
:10430000DBCF18F0FB0EDBCF19F0DE501810166E65
:10431000DD501910176EF80EDB501614146EF90EDE
:10432000DB501714156EF80EDB50141803E1F90E6C
:10433000DB50151827E1FA0EDBCF16F0FB0EDBCFB2
:1043400017F0DE501610146EDD501710156E020EA9
:1043500014C0DBFF030E15C0DBFFF80EDB1C146E70
:10436000F90EDB1C156E040EDBCFE9FF050EDBCF6B
:10437000EAFF1450EE161550ED16F60EDB6AF70E36
:10438000DB6A4CD0D950F60FE96EFF0EDA20EA6EE8
:10439000EE50ED1037E0F60EDBCFE6FFF70EDBCF89
:1043A000E6FFF80EDBCF14F0F90EDBCF15F014505A
:1043B000010E15121450040E151214C0E6FF15C09C
:1043C000E6FF040EDBCFE9FF050EDBCFEAFF020EAE
:1043D000E926000EEA22E9CF16F0EACF17F016C060
:1043E000E6FF17C0E6FFFBEC09F0186E060EE15C75
:1043F00002E2E16AE552E16E1850020EDB6A030E3A
:10440000DB6A0CD0040EDBCFE9FF050EDBCFEAFF41
:10441000020EEECFDBFF030EEDCFDBFF55EC06F017
:10442000E76E060EE7CFDBFFD950F60FE96EFF0E01
:10443000DA20EA6EEE50ED1059E0060EDB5003E193
:104440001BEC2EF000D004EC10F0020EF3CFDBFFDB
:10445000030EF4CFDBFF030EDB50020B3FE1F25003
:10446000E66EF29E040EDBCFE9FF050EDBCFEAFF1E
:10447000020EEECFDBFF030EEDCFDBFFF80EDBCF3E
:1044800016F0F90EDBCF17F0020EDB501614146E87
:10449000030EDB501714156EF80EDB50141803E1F1
:1044A000F90EDB50151811E1F80EDB1C146EF90E35
:1044B000DB1C156E040EDBCFE9FF050EDBCFEAFF38
:1044C0001450EE161550ED1600D0E552E7BEF28EF0
:1044D000010EF36E070EF3CFDBFF00D0D950020FB1
:1044E000E96E000EDA20EA6EEE52ED6A020EDBCFC4
:1044F00014F0030EDBCF15F014C0F3FF15C0F4FF6A
:1045000000D0080EE15C02E2E16AE552E16EE5529C
:10451000E5CFDAFFE7CFD9FF1200D9CFE6FFDACF38
:10452000E6FFE1CFD9FFE2CFDAFF0B0EE12402E391
:10453000E168E652E16EFC0EDBCFDEFFDBCFDDFF94
:10454000040EDB6A050EDB6A080EDB6A52EC06F02D
:10455000DECFE9FFDDCFEAFF090EEECFDBFF0A0E6B
:10456000EDCFDBFFF80EDBCFE6FFFA0EDBCFE6FF89
:10457000FB0EDBCFE6FF090EDBCFE6FF0A0EDBCF3B
:10458000E6FF85DB146E050EE15C02E2E16AE552AE
:10459000E16E1450E76E060EE7CFDBFF060EDB5030
:1045A00023E0090EDBCF08F00A0EDBCF09F0020E84
:1045B00008C0DBFF030E09C0DBFFF60EDB6AF70E57
:1045C000DB6AF90EDB500FE0FA0EDB1C146EFB0EFB
:1045D000DB1C156EDECFE9FFDDCFEAFF1450EE16CF
:1045E0001550ED1600D064D0D950F60FE96EFF0ECD
:1045F000DA20EA6EEE50ED100DE1090EDBCF08F087
:104600000A0EDBCF09F0020E08C0DBFF030E09C063
:10461000DBFF4ED0F90EDB5009E0D950040FE96EF4
:10462000000EDA20EA6EEE52ED8000D0F80EDB507C
:1046300009E0D950040FE96E000EDA20EA6EEE525E
:10464000ED8400D0F60EDBCFE6FFF70EDBCFE6FF02
:10465000040EDBCF16F0050EDBCF17F0FA0EDB50A1
:104660001610146EFB0EDB501710156E14C0E6FF0B
:1046700015C0E6FFDECFE9FFDDCFEAFF020EE92637
:10468000000EEA22E9CF18F0EACF19F018C0E6FFD1
:1046900019C0E6FFFBEC09F01A6E060EE15C02E2BF
:1046A000E16AE552E16E1A50020EDB6A030EDB6A24
:1046B00055EC06F0E76E070EE7CFDBFFD950F60F9B
:1046C000E96EFF0EDA20EA6EEE50ED105AE0070EAA
:1046D000DB5003E11BEC2EF000D004EC10F0020ED6
:1046E000F3CFDBFF030EF4CFDBFF030EDB50020B37
:1046F00040E1F250E66EF29EDECFE9FFDDCFEAFF49
:10470000020EEECFDBFF030EEDCFDBFFF80EDBCFAB
:10471000E6FFFA0EDBCFE6FFFB0EDBCFE6FF020E75
:10472000DBCFE6FF030EDBCFE6FFB1DA146E050E3A
:10473000E15C02E2E16AE552E16E1450000913E027
:10474000F90EDB500FE0FA0EDB1C146EFB0EDB1CC7
:10475000156EDECFE9FFDDCFEAFF1450EE161550DF
:10476000ED1600D000D0E552E7BEF28E080EDB6AEF
:1047700000D0D950020FE96E000EDA20EA6EEE5238
:10478000ED6A020EDBCF14F0030EDBCF15F014C080
:10479000F3FF15C0F4FF00D00B0EE15C02E2E16A0A
:1047A000E552E16EE552E5CFDAFFE7CFD9FF12001F
:1047B000D9CFE6FFDACFE6FFE1CFD9FFE2CFDAFFCC
:1047C000E652E652E652E652FC0EDBCFDEFFDBCFCE
:1047D000DDFFF250E66EF29EDECFE9FFDDCFEAFFAD
:1047E000020EEECFDBFF030EEDCFDBFFFA0EDB1C7C
:1047F000146EFB0EDB1C156EDECFE9FFDDCFEAFF8A
:104800001450EE161550ED16E552E7BEF28E020E6C
:10481000DBCF14F0030EDBCF15F014C0F3FF15C08F
:10482000F4FF00D0040EE15C02E2E16AE552E16EC1
:10483000E552E5CFDAFFE7CFD9FF1200D9CFE6FF87
:10484000DACFE6FFE1CFD9FFE2CFDAFFE652E65258
:10485000E652E652E652FC0EDBCF08F0FD0EDBCF4F
:1048600009F0DE5208C0DEFF09C0DDFFDD52DF6A5D
:10487000010EDBCFE9FF020EDBCFEAFF030EEECF26
:10488000DBFF040EEDCFDBFF030EDBCF14F0040ED5
:10489000DBCF15F014C0F3FF15C0F4FF00D0050EF8
:1048A000E15C02E2E16AE552E16EE552E5CFDAFF52
:1048B000E7CFD9FF1200D9CFE6FFDACFE6FFE1CF8D
:1048C000D9FFE2CFDAFF110EE12402E3E168E652FC
:1048D000E16E080EDB6A090EDB6AFC0EDBCF08F026
:1048E000FD0EDBCF09F00E0E08C0DBFF0F0E09C076
:1048F000DBFF100EDB6A0E0EDBCFE9FF0F0EDBCF06
:10490000EAFF020EE926000EEA22E9CF14F0EACF10
:1049100015F0060E14C0DBFF070E15C0DBFF060EF8
:10492000DBCFE9FF070EDBCFEAFF030EE926000E1F
:10493000EA22E9CF14F0EACF15F0040E14C0DBFF31
:10494000050E15C0DBFF52EC06F0060EDBCFE9FFCB
:10495000070EDBCFEAFF030EE926000EEA22020E65
:10496000E926000EEA22EECFDEFFEDCFDDFFFA0EE4
:10497000DBCF14F0FB0EDBCF15F00E0EDBCFE9FF23
:104980000F0EDBCFEAFF1450EE121550ED12040E9D
:10499000DB50DF1804E1050EDB50DE52DD1801E1CB
:1049A000ABD0DECFE9FFDDCFEAFF020EE926000E35
:1049B000EA22020EEECFDBFF030EEDCFDBFFDECFF0
:1049C000E9FFDDCFEAFF0A0EEECFDBFF0B0EEDCFE6
:1049D000DBFF100EDB6A0A0EDBCF14F00B0EDBCF11
:1049E00015F0000E1416FF0E15160C0E14C0DBFF8A
:1049F0000D0E15C0DBFFD9500A0FE96E000EDA204C
:104A0000EA6EEE52ED6A0D0EDB50040B1CE10A0E4D
:104A1000DBCF16F00B0EDBCF17F00E0EDBCFE9FF6E
:104A20000F0EDBCFEAFF1650EE14146E1750EE1483
:104A3000156E1450151006E0010EF36E100EF3CF34
:104A4000DBFF00D020D00A0EDBCF16F00B0EDBCF41
:104A500017F00E0EDBCFE9FF0F0EDBCFEAFF16508B
:104A6000EE14146E1750EE14156E0A0EDB50141867
:104A700003E10B0EDB50151806E1010EF36E100E6C
:104A8000F3CFDBFF00D0100EDB5030E00D0EDB501B
:104A9000010B11E00A0EDBCF14F00B0EDBCF15F08B
:104AA000D950080FE96E000EDA20EA6E1450EE12AB
:104AB0001550ED1200D00E0EDBCFE9FF0F0EDBCF4D
:104AC000EAFFEECF14F0EFCF15F01450020E1512DE
:104AD00014C0E6FF15C0E6FFDECFE6FFDDCFE6FF40
:104AE0006EEC0BF0E552E552E552E552020EDBCFDB
:104AF000DEFFDBCFDDFF4BD7080EDB1C146E090E8B
:104B0000DB1C156E0E0EDBCFE9FF0F0EDBCFEAFFCD
:104B10001450EE161550ED1655EC06F00E0EDBCFC8
:104B2000E9FF0F0EDBCFEAFFEECF14F0EFCF15F069
:104B300014C0F3FF15C0F4FF00D0110EE15C02E2D7
:104B4000E16AE552E16EE552E5CFDAFFE7CFD9FF42
:104B50001200D9CFE6FFDACFE6FFE1CFD9FFE2CFEF
:104B6000DAFFE652E652E652E652FC0EDBCFDEFFFB
:104B7000DBCFDDFFDECFE9FFDDCFEAFF020EE92666
:104B8000000EEA22E9CF14F0EACF15F0020E14C0AD
:104B9000DBFF030E15C0DBFF52EC06F0020EDBCF8D
:104BA000E9FF030EDBCFEAFFEF5000081CE2E66AE4
:104BB000020EE66E020EDBCFE9FF030EDBCFEAFF4B
:104BC000030EE926000EEA22020EE926000EEA2272
:104BD000EECFE6FFEFCFE6FF6EEC0BF0E552E552CD
:104BE000E552E552DBD7DECFE6FFDDCFE6FF42EC54
:104BF00039F0E552E55255EC06F0040EE15C02E2B4
:104C0000E16AE552E16EE552E5CFDAFFE7CFD9FF81
:104C10001200D9CFE6FFDACFE6FFE1CFD9FFE2CF2E
:104C2000DAFFF80EDBCFE6FFF90EDBCFE6FFFC0E76
:104C3000DBCFE6FFFD0EDBCFE6FF3DDEE552E552C2
:104C4000E552E552E552E5CFDAFFE7CFD9FF120092
:104C5000D9CFE6FFDACFE6FFE1CFD9FFE2CFDAFF27
:104C6000F80EDBCFE6FFF90EDBCFE6FFFC0EDBCF65
:104C7000E6FFFD0EDBCFE6FF9BDDE552E552E55298
:104C8000E552E552E5CFDAFFE7CFD9FF1200D9CFE1
:104C9000E6FFDACFE6FFE1CFD9FFE2CFDAFFE65257
:104CA000DF6AF90EDB5015E1FA0EDBCF16F0FB0ED2
:104CB000DBCF17F0FC0EDB501614146EFD0EDB502C
:104CC0001714156E1450151003E0010EDF6E00D09E
:104CD00019D0FA0EDBCF16F0FB0EDBCF17F0FC0E6F
:104CE000DB501614146EFD0EDB501714156EFA0E01
:104CF000DB50141803E1FB0EDB50151803E1010E25
:104D0000DF6E00D0DF5000D0E552E552E5CFDAFF8C
:064D1000E7CFD9FF1200FD
:0A4D1600D9CFE6FFDACFE6FFE1CFC8
:104D2000D9FFE2CFDAFFE652E652E6521A0EE66EFD
:104D3000E66AE6EC38F0E552E552DE52F3CFDEFFEC
:104D4000F4CFDDFFDD52D950010FE96E000EDA20FD
:104D5000EA6EEE50ED1001E103D10D01A051A11159
:104D600007E1010EDBCFA0FD020EDBCFA1FDECDBE6
:104D7000020EF36EFB0EDBCFF4FFF350F45C05E3A1
:104D8000010EF36EFB0EF3CFDBFF010EDBCFE9FF6D
:104D9000020EDBCFEAFF180EEB6A190EEB6A010E6A
:104DA000DBCFE9FF020EDBCFEAFF160EE926000E8D
:104DB000EA22FB0EDBCFEFFF010EDBCFE9FF020E95
:104DC000DBCFEAFF170EE926000EEA22FA0EDBCF50
:104DD000EFFF010EDBCFE9FF020EDBCFEAFFFC0E97
:104DE000DBCFEEFFFD0EDBCFEDFF010EDBCFE9FFEA
:104DF000020EDBCFEAFF020EE926000EEA22E9CF1F
:104E000014F0EACF15F014C0E6FF15C0E6FF58EC29
:104E100033F0E552E552010EDBCFE9FF020EDBCFA6
:104E2000EAFF0C0EE926000EEA22E9CF14F0EACFE1
:104E300015F014C0E6FF15C0E6FF58EC33F0E5525C
:104E4000E552010EDBCFE9FF020EDBCFEAFF020ED7
:104E5000E926000EEA22060EE926000EEA22010EDD
:104E6000DBCFEEFF020EDBCFEDFF010EDBCFE9FF64
:104E7000020EDBCFEAFF0C0EE926000EEA22060E38
:104E8000E926000EEA22010EDBCFEEFF020EDBCF99
:104E9000EDFFFB0EDB50146E156A020ED88014561F
:104EA000000E1556010EDBCFE9FF020EDBCFEAFF45
:104EB0000C0EE926000EEA2214C0EEFF15C0EDFF2D
:104EC000010EDBCFE9FF020EDBCFEAFF160EE9266B
:104ED000000EEA22EFCF14F00D01A251D880145435
:104EE0000CE2010EDBCFE9FF020EDBCFEAFF160E6C
:104EF000E926000EEA22EFCFA2FD010EDBCFE9FF8B
:104F0000020EDBCFEAFF020EE926000EEA22E9CF0D
:104F100014F0EACF15F014C0E6FF15C0E6FF010E4D
:104F2000DBCFE9FF020EDBCFEAFF160EE926000E0B
:104F3000EA22EF50090DF3CF16F0F4CF17F0600E10
:104F400016260D0E172216C0E6FF17C0E6FF70ECFE
:104F500033F0E552E552E552E552010EDF6E01D025
:104F6000DF68DF5000D0E552E552E552E552E5CF6B
:104F7000DAFFE7CFD9FF1200D9CFE6FFDACFE6FF9D
:104F8000E1CFD9FFE2CFDAFFE652E652FC0EDB506A
:104F90000D01A3250001146EFD0EDB500D01A421AF
:104FA0000001156E14C0DEFF15C0DDFFA0CDE9FFC6
:104FB000A1CDEAFF020EE926000EEA22E9CF14F0A5
:104FC000EACF15F014C0E6FF15C0E6FFD2EC34F0CE
:104FD000E552E552A0CDE9FFA1CDEAFF020EE92698
:104FE000000EEA22DECFEEFFDDCFEDFFDECF14F0C4
:104FF000DDCF15F00D01A351145CA45115581BE22F
:10500000A0CDE9FFA1CDEAFF020EE926000EEA22BB
:10501000E9CF14F0EACF15F014C0E6FF15C0E6FFA3
:1050200086CDE6FF87CDE6FFF0EC33F0E552E552A2
:10503000E552E5521AD0A0CDE9FFA1CDEAFF020E5C
:10504000E926000EEA22E9CF14F0EACF15F014C0E9
:10505000E6FF15C0E6FF84CDE6FF85CDE6FFF0EC68
:1050600033F0E552E552E552E552D950FA0FE96EB8
:10507000FF0EDA20EA6EEE50ED101CE0A0CDE9FF45
:10508000A1CDEAFF0C0EE926000EEA22E9CF14F0CA
:10509000EACF15F014C0E6FF15C0E6FFFA0EDBCF2D
:1050A000E6FFFB0EDBCFE6FFF0EC33F0E552E55216
:1050B000E552E552E552E552E552E5CFDAFFE7CF9A
:1050C000D9FF1200D9CFE6FFDACFE6FFE1CFD9FF53
:1050D000E2CFDAFFE652E6520D01885101E17CD0C1
:1050E000F29E8DCDE9FF8ECDEAFF060EE926000E79
:1050F000EA22EECFDEFFEDCFDDFFDECFE9FFDDCF31
:10510000EAFF0C0EE926000EEA22E9CF14F0EACFFE
:1051100015F014C0E6FF15C0E6FFD2EC34F0E552FE
:10512000E552F28EDECFE9FFDDCFEAFF020EE9267F
:10513000000EEA22E9CF14F0EACF15F014C0E6FF22
:1051400015C0E6FFD2EC34F0E552E552DECFE9FFC0
:10515000DDCFEAFF160EE926000EEA22EFCF14F0AB
:105160000D01A251D88014540AE2DECFE9FFDDCF51
:10517000EAFF160EE926000EEA22EFCFA2FDDECFEF
:10518000E9FFDDCFEAFF020EE926000EEA22E9CFB1
:1051900014F0EACF15F014C0E6FF15C0E6FFDECF2D
:1051A000E9FFDDCFEAFF160EE926000EEA22EF50F6
:1051B000090DF3CF16F0F4CF17F0600E16260D0E82
:1051C000172216C0E6FF17C0E6FF70EC33F0E55279
:1051D000E552E552E55280D7E552E552E552E5CF7A
:1051E000DAFFE7CFD9FF1200D9CFE6FFDACFE6FF2B
:1051F000E1CFD9FFE2CFDAFFE652E652E652E652BD
:1052000032EC07F00D01A551F35C0D01A76F0D0104
:10521000A651F4580D01A86F0D01A751A81101E185
:10522000CFD00D01A32B000EA4230D01A707000E64
:10523000A85B0D01A351A41110E1020E84CDDBFF88
:10524000030E85CDDBFF86CD84FD87CD85FD020E67
:10525000DBCF86FD030EDBCF87FD84CDE9FF85CD57
:10526000EAFFEF50000901E1AAD084CDE9FF85CD26
:10527000EAFF030EE926000EEA22020EE926000EDE
:10528000EA22EE50EFCFEAFFE96E060EE926000EA5
:10529000EA22EECFDEFFEDCFDDFFDECFE9FFDDCF8F
:1052A000EAFF020EE926000EEA22EECF14F0EFCF5D
:1052B00015F00D011450A35D1550A45901E27FD0E3
:1052C000F29EDECFE9FFDDCFEAFF020EE926000EF7
:1052D000EA22E9CF14F0EACF15F014C0E6FF15C0BA
:1052E000E6FFD2EC34F0E552E552DECFE9FFDDCF48
:1052F000EAFF0C0EE926000EEA22080EE926000E4F
:10530000EA22EE50ED1014E0DECFE9FFDDCFEAFF38
:105310000C0EE926000EEA22E9CF14F0EACF15F0D0
:1053200014C0E6FF15C0E6FFD2EC34F0E552E552BA
:10533000F28EDECFE9FFDDCFEAFF160EE926000E82
:10534000EA22EFCF14F00D01A251D88014540AE2E2
:10535000DECFE9FFDDCFEAFF160EE926000EEA22D6
:10536000EFCFA2FDDECFE9FFDDCFEAFF020EE92697
:10537000000EEA22E9CF14F0EACF15F014C0E6FFE0
:1053800015C0E6FFDECFE9FFDDCFEAFF160EE92606
:10539000000EEA22EF50090DF3CF16F0F4CF17F00C
:1053A000600E16260D0E172216C0E6FF17C0E6FF88
:1053B00070EC33F0E552E552E552E5524ED72CD76A
:1053C000A3CDA5FDA4CDA6FD040EE15C02E2E16A39
:1053D000E552E16EE552E5CFDAFFE7CFD9FF1200E3
:1053E000D9CFE6FFDACFE6FFE1CFD9FFE2CFDAFF90
:1053F000E652E65267DEF8DE0D01A251090DF3CF49
:10540000E9FFF4CFEAFF600EE9260D0EEA22EF5025
:1054100007E10D01A25101E18FD00D01A207ECD7E8
:105420000D01A251090DF3CF14F0F4CF15F0600E69
:1054300014260D0E152214C0DEFF15C0DDFFDECFD1
:10544000E9FFDDCFEAFFEE52EE50EFCFEAFFE96E63
:10545000020EE926000EEA22EECF14F0EFCF15F08F
:10546000DECFE9FFDDCFEAFFEE5214C0EEFF15C03C
:10547000EDFFDECFE9FFDDCFEAFFEE52EECF14F015
:10548000EFCF15F0DECFE9FFDDCFEAFF030EE9260F
:10549000000EEA22E9CF16F0EACF17F016501418E2
:1054A00002E1175015181AE1DECFE9FFDDCFEAFF60
:1054B000EE52EE50EFCFEAFFE96E020EE926000E43
:1054C000EA22EECF14F0EFCF15F0DECFE9FFDDCF0B
:1054D000EAFFEE5214C0EEFF15C0EDFFDECFE9FF8C
:1054E000DDCFEAFFEE52EE50EFCFEAFFE96E060E97
:1054F000E926000EEA22EECFA0FDEDCFA1FDA0CD62
:10550000E9FFA1CDEAFFEECF14F0EFCF15F0A0CD6B
:10551000E9FFA1CDEAFF170EEB50E66EA0CDE6FF46
:10552000A1CDE6FF04D015C0FAFF1450F96EFBDFE1
:10553000E552E552E55200D0E552E552E552E5CF9D
:10554000DAFFE7CFD9FF1200D9CFE6FFDACFE6FFC7
:10555000E1CFD9FFE2CFDAFFE652DF6A020EDF5C6D
:1055600014E2DF50090DF3CF14F0F4CF15F0600E04
:1055700014260D0E152214C0E6FF15C0E6FFDEEC62
:1055800032F0E552E552DF2AE9D7720EE66E0D0ED3
:10559000E66EDEEC32F0E552E5527B0EE66E0D0E65
:1055A000E66EDEEC32F0E552E552880EE66E0D0E48
:1055B000E66EDEEC32F0E552E5520D01720E846FBC
:1055C0000D0E856F0D017B0E866F0D0E876FE552F8
:1055D000E552E5CFDAFFE7CFD9FF1200D9CFE6FFDA
:1055E000DACFE6FFE1CFD9FFE2CFDAFFE652E652AB
:1055F000E652FC0EDBCFE9FFFD0EDBCFEAFF030E28
:10560000E926000EEA22020EE926000EEA22EE50FA
:10561000EFCFEAFFE96E060EE926000EEA22EECF92
:10562000DEFFEDCFDDFFDECFE9FFDDCFEAFF0C0EC1
:10563000E926000EEA22E9CF14F0EACF15F014C0F3
:10564000E6FF15C0E6FFD2EC34F0E552E552DECFBE
:10565000E9FFDDCFEAFF0C0EE926000EEA22E9CFD2
:1056600014F0EACF15F014C0E6FF15C0E6FF880E6F
:10567000E66E0D0EE66E70EC33F0E552E552E55243
:10568000E552DECFE9FFDDCFEAFF160EE926000E78
:10569000EA22EFCF14F0A0CDE9FFA1CDEAFF160E6C
:1056A000EB50145C06E3010EF36E020EF3CFDBFF4A
:1056B00002D0020EDB6A020EDB5000D0E552E5524A
:0E56C000E552E552E5CFDAFFE7CFD9FF120041
:0256CE00D9CF32
:1056D000E6FFDACFE6FFE1CFD9FFE2CFDAFFE6520D
:1056E000E652E652E652E652FC0EDBCFE9FFFD0E33
:1056F000DBCFEAFF110EEF6EFC0EDB2AFD0E01E39D
:10570000DB2AFC0EDBCFE9FFFD0EDBCFEAFF220E2A
:10571000EF6EFC0EDB2AFD0E01E3DB2AFC0EDBCF75
:10572000E9FFFD0EDBCFEAFF330EEF6EFC0EDB2A46
:10573000FD0E01E3DB2AF80EDBCF14F0F90EDBCF10
:1057400015F0000E14C0DBFF010E15C0DBFF020ECA
:10575000DB6A030EDB6AD9CFE9FFDACFEAFFEECFCF
:1057600014F0EECF15F0EECF16F0EFCF17F0145087
:10577000E66EFC0EDBCFE9FFFD0EDBCFEAFFE55264
:10578000E750EF6EFC0EDB2AFD0E01E3DB2AD9CFDA
:10579000E9FFDACFEAFF080EE76ED890030EEB328E
:1057A000020EEB32010EEB32EF32E706F6E1D9CF13
:1057B000E9FFDACFEAFFEECF14F0EECF15F0EECF2F
:1057C00016F0EFCF17F01450E66EFC0EDBCFE9FFBA
:1057D000FD0EDBCFEAFFE552E750EF6EFC0EDB2A51
:1057E000FD0E01E3DB2AFC0EDBCFE9FFFD0EDBCF74
:1057F000EAFF440EEF6EFC0EDB2AFD0E01E3DB2A0E
:10580000FC0EDBCFE9FFFD0EDBCFEAFF660EEF6E8D
:10581000FC0EDB2AFD0E01E3DB2AFC0EDBCFE9FFE9
:10582000FD0EDBCFEAFFCC0EEF6EFC0EDB2AFD0E89
:1058300001E3DB2AFC0EDBCFE9FFFD0EDBCFEAFF45
:10584000C00EEF6EFC0EDB2AFD0E01E3DB2AFC0E20
:10585000DBCFE9FFFD0EDBCFEAFF110EEF6EFC0E92
:10586000DB2AFD0E01E3DB2AFC0EDBCFE9FFFD0E98
:10587000DBCFEAFF220EEF6EFC0EDB2AFD0E01E30A
:10588000DB2AFC0EDBCFE9FFFD0EDBCFEAFF330E98
:10589000EF6EFC0EDB2AFD0E01E3DB2AFC0EDBCFF4
:1058A000E9FFFD0EDBCFEAFF440EEF6EFC0EDB2AB4
:1058B000FD0E01E3DB2AFC0EDBCFE9FFFD0EDBCFA3
:1058C000EAFF550EEF6EFC0EDB2AFD0E01E3DB2A2C
:1058D000FC0EDBCFE9FFFD0EDBCFEAFF660EEF6EBD
:1058E000FC0EDB2AFD0E01E3DB2AFC0EDBCFE9FF19
:1058F000FD0EDBCFEAFFEF6AFC0EDB2AFD0E01E3B3
:10590000DB2AFC0EDBCFE9FFFD0EDBCFEAFF880EC2
:10591000EF6EFC0EDB2AFD0E01E3DB2AFC0EDBCF73
:10592000E9FFFD0EDBCFEAFF990EEF6EFC0EDB2ADE
:10593000FD0E01E3DB2AFC0EDBCFE9FFFD0EDBCF22
:10594000EAFFAA0EEF6EFC0EDB2AFD0E01E3DB2A56
:10595000FC0EDBCFE9FFFD0EDBCFEAFFBB0EEF6EE7
:10596000FC0EDB2AFD0E01E3DB2AFC0EDBCFE9FF98
:10597000FD0EDBCFEAFFEF6AFC0EDB2AFD0E01E332
:10598000DB2AFC0EDBCFE9FFFD0EDBCFEAFFEF6A7F
:10599000FC0EDB2AFD0E01E3DB2A040EDB6A040E9B
:1059A000DB50130815E3FC0EDBCFE9FFFD0EDBCF68
:1059B000EAFF040EDBCFEFFFFC0EDBCFE9FFDB2AB3
:1059C000FD0EDBCFEAFF01E3DB2A040EDB2AE7D77B
:1059D000FC0EDBCFE9FFFD0EDBCFEAFF130EEF6E0F
:1059E000FC0EDB2AFD0E01E3DB2AFC0EDBCFE9FF18
:1059F000FD0EDBCFEAFFEF6AFC0EDB2AFD0E01E3B2
:105A0000DB2AFA0EDBCF14F0FB0EDBCF15F0000E15
:105A100014C0DBFF010E15C0DBFF020EDB6A030EB4
:105A2000DB6AD9CFE9FFDACFEAFFEECF14F0EECF91
:105A300015F0EECF16F0EFCF17F01450E66EFC0E17
:105A4000DBCFE9FFFD0EDBCFEAFFE552E750EF6E5B
:105A5000FC0EDB2AFD0E01E3DB2AD9CFE9FFDACF0A
:105A6000EAFF080EE76ED890030EEB32020EEB321F
:105A7000010EEB32EF32E706F6E1D9CFE9FFDACFDC
:105A8000EAFFEECF14F0EECF15F0EECF16F0EFCF29
:105A900017F01450E66EFC0EDBCFE9FFFD0EDBCFF6
:105AA000EAFFE552E750EF6EFC0EDB2AFD0E01E344
:105AB000DB2AD9CFE9FFDACFEAFF080EE76ED890EC
